{"contracts/NovaGuardian.sol":{"NovaGuardian":{"abi":[{"inputs":[],"stateMutability":"nonpayable","type":"constructor"},{"inputs":[{"internalType":"address","name":"owner","type":"address"}],"name":"OwnableInvalidOwner","type":"error"},{"inputs":[{"internalType":"address","name":"account","type":"address"}],"name":"OwnableUnauthorizedAccount","type":"error"},{"inputs":[],"name":"ReentrancyGuardReentrantCall","type":"error"},{"anonymous":false,"inputs":[{"indexed":true,"internalType":"address","name":"wallet","type":"address"},{"indexed":false,"internalType":"string","name":"reason","type":"string"}],"name":"AgentBanned","type":"event"},{"anonymous":false,"inputs":[{"indexed":true,"internalType":"address","name":"wallet","type":"address"},{"indexed":false,"internalType":"string","name":"name","type":"string"},{"indexed":false,"internalType":"uint256","name":"timestamp","type":"uint256"}],"name":"AgentRegistered","type":"event"},{"anonymous":false,"inputs":[{"indexed":true,"internalType":"address","name":"wallet","type":"address"},{"indexed":false,"internalType":"uint256","name":"trustScore","type":"uint256"}],"name":"AgentVerified","type":"event"},{"anonymous":false,"inputs":[{"indexed":true,"internalType":"address","name":"previousOwner","type":"address"},{"indexed":true,"internalType":"address","name":"newOwner","type":"address"}],"name":"OwnershipTransferred","type":"event"},{"anonymous":false,"inputs":[{"indexed":true,"internalType":"bytes32","name":"scanId","type":"bytes32"},{"indexed":true,"internalType":"address","name":"agent","type":"address"},{"indexed":false,"internalType":"uint8","name":"riskLevel","type":"uint8"}],"name":"ScanCompleted","type":"event"},{"anonymous":false,"inputs":[{"indexed":true,"internalType":"bytes32","name":"skillId","type":"bytes32"},{"indexed":false,"internalType":"uint256","name":"trustScore","type":"uint256"}],"name":"SkillApproved","type":"event"},{"anonymous":false,"inputs":[{"indexed":true,"internalType":"bytes32","name":"skillId","type":"bytes32"},{"indexed":false,"internalType":"string","name":"skillHash","type":"string"},{"indexed":false,"internalType":"address","name":"submitter","type":"address"}],"name":"SkillSubmitted","type":"event"},{"anonymous":false,"inputs":[{"indexed":true,"internalType":"address","name":"agent","type":"address"},{"indexed":false,"internalType":"uint256","name":"oldScore","type":"uint256"},{"indexed":false,"internalType":"uint256","name":"newScore","type":"uint256"}],"name":"TrustScoreUpdated","type":"event"},{"inputs":[],"name":"INITIAL_TRUST_SCORE","outputs":[{"internalType":"uint256","name":"","type":"uint256"}],"stateMutability":"view","type":"function"},{"inputs":[],"name":"MAX_TRUST_SCORE","outputs":[{"internalType":"uint256","name":"","type":"uint256"}],"stateMutability":"view","type":"function"},{"inputs":[],"name":"MIN_TRUST_SCORE","outputs":[{"internalType":"uint256","name":"","type":"uint256"}],"stateMutability":"view","type":"function"},{"inputs":[{"internalType":"address","name":"","type":"address"}],"name":"agents","outputs":[{"internalType":"address","name":"wallet","type":"address"},{"internalType":"string","name":"name","type":"string"},{"internalType":"string","name":"manifestHash","type":"string"},{"internalType":"uint256","name":"trustScore","type":"uint256"},{"internalType":"uint256","name":"scanCount","type":"uint256"},{"internalType":"uint256","name":"registeredAt","type":"uint256"},{"internalType":"bool","name":"isVerified","type":"bool"},{"internalType":"bool","name":"isBanned","type":"bool"}],"stateMutability":"view","type":"function"},{"inputs":[{"internalType":"uint256","name":"","type":"uint256"}],"name":"allScans","outputs":[{"internalType":"bytes32","name":"","type":"bytes32"}],"stateMutability":"view","type":"function"},{"inputs":[{"internalType":"address","name":"agent","type":"address"},{"internalType":"string","name":"reason","type":"string"}],"name":"banAgent","outputs":[],"stateMutability":"nonpayable","type":"function"},{"inputs":[{"internalType":"address","name":"wallet","type":"address"}],"name":"getAgent","outputs":[{"components":[{"internalType":"address","name":"wallet","type":"address"},{"internalType":"string","name":"name","type":"string"},{"internalType":"string","name":"manifestHash","type":"string"},{"internalType":"uint256","name":"trustScore","type":"uint256"},{"internalType":"uint256","name":"scanCount","type":"uint256"},{"internalType":"uint256","name":"registeredAt","type":"uint256"},{"internalType":"bool","name":"isVerified","type":"bool"},{"internalType":"bool","name":"isBanned","type":"bool"}],"internalType":"struct NovaGuardian.AgentProfile","name":"","type":"tuple"}],"stateMutability":"view","type":"function"},{"inputs":[],"name":"getAgentCount","outputs":[{"internalType":"uint256","name":"","type":"uint256"}],"stateMutability":"view","type":"function"},{"inputs":[{"internalType":"bytes32","name":"scanId","type":"bytes32"}],"name":"getScan","outputs":[{"components":[{"internalType":"address","name":"agent","type":"address"},{"internalType":"string","name":"targetHash","type":"string"},{"internalType":"uint8","name":"riskLevel","type":"uint8"},{"internalType":"uint256","name":"timestamp","type":"uint256"},{"internalType":"string[]","name":"findings","type":"string[]"}],"internalType":"struct NovaGuardian.ScanResult","name":"","type":"tuple"}],"stateMutability":"view","type":"function"},{"inputs":[],"name":"getScanCount","outputs":[{"internalType":"uint256","name":"","type":"uint256"}],"stateMutability":"view","type":"function"},{"inputs":[{"internalType":"string","name":"skillHash","type":"string"}],"name":"isSkillTrusted","outputs":[{"internalType":"bool","name":"","type":"bool"},{"internalType":"uint256","name":"","type":"uint256"}],"stateMutability":"view","type":"function"},{"inputs":[],"name":"owner","outputs":[{"internalType":"address","name":"","type":"address"}],"stateMutability":"view","type":"function"},{"inputs":[{"internalType":"string","name":"name","type":"string"},{"internalType":"string","name":"manifestHash","type":"string"}],"name":"registerAgent","outputs":[],"stateMutability":"nonpayable","type":"function"},{"inputs":[{"internalType":"uint256","name":"","type":"uint256"}],"name":"registeredAgents","outputs":[{"internalType":"address","name":"","type":"address"}],"stateMutability":"view","type":"function"},{"inputs":[],"name":"renounceOwnership","outputs":[],"stateMutability":"nonpayable","type":"function"},{"inputs":[{"internalType":"bytes32","name":"","type":"bytes32"}],"name":"scans","outputs":[{"internalType":"address","name":"agent","type":"address"},{"internalType":"string","name":"targetHash","type":"string"},{"internalType":"uint8","name":"riskLevel","type":"uint8"},{"internalType":"uint256","name":"timestamp","type":"uint256"}],"stateMutability":"view","type":"function"},{"inputs":[{"internalType":"address","name":"agent","type":"address"},{"internalType":"uint256","name":"score","type":"uint256"}],"name":"setTrustScore","outputs":[],"stateMutability":"nonpayable","type":"function"},{"inputs":[{"internalType":"string","name":"targetHash","type":"string"},{"internalType":"uint8","name":"riskLevel","type":"uint8"},{"internalType":"string[]","name":"findings","type":"string[]"}],"name":"submitScan","outputs":[{"internalType":"bytes32","name":"scanId","type":"bytes32"}],"stateMutability":"nonpayable","type":"function"},{"inputs":[{"internalType":"string","name":"skillHash","type":"string"}],"name":"submitSkill","outputs":[{"internalType":"bytes32","name":"skillId","type":"bytes32"}],"stateMutability":"nonpayable","type":"function"},{"inputs":[],"name":"totalAgents","outputs":[{"internalType":"uint256","name":"","type":"uint256"}],"stateMutability":"view","type":"function"},{"inputs":[],"name":"totalScans","outputs":[{"internalType":"uint256","name":"","type":"uint256"}],"stateMutability":"view","type":"function"},{"inputs":[{"internalType":"address","name":"newOwner","type":"address"}],"name":"transferOwnership","outputs":[],"stateMutability":"nonpayable","type":"function"},{"inputs":[{"internalType":"bytes32","name":"","type":"bytes32"}],"name":"trustedSkills","outputs":[{"internalType":"string","name":"skillHash","type":"string"},{"internalType":"address","name":"submitter","type":"address"},{"internalType":"uint256","name":"trustScore","type":"uint256"},{"internalType":"uint256","name":"verifications","type":"uint256"},{"internalType":"bool","name":"isApproved","type":"bool"}],"stateMutability":"view","type":"function"},{"inputs":[{"internalType":"string","name":"manifestHash","type":"string"}],"name":"updateManifest","outputs":[],"stateMutability":"nonpayable","type":"function"},{"inputs":[{"internalType":"address","name":"agent","type":"address"}],"name":"verifyAgent","outputs":[],"stateMutability":"nonpayable","type":"function"},{"inputs":[{"internalType":"bytes32","name":"skillId","type":"bytes32"},{"internalType":"uint256","name":"score","type":"uint256"}],"name":"verifySkill","outputs":[],"stateMutability":"nonpayable","type":"function"}],"evm":{"bytecode":{"linkReferences":{},"object":"60806040523480156200001157600080fd5b5033600073ffffffffffffffffffffffffffffffffffffffff168173ffffffffffffffffffffffffffffffffffffffff1603620000885760006040517f1e4fbdf70000000000000000000000000000000000000000000000000000000081526004016200007f9190620001b0565b60405180910390fd5b6200009981620000a760201b60201c565b5060018081905550620001cd565b60008060009054906101000a900473ffffffffffffffffffffffffffffffffffffffff169050816000806101000a81548173ffffffffffffffffffffffffffffffffffffffff021916908373ffffffffffffffffffffffffffffffffffffffff1602179055508173ffffffffffffffffffffffffffffffffffffffff168173ffffffffffffffffffffffffffffffffffffffff167f8be0079c531659141344cd1fd0a4f28419497f9722a3daafe3b4186f6b6457e060405160405180910390a35050565b600073ffffffffffffffffffffffffffffffffffffffff82169050919050565b600062000198826200016b565b9050919050565b620001aa816200018b565b82525050565b6000602082019050620001c760008301846200019f565b92915050565b613c6180620001dd6000396000f3fe608060405234801561001057600080fd5b506004361061018e5760003560e01c806391cab63e116100de578063f288376511610097578063fb3551ff11610071578063fb3551ff146104a1578063fd66091e146104d1578063feec475814610508578063ff17aca4146105245761018e565b8063f288376514610421578063f2c5cb1914610455578063f2fde38b146104855761018e565b806391cab63e14610334578063a7bd211c14610352578063a91a36e914610382578063ad436cc3146103a0578063c4b31084146103d0578063c5053712146104035761018e565b80634a0738741161014b578063734b7ca911610125578063734b7ca9146102aa57806374c8d377146102da5780638910cb66146102f85780638da5cb5b146103165761018e565b80634a0738741461026857806357200a9e14610284578063715018a6146102a05761018e565b8063057e709c146101935780630c23792b146101b15780630f9c5a4b146101cf5780632d6d910114610200578063307409521461021c578063362d26b314610238575b600080fd5b61019b610540565b6040516101a89190612561565b60405180910390f35b6101b9610545565b6040516101c69190612561565b60405180910390f35b6101e960048036038101906101e491906125f5565b61054b565b6040516101f792919061265d565b60405180910390f35b61021a600480360381019061021591906126e8565b6105b6565b005b61023660048036038101906102319190612786565b610804565b005b610252600480360381019061024d91906127b3565b61097f565b60405161025f91906127ef565b60405180910390f35b610282600480360381019061027d919061280a565b6109a3565b005b61029e600480360381019061029991906125f5565b610b28565b005b6102a8610c93565b005b6102c460048036038101906102bf91906125f5565b610ca7565b6040516102d191906127ef565b60405180910390f35b6102e2610f6c565b6040516102ef9190612561565b60405180910390f35b610300610f71565b60405161030d9190612561565b60405180910390f35b61031e610f7b565b60405161032b9190612879565b60405180910390f35b61033c610fa4565b6040516103499190612561565b60405180910390f35b61036c600480360381019061036791906127b3565b610fae565b6040516103799190612879565b60405180910390f35b61038a610fed565b6040516103979190612561565b60405180910390f35b6103ba60048036038101906103b59190612894565b610ff2565b6040516103c79190612aca565b60405180910390f35b6103ea60048036038101906103e59190612894565b611207565b6040516103fa9493929190612b45565b60405180910390f35b61040b6112ec565b6040516104189190612561565b60405180910390f35b61043b60048036038101906104369190612894565b6112f2565b60405161044c959493929190612b91565b60405180910390f35b61046f600480360381019061046a9190612c6d565b6113dd565b60405161047c91906127ef565b60405180910390f35b61049f600480360381019061049a9190612786565b6117b0565b005b6104bb60048036038101906104b69190612786565b611836565b6040516104c89190612dc8565b60405180910390f35b6104eb60048036038101906104e69190612786565b611a5e565b6040516104ff989796959493929190612dea565b60405180910390f35b610522600480360381019061051d9190612e76565b611bf0565b005b61053e60048036038101906105399190612eb6565b611da4565b005b600081565b60075481565b60008060008484604051602001610563929190612f76565b60405160208183030381529060405280519060200120905060006004600083815260200190815260200160002090508060040160009054906101000a900460ff1681600201549350935050509250929050565b600260003373ffffffffffffffffffffffffffffffffffffffff1673ffffffffffffffffffffffffffffffffffffffff16815260200190815260200160002060060160009054906101000a900460ff16610645576040517f08c379a000000000000000000000000000000000000000000000000000000000815260040161063c90612fdb565b60405180910390fd5b600073ffffffffffffffffffffffffffffffffffffffff166004600084815260200190815260200160002060010160009054906101000a900473ffffffffffffffffffffffffffffffffffffffff1673ffffffffffffffffffffffffffffffffffffffff16036106ea576040517f08c379a00000000000000000000000000000000000000000000000000000000081526004016106e190613047565b60405180910390fd5b606481111561072e576040517f08c379a0000000000000000000000000000000000000000000000000000000008152600401610725906130b3565b60405180910390fd5b600060046000848152602001908152602001600020905080600301600081548092919061075a90613102565b91905055508060030154828260020154610774919061314a565b61077e91906131ad565b816002018190555060038160030154101580156107a057506046816002015410155b156107ff5760018160040160006101000a81548160ff021916908315150217905550827f9eacd5102e6d99a7e56aca85b162fff2a89b1ff0d4b5a88d97983a35d19ae7a882600201546040516107f69190612561565b60405180910390a25b505050565b61080c612135565b6000600260008373ffffffffffffffffffffffffffffffffffffffff1673ffffffffffffffffffffffffffffffffffffffff1681526020019081526020016000206005015411610891576040517f08c379a00000000000000000000000000000000000000000000000000000000081526004016108889061322a565b60405180910390fd5b6001600260008373ffffffffffffffffffffffffffffffffffffffff1673ffffffffffffffffffffffffffffffffffffffff16815260200190815260200160002060060160006101000a81548160ff0219169083151502179055508073ffffffffffffffffffffffffffffffffffffffff167f9e731975b673694cf4c611f5eda33cd103657ea6b0afa241c584c6e82477d020600260008473ffffffffffffffffffffffffffffffffffffffff1673ffffffffffffffffffffffffffffffffffffffff168152602001908152602001600020600301546040516109749190612561565b60405180910390a250565b6006818154811061098f57600080fd5b906000526020600020016000915090505481565b6109ab612135565b6000600260008573ffffffffffffffffffffffffffffffffffffffff1673ffffffffffffffffffffffffffffffffffffffff1681526020019081526020016000206005015411610a30576040517f08c379a0000000000000000000000000000000000000000000000000000000008152600401610a279061322a565b60405180910390fd5b6001600260008573ffffffffffffffffffffffffffffffffffffffff1673ffffffffffffffffffffffffffffffffffffffff16815260200190815260200160002060060160016101000a81548160ff0219169083151502179055506000600260008573ffffffffffffffffffffffffffffffffffffffff1673ffffffffffffffffffffffffffffffffffffffff168152602001908152602001600020600301819055508273ffffffffffffffffffffffffffffffffffffffff167f2c05b34d4be4e407fe28ab8d44a77b22dc4de4e596c15f509e6be9a77a8ce9268383604051610b1b929190613277565b60405180910390a2505050565b6000600260003373ffffffffffffffffffffffffffffffffffffffff1673ffffffffffffffffffffffffffffffffffffffff1681526020019081526020016000206005015411610bad576040517f08c379a0000000000000000000000000000000000000000000000000000000008152600401610ba49061322a565b60405180910390fd5b600260003373ffffffffffffffffffffffffffffffffffffffff1673ffffffffffffffffffffffffffffffffffffffff16815260200190815260200160002060060160019054906101000a900460ff1615610c3d576040517f08c379a0000000000000000000000000000000000000000000000000000000008152600401610c34906132e7565b60405180910390fd5b8181600260003373ffffffffffffffffffffffffffffffffffffffff1673ffffffffffffffffffffffffffffffffffffffff1681526020019081526020016000206002019182610c8e92919061354d565b505050565b610c9b612135565b610ca560006121bc565b565b600080600260003373ffffffffffffffffffffffffffffffffffffffff1673ffffffffffffffffffffffffffffffffffffffff1681526020019081526020016000206005015411610d2d576040517f08c379a0000000000000000000000000000000000000000000000000000000008152600401610d249061322a565b60405180910390fd5b8282604051602001610d40929190612f76565b604051602081830303815290604052805190602001209050600073ffffffffffffffffffffffffffffffffffffffff166004600083815260200190815260200160002060010160009054906101000a900473ffffffffffffffffffffffffffffffffffffffff1673ffffffffffffffffffffffffffffffffffffffff1614610dfd576040517f08c379a0000000000000000000000000000000000000000000000000000000008152600401610df490613669565b60405180910390fd5b6040518060a0016040528084848080601f016020809104026020016040519081016040528093929190818152602001838380828437600081840152601f19601f8201169050808301925050505050505081526020013373ffffffffffffffffffffffffffffffffffffffff168152602001600081526020016000815260200160001515815250600460008381526020019081526020016000206000820151816000019081610eab9190613689565b5060208201518160010160006101000a81548173ffffffffffffffffffffffffffffffffffffffff021916908373ffffffffffffffffffffffffffffffffffffffff160217905550604082015181600201556060820151816003015560808201518160040160006101000a81548160ff021916908315150217905550905050807f38586a8f95f53da657f740d4e3f98699828cd95273c9770d2744346580eaa3a5848433604051610f5e9392919061375b565b60405180910390a292915050565b606481565b6000600754905090565b60008060009054906101000a900473ffffffffffffffffffffffffffffffffffffffff16905090565b6000600854905090565b60058181548110610fbe57600080fd5b906000526020600020016000915054906101000a900473ffffffffffffffffffffffffffffffffffffffff1681565b603281565b610ffa6123c7565b600360008381526020019081526020016000206040518060a00160405290816000820160009054906101000a900473ffffffffffffffffffffffffffffffffffffffff1673ffffffffffffffffffffffffffffffffffffffff1673ffffffffffffffffffffffffffffffffffffffff16815260200160018201805461107e90613370565b80601f01602080910402602001604051908101604052809291908181526020018280546110aa90613370565b80156110f75780601f106110cc576101008083540402835291602001916110f7565b820191906000526020600020905b8154815290600101906020018083116110da57829003601f168201915b505050505081526020016002820160009054906101000a900460ff1660ff1660ff1681526020016003820154815260200160048201805480602002602001604051908101604052809291908181526020016000905b828210156111f857838290600052602060002001805461116b90613370565b80601f016020809104026020016040519081016040528092919081815260200182805461119790613370565b80156111e45780601f106111b9576101008083540402835291602001916111e4565b820191906000526020600020905b8154815290600101906020018083116111c757829003601f168201915b50505050508152602001906001019061114c565b50505050815250509050919050565b60036020528060005260406000206000915090508060000160009054906101000a900473ffffffffffffffffffffffffffffffffffffffff169080600101805461125090613370565b80601f016020809104026020016040519081016040528092919081815260200182805461127c90613370565b80156112c95780601f1061129e576101008083540402835291602001916112c9565b820191906000526020600020905b8154815290600101906020018083116112ac57829003601f168201915b5050505050908060020160009054906101000a900460ff16908060030154905084565b60085481565b600460205280600052604060002060009150905080600001805461131590613370565b80601f016020809104026020016040519081016040528092919081815260200182805461134190613370565b801561138e5780601f106113635761010080835404028352916020019161138e565b820191906000526020600020905b81548152906001019060200180831161137157829003601f168201915b5050505050908060010160009054906101000a900473ffffffffffffffffffffffffffffffffffffffff16908060020154908060030154908060040160009054906101000a900460ff16905085565b600080600260003373ffffffffffffffffffffffffffffffffffffffff1673ffffffffffffffffffffffffffffffffffffffff1681526020019081526020016000206005015411611463576040517f08c379a000000000000000000000000000000000000000000000000000000000815260040161145a9061322a565b60405180910390fd5b600260003373ffffffffffffffffffffffffffffffffffffffff1673ffffffffffffffffffffffffffffffffffffffff16815260200190815260200160002060060160019054906101000a900460ff16156114f3576040517f08c379a00000000000000000000000000000000000000000000000000000000081526004016114ea906132e7565b60405180910390fd5b60048460ff16111561153a576040517f08c379a0000000000000000000000000000000000000000000000000000000008152600401611531906137d9565b60405180910390fd5b338686426040516020016115519493929190613862565b6040516020818303038152906040528051906020012090506040518060a001604052803373ffffffffffffffffffffffffffffffffffffffff16815260200187878080601f016020809104026020016040519081016040528093929190818152602001838380828437600081840152601f19601f8201169050808301925050505050505081526020018560ff1681526020014281526020018484906115f69190613a42565b8152506003600083815260200190815260200160002060008201518160000160006101000a81548173ffffffffffffffffffffffffffffffffffffffff021916908373ffffffffffffffffffffffffffffffffffffffff16021790555060208201518160010190816116689190613689565b5060408201518160020160006101000a81548160ff021916908360ff1602179055506060820151816003015560808201518160040190805190602001906116b092919061240f565b509050506006819080600181540180825580915050600190039060005260206000200160009091909190915055600260003373ffffffffffffffffffffffffffffffffffffffff1673ffffffffffffffffffffffffffffffffffffffff168152602001908152602001600020600401600081548092919061173090613102565b91905055506007600081548092919061174890613102565b9190505550611758336001612280565b3373ffffffffffffffffffffffffffffffffffffffff16817f1150cea034e4fd5a6337ec3d96898404f0ecdb57b462c869ad74977b130474f38660405161179f9190613a57565b60405180910390a395945050505050565b6117b8612135565b600073ffffffffffffffffffffffffffffffffffffffff168173ffffffffffffffffffffffffffffffffffffffff160361182a5760006040517f1e4fbdf70000000000000000000000000000000000000000000000000000000081526004016118219190612879565b60405180910390fd5b611833816121bc565b50565b61183e612468565b600260008373ffffffffffffffffffffffffffffffffffffffff1673ffffffffffffffffffffffffffffffffffffffff168152602001908152602001600020604051806101000160405290816000820160009054906101000a900473ffffffffffffffffffffffffffffffffffffffff1673ffffffffffffffffffffffffffffffffffffffff1673ffffffffffffffffffffffffffffffffffffffff1681526020016001820180546118ef90613370565b80601f016020809104026020016040519081016040528092919081815260200182805461191b90613370565b80156119685780601f1061193d57610100808354040283529160200191611968565b820191906000526020600020905b81548152906001019060200180831161194b57829003601f168201915b5050505050815260200160028201805461198190613370565b80601f01602080910402602001604051908101604052809291908181526020018280546119ad90613370565b80156119fa5780601f106119cf576101008083540402835291602001916119fa565b820191906000526020600020905b8154815290600101906020018083116119dd57829003601f168201915b505050505081526020016003820154815260200160048201548152602001600582015481526020016006820160009054906101000a900460ff161515151581526020016006820160019054906101000a900460ff1615151515815250509050919050565b60026020528060005260406000206000915090508060000160009054906101000a900473ffffffffffffffffffffffffffffffffffffffff1690806001018054611aa790613370565b80601f0160208091040260200160405190810160405280929190818152602001828054611ad390613370565b8015611b205780601f10611af557610100808354040283529160200191611b20565b820191906000526020600020905b815481529060010190602001808311611b0357829003601f168201915b505050505090806002018054611b3590613370565b80601f0160208091040260200160405190810160405280929190818152602001828054611b6190613370565b8015611bae5780601f10611b8357610100808354040283529160200191611bae565b820191906000526020600020905b815481529060010190602001808311611b9157829003601f168201915b5050505050908060030154908060040154908060050154908060060160009054906101000a900460ff16908060060160019054906101000a900460ff16905088565b611bf8612135565b6000600260008473ffffffffffffffffffffffffffffffffffffffff1673ffffffffffffffffffffffffffffffffffffffff1681526020019081526020016000206005015411611c7d576040517f08c379a0000000000000000000000000000000000000000000000000000000008152600401611c749061322a565b60405180910390fd5b6064811115611cc1576040517f08c379a0000000000000000000000000000000000000000000000000000000008152600401611cb8906130b3565b60405180910390fd5b6000600260008473ffffffffffffffffffffffffffffffffffffffff1673ffffffffffffffffffffffffffffffffffffffff16815260200190815260200160002060030154905081600260008573ffffffffffffffffffffffffffffffffffffffff1673ffffffffffffffffffffffffffffffffffffffff168152602001908152602001600020600301819055508273ffffffffffffffffffffffffffffffffffffffff167f15dd57e0cde9af9083c846eb39c9da382e907c0036818e4a163ecd167e5f32768284604051611d97929190613a72565b60405180910390a2505050565b6000600260003373ffffffffffffffffffffffffffffffffffffffff1673ffffffffffffffffffffffffffffffffffffffff1681526020019081526020016000206005015414611e29576040517f08c379a0000000000000000000000000000000000000000000000000000000008152600401611e2090613ae7565b60405180910390fd5b60008484905011611e6f576040517f08c379a0000000000000000000000000000000000000000000000000000000008152600401611e6690613b53565b60405180910390fd5b6040518061010001604052803373ffffffffffffffffffffffffffffffffffffffff16815260200185858080601f016020809104026020016040519081016040528093929190818152602001838380828437600081840152601f19601f82011690508083019250505050505050815260200183838080601f016020809104026020016040519081016040528093929190818152602001838380828437600081840152601f19601f820116905080830192505050505050508152602001603281526020016000815260200142815260200160001515815260200160001515815250600260003373ffffffffffffffffffffffffffffffffffffffff1673ffffffffffffffffffffffffffffffffffffffff16815260200190815260200160002060008201518160000160006101000a81548173ffffffffffffffffffffffffffffffffffffffff021916908373ffffffffffffffffffffffffffffffffffffffff1602179055506020820151816001019081611fea9190613689565b5060408201518160020190816120009190613689565b50606082015181600301556080820151816004015560a0820151816005015560c08201518160060160006101000a81548160ff02191690831515021790555060e08201518160060160016101000a81548160ff0219169083151502179055509050506005339080600181540180825580915050600190039060005260206000200160009091909190916101000a81548173ffffffffffffffffffffffffffffffffffffffff021916908373ffffffffffffffffffffffffffffffffffffffff160217905550600860008154809291906120d890613102565b91905055503373ffffffffffffffffffffffffffffffffffffffff167f023c5efe572c42192271951adb0e77f97d7fc84bc761d026189ac0861734682485854260405161212793929190613b73565b60405180910390a250505050565b61213d6123bf565b73ffffffffffffffffffffffffffffffffffffffff1661215b610f7b565b73ffffffffffffffffffffffffffffffffffffffff16146121ba5761217e6123bf565b6040517f118cdaa70000000000000000000000000000000000000000000000000000000081526004016121b19190612879565b60405180910390fd5b565b60008060009054906101000a900473ffffffffffffffffffffffffffffffffffffffff169050816000806101000a81548173ffffffffffffffffffffffffffffffffffffffff021916908373ffffffffffffffffffffffffffffffffffffffff1602179055508173ffffffffffffffffffffffffffffffffffffffff168173ffffffffffffffffffffffffffffffffffffffff167f8be0079c531659141344cd1fd0a4f28419497f9722a3daafe3b4186f6b6457e060405160405180910390a35050565b6000600260008473ffffffffffffffffffffffffffffffffffffffff1673ffffffffffffffffffffffffffffffffffffffff1681526020019081526020016000206003015490506000808313156122f25782826122dd919061314a565b905060648111156122ed57606490505b612322565b6000836122fe90613baf565b9050828111156123115760009150612320565b808361231d9190613bf7565b91505b505b80600260008673ffffffffffffffffffffffffffffffffffffffff1673ffffffffffffffffffffffffffffffffffffffff168152602001908152602001600020600301819055508373ffffffffffffffffffffffffffffffffffffffff167f15dd57e0cde9af9083c846eb39c9da382e907c0036818e4a163ecd167e5f327683836040516123b1929190613a72565b60405180910390a250505050565b600033905090565b6040518060a00160405280600073ffffffffffffffffffffffffffffffffffffffff16815260200160608152602001600060ff16815260200160008152602001606081525090565b828054828255906000526020600020908101928215612457579160200282015b828111156124565782518290816124469190613689565b509160200191906001019061242f565b5b50905061246491906124c7565b5090565b604051806101000160405280600073ffffffffffffffffffffffffffffffffffffffff16815260200160608152602001606081526020016000815260200160008152602001600081526020016000151581526020016000151581525090565b5b808211156124e757600081816124de91906124eb565b506001016124c8565b5090565b5080546124f790613370565b6000825580601f106125095750612528565b601f016020900490600052602060002090810190612527919061252b565b5b50565b5b8082111561254457600081600090555060010161252c565b5090565b6000819050919050565b61255b81612548565b82525050565b60006020820190506125766000830184612552565b92915050565b6000604051905090565b600080fd5b600080fd5b600080fd5b600080fd5b600080fd5b60008083601f8401126125b5576125b4612590565b5b8235905067ffffffffffffffff8111156125d2576125d1612595565b5b6020830191508360018202830111156125ee576125ed61259a565b5b9250929050565b6000806020838503121561260c5761260b612586565b5b600083013567ffffffffffffffff81111561262a5761262961258b565b5b6126368582860161259f565b92509250509250929050565b60008115159050919050565b61265781612642565b82525050565b6000604082019050612672600083018561264e565b61267f6020830184612552565b9392505050565b6000819050919050565b61269981612686565b81146126a457600080fd5b50565b6000813590506126b681612690565b92915050565b6126c581612548565b81146126d057600080fd5b50565b6000813590506126e2816126bc565b92915050565b600080604083850312156126ff576126fe612586565b5b600061270d858286016126a7565b925050602061271e858286016126d3565b9150509250929050565b600073ffffffffffffffffffffffffffffffffffffffff82169050919050565b600061275382612728565b9050919050565b61276381612748565b811461276e57600080fd5b50565b6000813590506127808161275a565b92915050565b60006020828403121561279c5761279b612586565b5b60006127aa84828501612771565b91505092915050565b6000602082840312156127c9576127c8612586565b5b60006127d7848285016126d3565b91505092915050565b6127e981612686565b82525050565b600060208201905061280460008301846127e0565b92915050565b60008060006040848603121561282357612822612586565b5b600061283186828701612771565b935050602084013567ffffffffffffffff8111156128525761285161258b565b5b61285e8682870161259f565b92509250509250925092565b61287381612748565b82525050565b600060208201905061288e600083018461286a565b92915050565b6000602082840312156128aa576128a9612586565b5b60006128b8848285016126a7565b91505092915050565b6128ca81612748565b82525050565b600081519050919050565b600082825260208201905092915050565b60005b8381101561290a5780820151818401526020810190506128ef565b60008484015250505050565b6000601f19601f8301169050919050565b6000612932826128d0565b61293c81856128db565b935061294c8185602086016128ec565b61295581612916565b840191505092915050565b600060ff82169050919050565b61297681612960565b82525050565b61298581612548565b82525050565b600081519050919050565b600082825260208201905092915050565b6000819050602082019050919050565b60006129c38383612927565b905092915050565b6000602082019050919050565b60006129e38261298b565b6129ed8185612996565b9350836020820285016129ff856129a7565b8060005b85811015612a3b5784840389528151612a1c85826129b7565b9450612a27836129cb565b925060208a01995050600181019050612a03565b50829750879550505050505092915050565b600060a083016000830151612a6560008601826128c1565b5060208301518482036020860152612a7d8282612927565b9150506040830151612a92604086018261296d565b506060830151612aa5606086018261297c565b5060808301518482036080860152612abd82826129d8565b9150508091505092915050565b60006020820190508181036000830152612ae48184612a4d565b905092915050565b600082825260208201905092915050565b6000612b08826128d0565b612b128185612aec565b9350612b228185602086016128ec565b612b2b81612916565b840191505092915050565b612b3f81612960565b82525050565b6000608082019050612b5a600083018761286a565b8181036020830152612b6c8186612afd565b9050612b7b6040830185612b36565b612b886060830184612552565b95945050505050565b600060a0820190508181036000830152612bab8188612afd565b9050612bba602083018761286a565b612bc76040830186612552565b612bd46060830185612552565b612be1608083018461264e565b9695505050505050565b612bf481612960565b8114612bff57600080fd5b50565b600081359050612c1181612beb565b92915050565b60008083601f840112612c2d57612c2c612590565b5b8235905067ffffffffffffffff811115612c4a57612c49612595565b5b602083019150836020820283011115612c6657612c6561259a565b5b9250929050565b600080600080600060608688031215612c8957612c88612586565b5b600086013567ffffffffffffffff811115612ca757612ca661258b565b5b612cb38882890161259f565b95509550506020612cc688828901612c02565b935050604086013567ffffffffffffffff811115612ce757612ce661258b565b5b612cf388828901612c17565b92509250509295509295909350565b612d0b81612642565b82525050565b600061010083016000830151612d2a60008601826128c1565b5060208301518482036020860152612d428282612927565b91505060408301518482036040860152612d5c8282612927565b9150506060830151612d71606086018261297c565b506080830151612d84608086018261297c565b5060a0830151612d9760a086018261297c565b5060c0830151612daa60c0860182612d02565b5060e0830151612dbd60e0860182612d02565b508091505092915050565b60006020820190508181036000830152612de28184612d11565b905092915050565b600061010082019050612e00600083018b61286a565b8181036020830152612e12818a612afd565b90508181036040830152612e268189612afd565b9050612e356060830188612552565b612e426080830187612552565b612e4f60a0830186612552565b612e5c60c083018561264e565b612e6960e083018461264e565b9998505050505050505050565b60008060408385031215612e8d57612e8c612586565b5b6000612e9b85828601612771565b9250506020612eac858286016126d3565b9150509250929050565b60008060008060408587031215612ed057612ecf612586565b5b600085013567ffffffffffffffff811115612eee57612eed61258b565b5b612efa8782880161259f565b9450945050602085013567ffffffffffffffff811115612f1d57612f1c61258b565b5b612f298782880161259f565b925092505092959194509250565b600081905092915050565b82818337600083830152505050565b6000612f5d8385612f37565b9350612f6a838584612f42565b82840190509392505050565b6000612f83828486612f51565b91508190509392505050565b7f4e6f74207665726966696564206167656e740000000000000000000000000000600082015250565b6000612fc5601283612aec565b9150612fd082612f8f565b602082019050919050565b60006020820190508181036000830152612ff481612fb8565b9050919050565b7f536b696c6c206e6f7420666f756e640000000000000000000000000000000000600082015250565b6000613031600f83612aec565b915061303c82612ffb565b602082019050919050565b6000602082019050818103600083015261306081613024565b9050919050565b7f496e76616c69642073636f726500000000000000000000000000000000000000600082015250565b600061309d600d83612aec565b91506130a882613067565b602082019050919050565b600060208201905081810360008301526130cc81613090565b9050919050565b7f4e487b7100000000000000000000000000000000000000000000000000000000600052601160045260246000fd5b600061310d82612548565b91507fffffffffffffffffffffffffffffffffffffffffffffffffffffffffffffffff820361313f5761313e6130d3565b5b600182019050919050565b600061315582612548565b915061316083612548565b9250828201905080821115613178576131776130d3565b5b92915050565b7f4e487b7100000000000000000000000000000000000000000000000000000000600052601260045260246000fd5b60006131b882612548565b91506131c383612548565b9250826131d3576131d261317e565b5b828204905092915050565b7f4e6f742072656769737465726564000000000000000000000000000000000000600082015250565b6000613214600e83612aec565b915061321f826131de565b602082019050919050565b6000602082019050818103600083015261324381613207565b9050919050565b60006132568385612aec565b9350613263838584612f42565b61326c83612916565b840190509392505050565b6000602082019050818103600083015261329281848661324a565b90509392505050565b7f4167656e742062616e6e65640000000000000000000000000000000000000000600082015250565b60006132d1600c83612aec565b91506132dc8261329b565b602082019050919050565b60006020820190508181036000830152613300816132c4565b9050919050565b600082905092915050565b7f4e487b7100000000000000000000000000000000000000000000000000000000600052604160045260246000fd5b7f4e487b7100000000000000000000000000000000000000000000000000000000600052602260045260246000fd5b6000600282049050600182168061338857607f821691505b60208210810361339b5761339a613341565b5b50919050565b60008190508160005260206000209050919050565b60006020601f8301049050919050565b600082821b905092915050565b6000600883026134037fffffffffffffffffffffffffffffffffffffffffffffffffffffffffffffffff826133c6565b61340d86836133c6565b95508019841693508086168417925050509392505050565b6000819050919050565b600061344a61344561344084612548565b613425565b612548565b9050919050565b6000819050919050565b6134648361342f565b61347861347082613451565b8484546133d3565b825550505050565b600090565b61348d613480565b61349881848461345b565b505050565b5b818110156134bc576134b1600082613485565b60018101905061349e565b5050565b601f821115613501576134d2816133a1565b6134db846133b6565b810160208510156134ea578190505b6134fe6134f6856133b6565b83018261349d565b50505b505050565b600082821c905092915050565b600061352460001984600802613506565b1980831691505092915050565b600061353d8383613513565b9150826002028217905092915050565b6135578383613307565b67ffffffffffffffff8111156135705761356f613312565b5b61357a8254613370565b6135858282856134c0565b6000601f8311600181146135b457600084156135a2578287013590505b6135ac8582613531565b865550613614565b601f1984166135c2866133a1565b60005b828110156135ea578489013582556001820191506020850194506020810190506135c5565b868310156136075784890135613603601f891682613513565b8355505b6001600288020188555050505b50505050505050565b7f536b696c6c206578697374730000000000000000000000000000000000000000600082015250565b6000613653600c83612aec565b915061365e8261361d565b602082019050919050565b6000602082019050818103600083015261368281613646565b9050919050565b613692826128d0565b67ffffffffffffffff8111156136ab576136aa613312565b5b6136b58254613370565b6136c08282856134c0565b600060209050601f8311600181146136f357600084156136e1578287015190505b6136eb8582613531565b865550613753565b601f198416613701866133a1565b60005b8281101561372957848901518255600182019150602085019450602081019050613704565b868310156137465784890151613742601f891682613513565b8355505b6001600288020188555050505b505050505050565b6000604082019050818103600083015261377681858761324a565b9050613785602083018461286a565b949350505050565b7f496e76616c6964207269736b206c6576656c0000000000000000000000000000600082015250565b60006137c3601283612aec565b91506137ce8261378d565b602082019050919050565b600060208201905081810360008301526137f2816137b6565b9050919050565b60008160601b9050919050565b6000613811826137f9565b9050919050565b600061382382613806565b9050919050565b61383b61383682612748565b613818565b82525050565b6000819050919050565b61385c61385782612548565b613841565b82525050565b600061386e828761382a565b60148201915061387f828587612f51565b915061388b828461384b565b60208201915081905095945050505050565b6138a682612916565b810181811067ffffffffffffffff821117156138c5576138c4613312565b5b80604052505050565b60006138d861257c565b90506138e4828261389d565b919050565b600067ffffffffffffffff82111561390457613903613312565b5b602082029050602081019050919050565b600080fd5b600067ffffffffffffffff82111561393557613934613312565b5b61393e82612916565b9050602081019050919050565b600061395e6139598461391a565b6138ce565b90508281526020810184848401111561397a57613979613915565b5b613985848285612f42565b509392505050565b600082601f8301126139a2576139a1612590565b5b81356139b284826020860161394b565b91505092915050565b60006139ce6139c9846138e9565b6138ce565b905080838252602082019050602084028301858111156139f1576139f061259a565b5b835b81811015613a3857803567ffffffffffffffff811115613a1657613a15612590565b5b808601613a23898261398d565b855260208501945050506020810190506139f3565b5050509392505050565b6000613a4f3684846139bb565b905092915050565b6000602082019050613a6c6000830184612b36565b92915050565b6000604082019050613a876000830185612552565b613a946020830184612552565b9392505050565b7f416c726561647920726567697374657265640000000000000000000000000000600082015250565b6000613ad1601283612aec565b9150613adc82613a9b565b602082019050919050565b60006020820190508181036000830152613b0081613ac4565b9050919050565b7f4e616d6520726571756972656400000000000000000000000000000000000000600082015250565b6000613b3d600d83612aec565b9150613b4882613b07565b602082019050919050565b60006020820190508181036000830152613b6c81613b30565b9050919050565b60006040820190508181036000830152613b8e81858761324a565b9050613b9d6020830184612552565b949350505050565b6000819050919050565b6000613bba82613ba5565b91507f80000000000000000000000000000000000000000000000000000000000000008203613bec57613beb6130d3565b5b816000039050919050565b6000613c0282612548565b9150613c0d83612548565b9250828203905081811115613c2557613c246130d3565b5b9291505056fea2646970667358221220ebce81b2a5affc24bc1d36f54cfe3fe4e55ff93a4a8f653aad4e6928f27a57da64736f6c63430008140033","opcodes":"PUSH1 0x80 PUSH1 0x40 MSTORE CALLVALUE DUP1 ISZERO PUSH3 0x11 JUMPI PUSH1 0x0 DUP1 REVERT JUMPDEST POP CALLER PUSH1 0x0 PUSH20 0xFFFFFFFFFFFFFFFFFFFFFFFFFFFFFFFFFFFFFFFF AND DUP2 PUSH20 0xFFFFFFFFFFFFFFFFFFFFFFFFFFFFFFFFFFFFFFFF AND SUB PUSH3 0x88 JUMPI PUSH1 0x0 PUSH1 0x40 MLOAD PUSH32 0x1E4FBDF700000000000000000000000000000000000000000000000000000000 DUP2 MSTORE PUSH1 0x4 ADD PUSH3 0x7F SWAP2 SWAP1 PUSH3 0x1B0 JUMP JUMPDEST PUSH1 0x40 MLOAD DUP1 SWAP2 SUB SWAP1 REVERT JUMPDEST PUSH3 0x99 DUP2 PUSH3 0xA7 PUSH1 0x20 SHL PUSH1 0x20 SHR JUMP JUMPDEST POP PUSH1 0x1 DUP1 DUP2 SWAP1 SSTORE POP PUSH3 0x1CD JUMP JUMPDEST PUSH1 0x0 DUP1 PUSH1 0x0 SWAP1 SLOAD SWAP1 PUSH2 0x100 EXP SWAP1 DIV PUSH20 0xFFFFFFFFFFFFFFFFFFFFFFFFFFFFFFFFFFFFFFFF AND SWAP1 POP DUP2 PUSH1 0x0 DUP1 PUSH2 0x100 EXP DUP2 SLOAD DUP2 PUSH20 0xFFFFFFFFFFFFFFFFFFFFFFFFFFFFFFFFFFFFFFFF MUL NOT AND SWAP1 DUP4 PUSH20 0xFFFFFFFFFFFFFFFFFFFFFFFFFFFFFFFFFFFFFFFF AND MUL OR SWAP1 SSTORE POP DUP2 PUSH20 0xFFFFFFFFFFFFFFFFFFFFFFFFFFFFFFFFFFFFFFFF AND DUP2 PUSH20 0xFFFFFFFFFFFFFFFFFFFFFFFFFFFFFFFFFFFFFFFF AND PUSH32 0x8BE0079C531659141344CD1FD0A4F28419497F9722A3DAAFE3B4186F6B6457E0 PUSH1 0x40 MLOAD PUSH1 0x40 MLOAD DUP1 SWAP2 SUB SWAP1 LOG3 POP POP JUMP JUMPDEST PUSH1 0x0 PUSH20 0xFFFFFFFFFFFFFFFFFFFFFFFFFFFFFFFFFFFFFFFF DUP3 AND SWAP1 POP SWAP2 SWAP1 POP JUMP JUMPDEST PUSH1 0x0 PUSH3 0x198 DUP3 PUSH3 0x16B JUMP JUMPDEST SWAP1 POP SWAP2 SWAP1 POP JUMP JUMPDEST PUSH3 0x1AA DUP2 PUSH3 0x18B JUMP JUMPDEST DUP3 MSTORE POP POP JUMP JUMPDEST PUSH1 0x0 PUSH1 0x20 DUP3 ADD SWAP1 POP PUSH3 0x1C7 PUSH1 0x0 DUP4 ADD DUP5 PUSH3 0x19F JUMP JUMPDEST SWAP3 SWAP2 POP POP JUMP JUMPDEST PUSH2 0x3C61 DUP1 PUSH3 0x1DD PUSH1 0x0 CODECOPY PUSH1 0x0 RETURN INVALID PUSH1 0x80 PUSH1 0x40 MSTORE CALLVALUE DUP1 ISZERO PUSH2 0x10 JUMPI PUSH1 0x0 DUP1 REVERT JUMPDEST POP PUSH1 0x4 CALLDATASIZE LT PUSH2 0x18E JUMPI PUSH1 0x0 CALLDATALOAD PUSH1 0xE0 SHR DUP1 PUSH4 0x91CAB63E GT PUSH2 0xDE JUMPI DUP1 PUSH4 0xF2883765 GT PUSH2 0x97 JUMPI DUP1 PUSH4 0xFB3551FF GT PUSH2 0x71 JUMPI DUP1 PUSH4 0xFB3551FF EQ PUSH2 0x4A1 JUMPI DUP1 PUSH4 0xFD66091E EQ PUSH2 0x4D1 JUMPI DUP1 PUSH4 0xFEEC4758 EQ PUSH2 0x508 JUMPI DUP1 PUSH4 0xFF17ACA4 EQ PUSH2 0x524 JUMPI PUSH2 0x18E JUMP JUMPDEST DUP1 PUSH4 0xF2883765 EQ PUSH2 0x421 JUMPI DUP1 PUSH4 0xF2C5CB19 EQ PUSH2 0x455 JUMPI DUP1 PUSH4 0xF2FDE38B EQ PUSH2 0x485 JUMPI PUSH2 0x18E JUMP JUMPDEST DUP1 PUSH4 0x91CAB63E EQ PUSH2 0x334 JUMPI DUP1 PUSH4 0xA7BD211C EQ PUSH2 0x352 JUMPI DUP1 PUSH4 0xA91A36E9 EQ PUSH2 0x382 JUMPI DUP1 PUSH4 0xAD436CC3 EQ PUSH2 0x3A0 JUMPI DUP1 PUSH4 0xC4B31084 EQ PUSH2 0x3D0 JUMPI DUP1 PUSH4 0xC5053712 EQ PUSH2 0x403 JUMPI PUSH2 0x18E JUMP JUMPDEST DUP1 PUSH4 0x4A073874 GT PUSH2 0x14B JUMPI DUP1 PUSH4 0x734B7CA9 GT PUSH2 0x125 JUMPI DUP1 PUSH4 0x734B7CA9 EQ PUSH2 0x2AA JUMPI DUP1 PUSH4 0x74C8D377 EQ PUSH2 0x2DA JUMPI DUP1 PUSH4 0x8910CB66 EQ PUSH2 0x2F8 JUMPI DUP1 PUSH4 0x8DA5CB5B EQ PUSH2 0x316 JUMPI PUSH2 0x18E JUMP JUMPDEST DUP1 PUSH4 0x4A073874 EQ PUSH2 0x268 JUMPI DUP1 PUSH4 0x57200A9E EQ PUSH2 0x284 JUMPI DUP1 PUSH4 0x715018A6 EQ PUSH2 0x2A0 JUMPI PUSH2 0x18E JUMP JUMPDEST DUP1 PUSH4 0x57E709C EQ PUSH2 0x193 JUMPI DUP1 PUSH4 0xC23792B EQ PUSH2 0x1B1 JUMPI DUP1 PUSH4 0xF9C5A4B EQ PUSH2 0x1CF JUMPI DUP1 PUSH4 0x2D6D9101 EQ PUSH2 0x200 JUMPI DUP1 PUSH4 0x30740952 EQ PUSH2 0x21C JUMPI DUP1 PUSH4 0x362D26B3 EQ PUSH2 0x238 JUMPI JUMPDEST PUSH1 0x0 DUP1 REVERT JUMPDEST PUSH2 0x19B PUSH2 0x540 JUMP JUMPDEST PUSH1 0x40 MLOAD PUSH2 0x1A8 SWAP2 SWAP1 PUSH2 0x2561 JUMP JUMPDEST PUSH1 0x40 MLOAD DUP1 SWAP2 SUB SWAP1 RETURN JUMPDEST PUSH2 0x1B9 PUSH2 0x545 JUMP JUMPDEST PUSH1 0x40 MLOAD PUSH2 0x1C6 SWAP2 SWAP1 PUSH2 0x2561 JUMP JUMPDEST PUSH1 0x40 MLOAD DUP1 SWAP2 SUB SWAP1 RETURN JUMPDEST PUSH2 0x1E9 PUSH1 0x4 DUP1 CALLDATASIZE SUB DUP2 ADD SWAP1 PUSH2 0x1E4 SWAP2 SWAP1 PUSH2 0x25F5 JUMP JUMPDEST PUSH2 0x54B JUMP JUMPDEST PUSH1 0x40 MLOAD PUSH2 0x1F7 SWAP3 SWAP2 SWAP1 PUSH2 0x265D JUMP JUMPDEST PUSH1 0x40 MLOAD DUP1 SWAP2 SUB SWAP1 RETURN JUMPDEST PUSH2 0x21A PUSH1 0x4 DUP1 CALLDATASIZE SUB DUP2 ADD SWAP1 PUSH2 0x215 SWAP2 SWAP1 PUSH2 0x26E8 JUMP JUMPDEST PUSH2 0x5B6 JUMP JUMPDEST STOP JUMPDEST PUSH2 0x236 PUSH1 0x4 DUP1 CALLDATASIZE SUB DUP2 ADD SWAP1 PUSH2 0x231 SWAP2 SWAP1 PUSH2 0x2786 JUMP JUMPDEST PUSH2 0x804 JUMP JUMPDEST STOP JUMPDEST PUSH2 0x252 PUSH1 0x4 DUP1 CALLDATASIZE SUB DUP2 ADD SWAP1 PUSH2 0x24D SWAP2 SWAP1 PUSH2 0x27B3 JUMP JUMPDEST PUSH2 0x97F JUMP JUMPDEST PUSH1 0x40 MLOAD PUSH2 0x25F SWAP2 SWAP1 PUSH2 0x27EF JUMP JUMPDEST PUSH1 0x40 MLOAD DUP1 SWAP2 SUB SWAP1 RETURN JUMPDEST PUSH2 0x282 PUSH1 0x4 DUP1 CALLDATASIZE SUB DUP2 ADD SWAP1 PUSH2 0x27D SWAP2 SWAP1 PUSH2 0x280A JUMP JUMPDEST PUSH2 0x9A3 JUMP JUMPDEST STOP JUMPDEST PUSH2 0x29E PUSH1 0x4 DUP1 CALLDATASIZE SUB DUP2 ADD SWAP1 PUSH2 0x299 SWAP2 SWAP1 PUSH2 0x25F5 JUMP JUMPDEST PUSH2 0xB28 JUMP JUMPDEST STOP JUMPDEST PUSH2 0x2A8 PUSH2 0xC93 JUMP JUMPDEST STOP JUMPDEST PUSH2 0x2C4 PUSH1 0x4 DUP1 CALLDATASIZE SUB DUP2 ADD SWAP1 PUSH2 0x2BF SWAP2 SWAP1 PUSH2 0x25F5 JUMP JUMPDEST PUSH2 0xCA7 JUMP JUMPDEST PUSH1 0x40 MLOAD PUSH2 0x2D1 SWAP2 SWAP1 PUSH2 0x27EF JUMP JUMPDEST PUSH1 0x40 MLOAD DUP1 SWAP2 SUB SWAP1 RETURN JUMPDEST PUSH2 0x2E2 PUSH2 0xF6C JUMP JUMPDEST PUSH1 0x40 MLOAD PUSH2 0x2EF SWAP2 SWAP1 PUSH2 0x2561 JUMP JUMPDEST PUSH1 0x40 MLOAD DUP1 SWAP2 SUB SWAP1 RETURN JUMPDEST PUSH2 0x300 PUSH2 0xF71 JUMP JUMPDEST PUSH1 0x40 MLOAD PUSH2 0x30D SWAP2 SWAP1 PUSH2 0x2561 JUMP JUMPDEST PUSH1 0x40 MLOAD DUP1 SWAP2 SUB SWAP1 RETURN JUMPDEST PUSH2 0x31E PUSH2 0xF7B JUMP JUMPDEST PUSH1 0x40 MLOAD PUSH2 0x32B SWAP2 SWAP1 PUSH2 0x2879 JUMP JUMPDEST PUSH1 0x40 MLOAD DUP1 SWAP2 SUB SWAP1 RETURN JUMPDEST PUSH2 0x33C PUSH2 0xFA4 JUMP JUMPDEST PUSH1 0x40 MLOAD PUSH2 0x349 SWAP2 SWAP1 PUSH2 0x2561 JUMP JUMPDEST PUSH1 0x40 MLOAD DUP1 SWAP2 SUB SWAP1 RETURN JUMPDEST PUSH2 0x36C PUSH1 0x4 DUP1 CALLDATASIZE SUB DUP2 ADD SWAP1 PUSH2 0x367 SWAP2 SWAP1 PUSH2 0x27B3 JUMP JUMPDEST PUSH2 0xFAE JUMP JUMPDEST PUSH1 0x40 MLOAD PUSH2 0x379 SWAP2 SWAP1 PUSH2 0x2879 JUMP JUMPDEST PUSH1 0x40 MLOAD DUP1 SWAP2 SUB SWAP1 RETURN JUMPDEST PUSH2 0x38A PUSH2 0xFED JUMP JUMPDEST PUSH1 0x40 MLOAD PUSH2 0x397 SWAP2 SWAP1 PUSH2 0x2561 JUMP JUMPDEST PUSH1 0x40 MLOAD DUP1 SWAP2 SUB SWAP1 RETURN JUMPDEST PUSH2 0x3BA PUSH1 0x4 DUP1 CALLDATASIZE SUB DUP2 ADD SWAP1 PUSH2 0x3B5 SWAP2 SWAP1 PUSH2 0x2894 JUMP JUMPDEST PUSH2 0xFF2 JUMP JUMPDEST PUSH1 0x40 MLOAD PUSH2 0x3C7 SWAP2 SWAP1 PUSH2 0x2ACA JUMP JUMPDEST PUSH1 0x40 MLOAD DUP1 SWAP2 SUB SWAP1 RETURN JUMPDEST PUSH2 0x3EA PUSH1 0x4 DUP1 CALLDATASIZE SUB DUP2 ADD SWAP1 PUSH2 0x3E5 SWAP2 SWAP1 PUSH2 0x2894 JUMP JUMPDEST PUSH2 0x1207 JUMP JUMPDEST PUSH1 0x40 MLOAD PUSH2 0x3FA SWAP5 SWAP4 SWAP3 SWAP2 SWAP1 PUSH2 0x2B45 JUMP JUMPDEST PUSH1 0x40 MLOAD DUP1 SWAP2 SUB SWAP1 RETURN JUMPDEST PUSH2 0x40B PUSH2 0x12EC JUMP JUMPDEST PUSH1 0x40 MLOAD PUSH2 0x418 SWAP2 SWAP1 PUSH2 0x2561 JUMP JUMPDEST PUSH1 0x40 MLOAD DUP1 SWAP2 SUB SWAP1 RETURN JUMPDEST PUSH2 0x43B PUSH1 0x4 DUP1 CALLDATASIZE SUB DUP2 ADD SWAP1 PUSH2 0x436 SWAP2 SWAP1 PUSH2 0x2894 JUMP JUMPDEST PUSH2 0x12F2 JUMP JUMPDEST PUSH1 0x40 MLOAD PUSH2 0x44C SWAP6 SWAP5 SWAP4 SWAP3 SWAP2 SWAP1 PUSH2 0x2B91 JUMP JUMPDEST PUSH1 0x40 MLOAD DUP1 SWAP2 SUB SWAP1 RETURN JUMPDEST PUSH2 0x46F PUSH1 0x4 DUP1 CALLDATASIZE SUB DUP2 ADD SWAP1 PUSH2 0x46A SWAP2 SWAP1 PUSH2 0x2C6D JUMP JUMPDEST PUSH2 0x13DD JUMP JUMPDEST PUSH1 0x40 MLOAD PUSH2 0x47C SWAP2 SWAP1 PUSH2 0x27EF JUMP JUMPDEST PUSH1 0x40 MLOAD DUP1 SWAP2 SUB SWAP1 RETURN JUMPDEST PUSH2 0x49F PUSH1 0x4 DUP1 CALLDATASIZE SUB DUP2 ADD SWAP1 PUSH2 0x49A SWAP2 SWAP1 PUSH2 0x2786 JUMP JUMPDEST PUSH2 0x17B0 JUMP JUMPDEST STOP JUMPDEST PUSH2 0x4BB PUSH1 0x4 DUP1 CALLDATASIZE SUB DUP2 ADD SWAP1 PUSH2 0x4B6 SWAP2 SWAP1 PUSH2 0x2786 JUMP JUMPDEST PUSH2 0x1836 JUMP JUMPDEST PUSH1 0x40 MLOAD PUSH2 0x4C8 SWAP2 SWAP1 PUSH2 0x2DC8 JUMP JUMPDEST PUSH1 0x40 MLOAD DUP1 SWAP2 SUB SWAP1 RETURN JUMPDEST PUSH2 0x4EB PUSH1 0x4 DUP1 CALLDATASIZE SUB DUP2 ADD SWAP1 PUSH2 0x4E6 SWAP2 SWAP1 PUSH2 0x2786 JUMP JUMPDEST PUSH2 0x1A5E JUMP JUMPDEST PUSH1 0x40 MLOAD PUSH2 0x4FF SWAP9 SWAP8 SWAP7 SWAP6 SWAP5 SWAP4 SWAP3 SWAP2 SWAP1 PUSH2 0x2DEA JUMP JUMPDEST PUSH1 0x40 MLOAD DUP1 SWAP2 SUB SWAP1 RETURN JUMPDEST PUSH2 0x522 PUSH1 0x4 DUP1 CALLDATASIZE SUB DUP2 ADD SWAP1 PUSH2 0x51D SWAP2 SWAP1 PUSH2 0x2E76 JUMP JUMPDEST PUSH2 0x1BF0 JUMP JUMPDEST STOP JUMPDEST PUSH2 0x53E PUSH1 0x4 DUP1 CALLDATASIZE SUB DUP2 ADD SWAP1 PUSH2 0x539 SWAP2 SWAP1 PUSH2 0x2EB6 JUMP JUMPDEST PUSH2 0x1DA4 JUMP JUMPDEST STOP JUMPDEST PUSH1 0x0 DUP2 JUMP JUMPDEST PUSH1 0x7 SLOAD DUP2 JUMP JUMPDEST PUSH1 0x0 DUP1 PUSH1 0x0 DUP5 DUP5 PUSH1 0x40 MLOAD PUSH1 0x20 ADD PUSH2 0x563 SWAP3 SWAP2 SWAP1 PUSH2 0x2F76 JUMP JUMPDEST PUSH1 0x40 MLOAD PUSH1 0x20 DUP2 DUP4 SUB SUB DUP2 MSTORE SWAP1 PUSH1 0x40 MSTORE DUP1 MLOAD SWAP1 PUSH1 0x20 ADD KECCAK256 SWAP1 POP PUSH1 0x0 PUSH1 0x4 PUSH1 0x0 DUP4 DUP2 MSTORE PUSH1 0x20 ADD SWAP1 DUP2 MSTORE PUSH1 0x20 ADD PUSH1 0x0 KECCAK256 SWAP1 POP DUP1 PUSH1 0x4 ADD PUSH1 0x0 SWAP1 SLOAD SWAP1 PUSH2 0x100 EXP SWAP1 DIV PUSH1 0xFF AND DUP2 PUSH1 0x2 ADD SLOAD SWAP4 POP SWAP4 POP POP POP SWAP3 POP SWAP3 SWAP1 POP JUMP JUMPDEST PUSH1 0x2 PUSH1 0x0 CALLER PUSH20 0xFFFFFFFFFFFFFFFFFFFFFFFFFFFFFFFFFFFFFFFF AND PUSH20 0xFFFFFFFFFFFFFFFFFFFFFFFFFFFFFFFFFFFFFFFF AND DUP2 MSTORE PUSH1 0x20 ADD SWAP1 DUP2 MSTORE PUSH1 0x20 ADD PUSH1 0x0 KECCAK256 PUSH1 0x6 ADD PUSH1 0x0 SWAP1 SLOAD SWAP1 PUSH2 0x100 EXP SWAP1 DIV PUSH1 0xFF AND PUSH2 0x645 JUMPI PUSH1 0x40 MLOAD PUSH32 0x8C379A000000000000000000000000000000000000000000000000000000000 DUP2 MSTORE PUSH1 0x4 ADD PUSH2 0x63C SWAP1 PUSH2 0x2FDB JUMP JUMPDEST PUSH1 0x40 MLOAD DUP1 SWAP2 SUB SWAP1 REVERT JUMPDEST PUSH1 0x0 PUSH20 0xFFFFFFFFFFFFFFFFFFFFFFFFFFFFFFFFFFFFFFFF AND PUSH1 0x4 PUSH1 0x0 DUP5 DUP2 MSTORE PUSH1 0x20 ADD SWAP1 DUP2 MSTORE PUSH1 0x20 ADD PUSH1 0x0 KECCAK256 PUSH1 0x1 ADD PUSH1 0x0 SWAP1 SLOAD SWAP1 PUSH2 0x100 EXP SWAP1 DIV PUSH20 0xFFFFFFFFFFFFFFFFFFFFFFFFFFFFFFFFFFFFFFFF AND PUSH20 0xFFFFFFFFFFFFFFFFFFFFFFFFFFFFFFFFFFFFFFFF AND SUB PUSH2 0x6EA JUMPI PUSH1 0x40 MLOAD PUSH32 0x8C379A000000000000000000000000000000000000000000000000000000000 DUP2 MSTORE PUSH1 0x4 ADD PUSH2 0x6E1 SWAP1 PUSH2 0x3047 JUMP JUMPDEST PUSH1 0x40 MLOAD DUP1 SWAP2 SUB SWAP1 REVERT JUMPDEST PUSH1 0x64 DUP2 GT ISZERO PUSH2 0x72E JUMPI PUSH1 0x40 MLOAD PUSH32 0x8C379A000000000000000000000000000000000000000000000000000000000 DUP2 MSTORE PUSH1 0x4 ADD PUSH2 0x725 SWAP1 PUSH2 0x30B3 JUMP JUMPDEST PUSH1 0x40 MLOAD DUP1 SWAP2 SUB SWAP1 REVERT JUMPDEST PUSH1 0x0 PUSH1 0x4 PUSH1 0x0 DUP5 DUP2 MSTORE PUSH1 0x20 ADD SWAP1 DUP2 MSTORE PUSH1 0x20 ADD PUSH1 0x0 KECCAK256 SWAP1 POP DUP1 PUSH1 0x3 ADD PUSH1 0x0 DUP2 SLOAD DUP1 SWAP3 SWAP2 SWAP1 PUSH2 0x75A SWAP1 PUSH2 0x3102 JUMP JUMPDEST SWAP2 SWAP1 POP SSTORE POP DUP1 PUSH1 0x3 ADD SLOAD DUP3 DUP3 PUSH1 0x2 ADD SLOAD PUSH2 0x774 SWAP2 SWAP1 PUSH2 0x314A JUMP JUMPDEST PUSH2 0x77E SWAP2 SWAP1 PUSH2 0x31AD JUMP JUMPDEST DUP2 PUSH1 0x2 ADD DUP2 SWAP1 SSTORE POP PUSH1 0x3 DUP2 PUSH1 0x3 ADD SLOAD LT ISZERO DUP1 ISZERO PUSH2 0x7A0 JUMPI POP PUSH1 0x46 DUP2 PUSH1 0x2 ADD SLOAD LT ISZERO JUMPDEST ISZERO PUSH2 0x7FF JUMPI PUSH1 0x1 DUP2 PUSH1 0x4 ADD PUSH1 0x0 PUSH2 0x100 EXP DUP2 SLOAD DUP2 PUSH1 0xFF MUL NOT AND SWAP1 DUP4 ISZERO ISZERO MUL OR SWAP1 SSTORE POP DUP3 PUSH32 0x9EACD5102E6D99A7E56ACA85B162FFF2A89B1FF0D4B5A88D97983A35D19AE7A8 DUP3 PUSH1 0x2 ADD SLOAD PUSH1 0x40 MLOAD PUSH2 0x7F6 SWAP2 SWAP1 PUSH2 0x2561 JUMP JUMPDEST PUSH1 0x40 MLOAD DUP1 SWAP2 SUB SWAP1 LOG2 JUMPDEST POP POP POP JUMP JUMPDEST PUSH2 0x80C PUSH2 0x2135 JUMP JUMPDEST PUSH1 0x0 PUSH1 0x2 PUSH1 0x0 DUP4 PUSH20 0xFFFFFFFFFFFFFFFFFFFFFFFFFFFFFFFFFFFFFFFF AND PUSH20 0xFFFFFFFFFFFFFFFFFFFFFFFFFFFFFFFFFFFFFFFF AND DUP2 MSTORE PUSH1 0x20 ADD SWAP1 DUP2 MSTORE PUSH1 0x20 ADD PUSH1 0x0 KECCAK256 PUSH1 0x5 ADD SLOAD GT PUSH2 0x891 JUMPI PUSH1 0x40 MLOAD PUSH32 0x8C379A000000000000000000000000000000000000000000000000000000000 DUP2 MSTORE PUSH1 0x4 ADD PUSH2 0x888 SWAP1 PUSH2 0x322A JUMP JUMPDEST PUSH1 0x40 MLOAD DUP1 SWAP2 SUB SWAP1 REVERT JUMPDEST PUSH1 0x1 PUSH1 0x2 PUSH1 0x0 DUP4 PUSH20 0xFFFFFFFFFFFFFFFFFFFFFFFFFFFFFFFFFFFFFFFF AND PUSH20 0xFFFFFFFFFFFFFFFFFFFFFFFFFFFFFFFFFFFFFFFF AND DUP2 MSTORE PUSH1 0x20 ADD SWAP1 DUP2 MSTORE PUSH1 0x20 ADD PUSH1 0x0 KECCAK256 PUSH1 0x6 ADD PUSH1 0x0 PUSH2 0x100 EXP DUP2 SLOAD DUP2 PUSH1 0xFF MUL NOT AND SWAP1 DUP4 ISZERO ISZERO MUL OR SWAP1 SSTORE POP DUP1 PUSH20 0xFFFFFFFFFFFFFFFFFFFFFFFFFFFFFFFFFFFFFFFF AND PUSH32 0x9E731975B673694CF4C611F5EDA33CD103657EA6B0AFA241C584C6E82477D020 PUSH1 0x2 PUSH1 0x0 DUP5 PUSH20 0xFFFFFFFFFFFFFFFFFFFFFFFFFFFFFFFFFFFFFFFF AND PUSH20 0xFFFFFFFFFFFFFFFFFFFFFFFFFFFFFFFFFFFFFFFF AND DUP2 MSTORE PUSH1 0x20 ADD SWAP1 DUP2 MSTORE PUSH1 0x20 ADD PUSH1 0x0 KECCAK256 PUSH1 0x3 ADD SLOAD PUSH1 0x40 MLOAD PUSH2 0x974 SWAP2 SWAP1 PUSH2 0x2561 JUMP JUMPDEST PUSH1 0x40 MLOAD DUP1 SWAP2 SUB SWAP1 LOG2 POP JUMP JUMPDEST PUSH1 0x6 DUP2 DUP2 SLOAD DUP2 LT PUSH2 0x98F JUMPI PUSH1 0x0 DUP1 REVERT JUMPDEST SWAP1 PUSH1 0x0 MSTORE PUSH1 0x20 PUSH1 0x0 KECCAK256 ADD PUSH1 0x0 SWAP2 POP SWAP1 POP SLOAD DUP2 JUMP JUMPDEST PUSH2 0x9AB PUSH2 0x2135 JUMP JUMPDEST PUSH1 0x0 PUSH1 0x2 PUSH1 0x0 DUP6 PUSH20 0xFFFFFFFFFFFFFFFFFFFFFFFFFFFFFFFFFFFFFFFF AND PUSH20 0xFFFFFFFFFFFFFFFFFFFFFFFFFFFFFFFFFFFFFFFF AND DUP2 MSTORE PUSH1 0x20 ADD SWAP1 DUP2 MSTORE PUSH1 0x20 ADD PUSH1 0x0 KECCAK256 PUSH1 0x5 ADD SLOAD GT PUSH2 0xA30 JUMPI PUSH1 0x40 MLOAD PUSH32 0x8C379A000000000000000000000000000000000000000000000000000000000 DUP2 MSTORE PUSH1 0x4 ADD PUSH2 0xA27 SWAP1 PUSH2 0x322A JUMP JUMPDEST PUSH1 0x40 MLOAD DUP1 SWAP2 SUB SWAP1 REVERT JUMPDEST PUSH1 0x1 PUSH1 0x2 PUSH1 0x0 DUP6 PUSH20 0xFFFFFFFFFFFFFFFFFFFFFFFFFFFFFFFFFFFFFFFF AND PUSH20 0xFFFFFFFFFFFFFFFFFFFFFFFFFFFFFFFFFFFFFFFF AND DUP2 MSTORE PUSH1 0x20 ADD SWAP1 DUP2 MSTORE PUSH1 0x20 ADD PUSH1 0x0 KECCAK256 PUSH1 0x6 ADD PUSH1 0x1 PUSH2 0x100 EXP DUP2 SLOAD DUP2 PUSH1 0xFF MUL NOT AND SWAP1 DUP4 ISZERO ISZERO MUL OR SWAP1 SSTORE POP PUSH1 0x0 PUSH1 0x2 PUSH1 0x0 DUP6 PUSH20 0xFFFFFFFFFFFFFFFFFFFFFFFFFFFFFFFFFFFFFFFF AND PUSH20 0xFFFFFFFFFFFFFFFFFFFFFFFFFFFFFFFFFFFFFFFF AND DUP2 MSTORE PUSH1 0x20 ADD SWAP1 DUP2 MSTORE PUSH1 0x20 ADD PUSH1 0x0 KECCAK256 PUSH1 0x3 ADD DUP2 SWAP1 SSTORE POP DUP3 PUSH20 0xFFFFFFFFFFFFFFFFFFFFFFFFFFFFFFFFFFFFFFFF AND PUSH32 0x2C05B34D4BE4E407FE28AB8D44A77B22DC4DE4E596C15F509E6BE9A77A8CE926 DUP4 DUP4 PUSH1 0x40 MLOAD PUSH2 0xB1B SWAP3 SWAP2 SWAP1 PUSH2 0x3277 JUMP JUMPDEST PUSH1 0x40 MLOAD DUP1 SWAP2 SUB SWAP1 LOG2 POP POP POP JUMP JUMPDEST PUSH1 0x0 PUSH1 0x2 PUSH1 0x0 CALLER PUSH20 0xFFFFFFFFFFFFFFFFFFFFFFFFFFFFFFFFFFFFFFFF AND PUSH20 0xFFFFFFFFFFFFFFFFFFFFFFFFFFFFFFFFFFFFFFFF AND DUP2 MSTORE PUSH1 0x20 ADD SWAP1 DUP2 MSTORE PUSH1 0x20 ADD PUSH1 0x0 KECCAK256 PUSH1 0x5 ADD SLOAD GT PUSH2 0xBAD JUMPI PUSH1 0x40 MLOAD PUSH32 0x8C379A000000000000000000000000000000000000000000000000000000000 DUP2 MSTORE PUSH1 0x4 ADD PUSH2 0xBA4 SWAP1 PUSH2 0x322A JUMP JUMPDEST PUSH1 0x40 MLOAD DUP1 SWAP2 SUB SWAP1 REVERT JUMPDEST PUSH1 0x2 PUSH1 0x0 CALLER PUSH20 0xFFFFFFFFFFFFFFFFFFFFFFFFFFFFFFFFFFFFFFFF AND PUSH20 0xFFFFFFFFFFFFFFFFFFFFFFFFFFFFFFFFFFFFFFFF AND DUP2 MSTORE PUSH1 0x20 ADD SWAP1 DUP2 MSTORE PUSH1 0x20 ADD PUSH1 0x0 KECCAK256 PUSH1 0x6 ADD PUSH1 0x1 SWAP1 SLOAD SWAP1 PUSH2 0x100 EXP SWAP1 DIV PUSH1 0xFF AND ISZERO PUSH2 0xC3D JUMPI PUSH1 0x40 MLOAD PUSH32 0x8C379A000000000000000000000000000000000000000000000000000000000 DUP2 MSTORE PUSH1 0x4 ADD PUSH2 0xC34 SWAP1 PUSH2 0x32E7 JUMP JUMPDEST PUSH1 0x40 MLOAD DUP1 SWAP2 SUB SWAP1 REVERT JUMPDEST DUP2 DUP2 PUSH1 0x2 PUSH1 0x0 CALLER PUSH20 0xFFFFFFFFFFFFFFFFFFFFFFFFFFFFFFFFFFFFFFFF AND PUSH20 0xFFFFFFFFFFFFFFFFFFFFFFFFFFFFFFFFFFFFFFFF AND DUP2 MSTORE PUSH1 0x20 ADD SWAP1 DUP2 MSTORE PUSH1 0x20 ADD PUSH1 0x0 KECCAK256 PUSH1 0x2 ADD SWAP2 DUP3 PUSH2 0xC8E SWAP3 SWAP2 SWAP1 PUSH2 0x354D JUMP JUMPDEST POP POP POP JUMP JUMPDEST PUSH2 0xC9B PUSH2 0x2135 JUMP JUMPDEST PUSH2 0xCA5 PUSH1 0x0 PUSH2 0x21BC JUMP JUMPDEST JUMP JUMPDEST PUSH1 0x0 DUP1 PUSH1 0x2 PUSH1 0x0 CALLER PUSH20 0xFFFFFFFFFFFFFFFFFFFFFFFFFFFFFFFFFFFFFFFF AND PUSH20 0xFFFFFFFFFFFFFFFFFFFFFFFFFFFFFFFFFFFFFFFF AND DUP2 MSTORE PUSH1 0x20 ADD SWAP1 DUP2 MSTORE PUSH1 0x20 ADD PUSH1 0x0 KECCAK256 PUSH1 0x5 ADD SLOAD GT PUSH2 0xD2D JUMPI PUSH1 0x40 MLOAD PUSH32 0x8C379A000000000000000000000000000000000000000000000000000000000 DUP2 MSTORE PUSH1 0x4 ADD PUSH2 0xD24 SWAP1 PUSH2 0x322A JUMP JUMPDEST PUSH1 0x40 MLOAD DUP1 SWAP2 SUB SWAP1 REVERT JUMPDEST DUP3 DUP3 PUSH1 0x40 MLOAD PUSH1 0x20 ADD PUSH2 0xD40 SWAP3 SWAP2 SWAP1 PUSH2 0x2F76 JUMP JUMPDEST PUSH1 0x40 MLOAD PUSH1 0x20 DUP2 DUP4 SUB SUB DUP2 MSTORE SWAP1 PUSH1 0x40 MSTORE DUP1 MLOAD SWAP1 PUSH1 0x20 ADD KECCAK256 SWAP1 POP PUSH1 0x0 PUSH20 0xFFFFFFFFFFFFFFFFFFFFFFFFFFFFFFFFFFFFFFFF AND PUSH1 0x4 PUSH1 0x0 DUP4 DUP2 MSTORE PUSH1 0x20 ADD SWAP1 DUP2 MSTORE PUSH1 0x20 ADD PUSH1 0x0 KECCAK256 PUSH1 0x1 ADD PUSH1 0x0 SWAP1 SLOAD SWAP1 PUSH2 0x100 EXP SWAP1 DIV PUSH20 0xFFFFFFFFFFFFFFFFFFFFFFFFFFFFFFFFFFFFFFFF AND PUSH20 0xFFFFFFFFFFFFFFFFFFFFFFFFFFFFFFFFFFFFFFFF AND EQ PUSH2 0xDFD JUMPI PUSH1 0x40 MLOAD PUSH32 0x8C379A000000000000000000000000000000000000000000000000000000000 DUP2 MSTORE PUSH1 0x4 ADD PUSH2 0xDF4 SWAP1 PUSH2 0x3669 JUMP JUMPDEST PUSH1 0x40 MLOAD DUP1 SWAP2 SUB SWAP1 REVERT JUMPDEST PUSH1 0x40 MLOAD DUP1 PUSH1 0xA0 ADD PUSH1 0x40 MSTORE DUP1 DUP5 DUP5 DUP1 DUP1 PUSH1 0x1F ADD PUSH1 0x20 DUP1 SWAP2 DIV MUL PUSH1 0x20 ADD PUSH1 0x40 MLOAD SWAP1 DUP2 ADD PUSH1 0x40 MSTORE DUP1 SWAP4 SWAP3 SWAP2 SWAP1 DUP2 DUP2 MSTORE PUSH1 0x20 ADD DUP4 DUP4 DUP1 DUP3 DUP5 CALLDATACOPY PUSH1 0x0 DUP2 DUP5 ADD MSTORE PUSH1 0x1F NOT PUSH1 0x1F DUP3 ADD AND SWAP1 POP DUP1 DUP4 ADD SWAP3 POP POP POP POP POP POP POP DUP2 MSTORE PUSH1 0x20 ADD CALLER PUSH20 0xFFFFFFFFFFFFFFFFFFFFFFFFFFFFFFFFFFFFFFFF AND DUP2 MSTORE PUSH1 0x20 ADD PUSH1 0x0 DUP2 MSTORE PUSH1 0x20 ADD PUSH1 0x0 DUP2 MSTORE PUSH1 0x20 ADD PUSH1 0x0 ISZERO ISZERO DUP2 MSTORE POP PUSH1 0x4 PUSH1 0x0 DUP4 DUP2 MSTORE PUSH1 0x20 ADD SWAP1 DUP2 MSTORE PUSH1 0x20 ADD PUSH1 0x0 KECCAK256 PUSH1 0x0 DUP3 ADD MLOAD DUP2 PUSH1 0x0 ADD SWAP1 DUP2 PUSH2 0xEAB SWAP2 SWAP1 PUSH2 0x3689 JUMP JUMPDEST POP PUSH1 0x20 DUP3 ADD MLOAD DUP2 PUSH1 0x1 ADD PUSH1 0x0 PUSH2 0x100 EXP DUP2 SLOAD DUP2 PUSH20 0xFFFFFFFFFFFFFFFFFFFFFFFFFFFFFFFFFFFFFFFF MUL NOT AND SWAP1 DUP4 PUSH20 0xFFFFFFFFFFFFFFFFFFFFFFFFFFFFFFFFFFFFFFFF AND MUL OR SWAP1 SSTORE POP PUSH1 0x40 DUP3 ADD MLOAD DUP2 PUSH1 0x2 ADD SSTORE PUSH1 0x60 DUP3 ADD MLOAD DUP2 PUSH1 0x3 ADD SSTORE PUSH1 0x80 DUP3 ADD MLOAD DUP2 PUSH1 0x4 ADD PUSH1 0x0 PUSH2 0x100 EXP DUP2 SLOAD DUP2 PUSH1 0xFF MUL NOT AND SWAP1 DUP4 ISZERO ISZERO MUL OR SWAP1 SSTORE POP SWAP1 POP POP DUP1 PUSH32 0x38586A8F95F53DA657F740D4E3F98699828CD95273C9770D2744346580EAA3A5 DUP5 DUP5 CALLER PUSH1 0x40 MLOAD PUSH2 0xF5E SWAP4 SWAP3 SWAP2 SWAP1 PUSH2 0x375B JUMP JUMPDEST PUSH1 0x40 MLOAD DUP1 SWAP2 SUB SWAP1 LOG2 SWAP3 SWAP2 POP POP JUMP JUMPDEST PUSH1 0x64 DUP2 JUMP JUMPDEST PUSH1 0x0 PUSH1 0x7 SLOAD SWAP1 POP SWAP1 JUMP JUMPDEST PUSH1 0x0 DUP1 PUSH1 0x0 SWAP1 SLOAD SWAP1 PUSH2 0x100 EXP SWAP1 DIV PUSH20 0xFFFFFFFFFFFFFFFFFFFFFFFFFFFFFFFFFFFFFFFF AND SWAP1 POP SWAP1 JUMP JUMPDEST PUSH1 0x0 PUSH1 0x8 SLOAD SWAP1 POP SWAP1 JUMP JUMPDEST PUSH1 0x5 DUP2 DUP2 SLOAD DUP2 LT PUSH2 0xFBE JUMPI PUSH1 0x0 DUP1 REVERT JUMPDEST SWAP1 PUSH1 0x0 MSTORE PUSH1 0x20 PUSH1 0x0 KECCAK256 ADD PUSH1 0x0 SWAP2 POP SLOAD SWAP1 PUSH2 0x100 EXP SWAP1 DIV PUSH20 0xFFFFFFFFFFFFFFFFFFFFFFFFFFFFFFFFFFFFFFFF AND DUP2 JUMP JUMPDEST PUSH1 0x32 DUP2 JUMP JUMPDEST PUSH2 0xFFA PUSH2 0x23C7 JUMP JUMPDEST PUSH1 0x3 PUSH1 0x0 DUP4 DUP2 MSTORE PUSH1 0x20 ADD SWAP1 DUP2 MSTORE PUSH1 0x20 ADD PUSH1 0x0 KECCAK256 PUSH1 0x40 MLOAD DUP1 PUSH1 0xA0 ADD PUSH1 0x40 MSTORE SWAP1 DUP2 PUSH1 0x0 DUP3 ADD PUSH1 0x0 SWAP1 SLOAD SWAP1 PUSH2 0x100 EXP SWAP1 DIV PUSH20 0xFFFFFFFFFFFFFFFFFFFFFFFFFFFFFFFFFFFFFFFF AND PUSH20 0xFFFFFFFFFFFFFFFFFFFFFFFFFFFFFFFFFFFFFFFF AND PUSH20 0xFFFFFFFFFFFFFFFFFFFFFFFFFFFFFFFFFFFFFFFF AND DUP2 MSTORE PUSH1 0x20 ADD PUSH1 0x1 DUP3 ADD DUP1 SLOAD PUSH2 0x107E SWAP1 PUSH2 0x3370 JUMP JUMPDEST DUP1 PUSH1 0x1F ADD PUSH1 0x20 DUP1 SWAP2 DIV MUL PUSH1 0x20 ADD PUSH1 0x40 MLOAD SWAP1 DUP2 ADD PUSH1 0x40 MSTORE DUP1 SWAP3 SWAP2 SWAP1 DUP2 DUP2 MSTORE PUSH1 0x20 ADD DUP3 DUP1 SLOAD PUSH2 0x10AA SWAP1 PUSH2 0x3370 JUMP JUMPDEST DUP1 ISZERO PUSH2 0x10F7 JUMPI DUP1 PUSH1 0x1F LT PUSH2 0x10CC JUMPI PUSH2 0x100 DUP1 DUP4 SLOAD DIV MUL DUP4 MSTORE SWAP2 PUSH1 0x20 ADD SWAP2 PUSH2 0x10F7 JUMP JUMPDEST DUP3 ADD SWAP2 SWAP1 PUSH1 0x0 MSTORE PUSH1 0x20 PUSH1 0x0 KECCAK256 SWAP1 JUMPDEST DUP2 SLOAD DUP2 MSTORE SWAP1 PUSH1 0x1 ADD SWAP1 PUSH1 0x20 ADD DUP1 DUP4 GT PUSH2 0x10DA JUMPI DUP3 SWAP1 SUB PUSH1 0x1F AND DUP3 ADD SWAP2 JUMPDEST POP POP POP POP POP DUP2 MSTORE PUSH1 0x20 ADD PUSH1 0x2 DUP3 ADD PUSH1 0x0 SWAP1 SLOAD SWAP1 PUSH2 0x100 EXP SWAP1 DIV PUSH1 0xFF AND PUSH1 0xFF AND PUSH1 0xFF AND DUP2 MSTORE PUSH1 0x20 ADD PUSH1 0x3 DUP3 ADD SLOAD DUP2 MSTORE PUSH1 0x20 ADD PUSH1 0x4 DUP3 ADD DUP1 SLOAD DUP1 PUSH1 0x20 MUL PUSH1 0x20 ADD PUSH1 0x40 MLOAD SWAP1 DUP2 ADD PUSH1 0x40 MSTORE DUP1 SWAP3 SWAP2 SWAP1 DUP2 DUP2 MSTORE PUSH1 0x20 ADD PUSH1 0x0 SWAP1 JUMPDEST DUP3 DUP3 LT ISZERO PUSH2 0x11F8 JUMPI DUP4 DUP3 SWAP1 PUSH1 0x0 MSTORE PUSH1 0x20 PUSH1 0x0 KECCAK256 ADD DUP1 SLOAD PUSH2 0x116B SWAP1 PUSH2 0x3370 JUMP JUMPDEST DUP1 PUSH1 0x1F ADD PUSH1 0x20 DUP1 SWAP2 DIV MUL PUSH1 0x20 ADD PUSH1 0x40 MLOAD SWAP1 DUP2 ADD PUSH1 0x40 MSTORE DUP1 SWAP3 SWAP2 SWAP1 DUP2 DUP2 MSTORE PUSH1 0x20 ADD DUP3 DUP1 SLOAD PUSH2 0x1197 SWAP1 PUSH2 0x3370 JUMP JUMPDEST DUP1 ISZERO PUSH2 0x11E4 JUMPI DUP1 PUSH1 0x1F LT PUSH2 0x11B9 JUMPI PUSH2 0x100 DUP1 DUP4 SLOAD DIV MUL DUP4 MSTORE SWAP2 PUSH1 0x20 ADD SWAP2 PUSH2 0x11E4 JUMP JUMPDEST DUP3 ADD SWAP2 SWAP1 PUSH1 0x0 MSTORE PUSH1 0x20 PUSH1 0x0 KECCAK256 SWAP1 JUMPDEST DUP2 SLOAD DUP2 MSTORE SWAP1 PUSH1 0x1 ADD SWAP1 PUSH1 0x20 ADD DUP1 DUP4 GT PUSH2 0x11C7 JUMPI DUP3 SWAP1 SUB PUSH1 0x1F AND DUP3 ADD SWAP2 JUMPDEST POP POP POP POP POP DUP2 MSTORE PUSH1 0x20 ADD SWAP1 PUSH1 0x1 ADD SWAP1 PUSH2 0x114C JUMP JUMPDEST POP POP POP POP DUP2 MSTORE POP POP SWAP1 POP SWAP2 SWAP1 POP JUMP JUMPDEST PUSH1 0x3 PUSH1 0x20 MSTORE DUP1 PUSH1 0x0 MSTORE PUSH1 0x40 PUSH1 0x0 KECCAK256 PUSH1 0x0 SWAP2 POP SWAP1 POP DUP1 PUSH1 0x0 ADD PUSH1 0x0 SWAP1 SLOAD SWAP1 PUSH2 0x100 EXP SWAP1 DIV PUSH20 0xFFFFFFFFFFFFFFFFFFFFFFFFFFFFFFFFFFFFFFFF AND SWAP1 DUP1 PUSH1 0x1 ADD DUP1 SLOAD PUSH2 0x1250 SWAP1 PUSH2 0x3370 JUMP JUMPDEST DUP1 PUSH1 0x1F ADD PUSH1 0x20 DUP1 SWAP2 DIV MUL PUSH1 0x20 ADD PUSH1 0x40 MLOAD SWAP1 DUP2 ADD PUSH1 0x40 MSTORE DUP1 SWAP3 SWAP2 SWAP1 DUP2 DUP2 MSTORE PUSH1 0x20 ADD DUP3 DUP1 SLOAD PUSH2 0x127C SWAP1 PUSH2 0x3370 JUMP JUMPDEST DUP1 ISZERO PUSH2 0x12C9 JUMPI DUP1 PUSH1 0x1F LT PUSH2 0x129E JUMPI PUSH2 0x100 DUP1 DUP4 SLOAD DIV MUL DUP4 MSTORE SWAP2 PUSH1 0x20 ADD SWAP2 PUSH2 0x12C9 JUMP JUMPDEST DUP3 ADD SWAP2 SWAP1 PUSH1 0x0 MSTORE PUSH1 0x20 PUSH1 0x0 KECCAK256 SWAP1 JUMPDEST DUP2 SLOAD DUP2 MSTORE SWAP1 PUSH1 0x1 ADD SWAP1 PUSH1 0x20 ADD DUP1 DUP4 GT PUSH2 0x12AC JUMPI DUP3 SWAP1 SUB PUSH1 0x1F AND DUP3 ADD SWAP2 JUMPDEST POP POP POP POP POP SWAP1 DUP1 PUSH1 0x2 ADD PUSH1 0x0 SWAP1 SLOAD SWAP1 PUSH2 0x100 EXP SWAP1 DIV PUSH1 0xFF AND SWAP1 DUP1 PUSH1 0x3 ADD SLOAD SWAP1 POP DUP5 JUMP JUMPDEST PUSH1 0x8 SLOAD DUP2 JUMP JUMPDEST PUSH1 0x4 PUSH1 0x20 MSTORE DUP1 PUSH1 0x0 MSTORE PUSH1 0x40 PUSH1 0x0 KECCAK256 PUSH1 0x0 SWAP2 POP SWAP1 POP DUP1 PUSH1 0x0 ADD DUP1 SLOAD PUSH2 0x1315 SWAP1 PUSH2 0x3370 JUMP JUMPDEST DUP1 PUSH1 0x1F ADD PUSH1 0x20 DUP1 SWAP2 DIV MUL PUSH1 0x20 ADD PUSH1 0x40 MLOAD SWAP1 DUP2 ADD PUSH1 0x40 MSTORE DUP1 SWAP3 SWAP2 SWAP1 DUP2 DUP2 MSTORE PUSH1 0x20 ADD DUP3 DUP1 SLOAD PUSH2 0x1341 SWAP1 PUSH2 0x3370 JUMP JUMPDEST DUP1 ISZERO PUSH2 0x138E JUMPI DUP1 PUSH1 0x1F LT PUSH2 0x1363 JUMPI PUSH2 0x100 DUP1 DUP4 SLOAD DIV MUL DUP4 MSTORE SWAP2 PUSH1 0x20 ADD SWAP2 PUSH2 0x138E JUMP JUMPDEST DUP3 ADD SWAP2 SWAP1 PUSH1 0x0 MSTORE PUSH1 0x20 PUSH1 0x0 KECCAK256 SWAP1 JUMPDEST DUP2 SLOAD DUP2 MSTORE SWAP1 PUSH1 0x1 ADD SWAP1 PUSH1 0x20 ADD DUP1 DUP4 GT PUSH2 0x1371 JUMPI DUP3 SWAP1 SUB PUSH1 0x1F AND DUP3 ADD SWAP2 JUMPDEST POP POP POP POP POP SWAP1 DUP1 PUSH1 0x1 ADD PUSH1 0x0 SWAP1 SLOAD SWAP1 PUSH2 0x100 EXP SWAP1 DIV PUSH20 0xFFFFFFFFFFFFFFFFFFFFFFFFFFFFFFFFFFFFFFFF AND SWAP1 DUP1 PUSH1 0x2 ADD SLOAD SWAP1 DUP1 PUSH1 0x3 ADD SLOAD SWAP1 DUP1 PUSH1 0x4 ADD PUSH1 0x0 SWAP1 SLOAD SWAP1 PUSH2 0x100 EXP SWAP1 DIV PUSH1 0xFF AND SWAP1 POP DUP6 JUMP JUMPDEST PUSH1 0x0 DUP1 PUSH1 0x2 PUSH1 0x0 CALLER PUSH20 0xFFFFFFFFFFFFFFFFFFFFFFFFFFFFFFFFFFFFFFFF AND PUSH20 0xFFFFFFFFFFFFFFFFFFFFFFFFFFFFFFFFFFFFFFFF AND DUP2 MSTORE PUSH1 0x20 ADD SWAP1 DUP2 MSTORE PUSH1 0x20 ADD PUSH1 0x0 KECCAK256 PUSH1 0x5 ADD SLOAD GT PUSH2 0x1463 JUMPI PUSH1 0x40 MLOAD PUSH32 0x8C379A000000000000000000000000000000000000000000000000000000000 DUP2 MSTORE PUSH1 0x4 ADD PUSH2 0x145A SWAP1 PUSH2 0x322A JUMP JUMPDEST PUSH1 0x40 MLOAD DUP1 SWAP2 SUB SWAP1 REVERT JUMPDEST PUSH1 0x2 PUSH1 0x0 CALLER PUSH20 0xFFFFFFFFFFFFFFFFFFFFFFFFFFFFFFFFFFFFFFFF AND PUSH20 0xFFFFFFFFFFFFFFFFFFFFFFFFFFFFFFFFFFFFFFFF AND DUP2 MSTORE PUSH1 0x20 ADD SWAP1 DUP2 MSTORE PUSH1 0x20 ADD PUSH1 0x0 KECCAK256 PUSH1 0x6 ADD PUSH1 0x1 SWAP1 SLOAD SWAP1 PUSH2 0x100 EXP SWAP1 DIV PUSH1 0xFF AND ISZERO PUSH2 0x14F3 JUMPI PUSH1 0x40 MLOAD PUSH32 0x8C379A000000000000000000000000000000000000000000000000000000000 DUP2 MSTORE PUSH1 0x4 ADD PUSH2 0x14EA SWAP1 PUSH2 0x32E7 JUMP JUMPDEST PUSH1 0x40 MLOAD DUP1 SWAP2 SUB SWAP1 REVERT JUMPDEST PUSH1 0x4 DUP5 PUSH1 0xFF AND GT ISZERO PUSH2 0x153A JUMPI PUSH1 0x40 MLOAD PUSH32 0x8C379A000000000000000000000000000000000000000000000000000000000 DUP2 MSTORE PUSH1 0x4 ADD PUSH2 0x1531 SWAP1 PUSH2 0x37D9 JUMP JUMPDEST PUSH1 0x40 MLOAD DUP1 SWAP2 SUB SWAP1 REVERT JUMPDEST CALLER DUP7 DUP7 TIMESTAMP PUSH1 0x40 MLOAD PUSH1 0x20 ADD PUSH2 0x1551 SWAP5 SWAP4 SWAP3 SWAP2 SWAP1 PUSH2 0x3862 JUMP JUMPDEST PUSH1 0x40 MLOAD PUSH1 0x20 DUP2 DUP4 SUB SUB DUP2 MSTORE SWAP1 PUSH1 0x40 MSTORE DUP1 MLOAD SWAP1 PUSH1 0x20 ADD KECCAK256 SWAP1 POP PUSH1 0x40 MLOAD DUP1 PUSH1 0xA0 ADD PUSH1 0x40 MSTORE DUP1 CALLER PUSH20 0xFFFFFFFFFFFFFFFFFFFFFFFFFFFFFFFFFFFFFFFF AND DUP2 MSTORE PUSH1 0x20 ADD DUP8 DUP8 DUP1 DUP1 PUSH1 0x1F ADD PUSH1 0x20 DUP1 SWAP2 DIV MUL PUSH1 0x20 ADD PUSH1 0x40 MLOAD SWAP1 DUP2 ADD PUSH1 0x40 MSTORE DUP1 SWAP4 SWAP3 SWAP2 SWAP1 DUP2 DUP2 MSTORE PUSH1 0x20 ADD DUP4 DUP4 DUP1 DUP3 DUP5 CALLDATACOPY PUSH1 0x0 DUP2 DUP5 ADD MSTORE PUSH1 0x1F NOT PUSH1 0x1F DUP3 ADD AND SWAP1 POP DUP1 DUP4 ADD SWAP3 POP POP POP POP POP POP POP DUP2 MSTORE PUSH1 0x20 ADD DUP6 PUSH1 0xFF AND DUP2 MSTORE PUSH1 0x20 ADD TIMESTAMP DUP2 MSTORE PUSH1 0x20 ADD DUP5 DUP5 SWAP1 PUSH2 0x15F6 SWAP2 SWAP1 PUSH2 0x3A42 JUMP JUMPDEST DUP2 MSTORE POP PUSH1 0x3 PUSH1 0x0 DUP4 DUP2 MSTORE PUSH1 0x20 ADD SWAP1 DUP2 MSTORE PUSH1 0x20 ADD PUSH1 0x0 KECCAK256 PUSH1 0x0 DUP3 ADD MLOAD DUP2 PUSH1 0x0 ADD PUSH1 0x0 PUSH2 0x100 EXP DUP2 SLOAD DUP2 PUSH20 0xFFFFFFFFFFFFFFFFFFFFFFFFFFFFFFFFFFFFFFFF MUL NOT AND SWAP1 DUP4 PUSH20 0xFFFFFFFFFFFFFFFFFFFFFFFFFFFFFFFFFFFFFFFF AND MUL OR SWAP1 SSTORE POP PUSH1 0x20 DUP3 ADD MLOAD DUP2 PUSH1 0x1 ADD SWAP1 DUP2 PUSH2 0x1668 SWAP2 SWAP1 PUSH2 0x3689 JUMP JUMPDEST POP PUSH1 0x40 DUP3 ADD MLOAD DUP2 PUSH1 0x2 ADD PUSH1 0x0 PUSH2 0x100 EXP DUP2 SLOAD DUP2 PUSH1 0xFF MUL NOT AND SWAP1 DUP4 PUSH1 0xFF AND MUL OR SWAP1 SSTORE POP PUSH1 0x60 DUP3 ADD MLOAD DUP2 PUSH1 0x3 ADD SSTORE PUSH1 0x80 DUP3 ADD MLOAD DUP2 PUSH1 0x4 ADD SWAP1 DUP1 MLOAD SWAP1 PUSH1 0x20 ADD SWAP1 PUSH2 0x16B0 SWAP3 SWAP2 SWAP1 PUSH2 0x240F JUMP JUMPDEST POP SWAP1 POP POP PUSH1 0x6 DUP2 SWAP1 DUP1 PUSH1 0x1 DUP2 SLOAD ADD DUP1 DUP3 SSTORE DUP1 SWAP2 POP POP PUSH1 0x1 SWAP1 SUB SWAP1 PUSH1 0x0 MSTORE PUSH1 0x20 PUSH1 0x0 KECCAK256 ADD PUSH1 0x0 SWAP1 SWAP2 SWAP1 SWAP2 SWAP1 SWAP2 POP SSTORE PUSH1 0x2 PUSH1 0x0 CALLER PUSH20 0xFFFFFFFFFFFFFFFFFFFFFFFFFFFFFFFFFFFFFFFF AND PUSH20 0xFFFFFFFFFFFFFFFFFFFFFFFFFFFFFFFFFFFFFFFF AND DUP2 MSTORE PUSH1 0x20 ADD SWAP1 DUP2 MSTORE PUSH1 0x20 ADD PUSH1 0x0 KECCAK256 PUSH1 0x4 ADD PUSH1 0x0 DUP2 SLOAD DUP1 SWAP3 SWAP2 SWAP1 PUSH2 0x1730 SWAP1 PUSH2 0x3102 JUMP JUMPDEST SWAP2 SWAP1 POP SSTORE POP PUSH1 0x7 PUSH1 0x0 DUP2 SLOAD DUP1 SWAP3 SWAP2 SWAP1 PUSH2 0x1748 SWAP1 PUSH2 0x3102 JUMP JUMPDEST SWAP2 SWAP1 POP SSTORE POP PUSH2 0x1758 CALLER PUSH1 0x1 PUSH2 0x2280 JUMP JUMPDEST CALLER PUSH20 0xFFFFFFFFFFFFFFFFFFFFFFFFFFFFFFFFFFFFFFFF AND DUP2 PUSH32 0x1150CEA034E4FD5A6337EC3D96898404F0ECDB57B462C869AD74977B130474F3 DUP7 PUSH1 0x40 MLOAD PUSH2 0x179F SWAP2 SWAP1 PUSH2 0x3A57 JUMP JUMPDEST PUSH1 0x40 MLOAD DUP1 SWAP2 SUB SWAP1 LOG3 SWAP6 SWAP5 POP POP POP POP POP JUMP JUMPDEST PUSH2 0x17B8 PUSH2 0x2135 JUMP JUMPDEST PUSH1 0x0 PUSH20 0xFFFFFFFFFFFFFFFFFFFFFFFFFFFFFFFFFFFFFFFF AND DUP2 PUSH20 0xFFFFFFFFFFFFFFFFFFFFFFFFFFFFFFFFFFFFFFFF AND SUB PUSH2 0x182A JUMPI PUSH1 0x0 PUSH1 0x40 MLOAD PUSH32 0x1E4FBDF700000000000000000000000000000000000000000000000000000000 DUP2 MSTORE PUSH1 0x4 ADD PUSH2 0x1821 SWAP2 SWAP1 PUSH2 0x2879 JUMP JUMPDEST PUSH1 0x40 MLOAD DUP1 SWAP2 SUB SWAP1 REVERT JUMPDEST PUSH2 0x1833 DUP2 PUSH2 0x21BC JUMP JUMPDEST POP JUMP JUMPDEST PUSH2 0x183E PUSH2 0x2468 JUMP JUMPDEST PUSH1 0x2 PUSH1 0x0 DUP4 PUSH20 0xFFFFFFFFFFFFFFFFFFFFFFFFFFFFFFFFFFFFFFFF AND PUSH20 0xFFFFFFFFFFFFFFFFFFFFFFFFFFFFFFFFFFFFFFFF AND DUP2 MSTORE PUSH1 0x20 ADD SWAP1 DUP2 MSTORE PUSH1 0x20 ADD PUSH1 0x0 KECCAK256 PUSH1 0x40 MLOAD DUP1 PUSH2 0x100 ADD PUSH1 0x40 MSTORE SWAP1 DUP2 PUSH1 0x0 DUP3 ADD PUSH1 0x0 SWAP1 SLOAD SWAP1 PUSH2 0x100 EXP SWAP1 DIV PUSH20 0xFFFFFFFFFFFFFFFFFFFFFFFFFFFFFFFFFFFFFFFF AND PUSH20 0xFFFFFFFFFFFFFFFFFFFFFFFFFFFFFFFFFFFFFFFF AND PUSH20 0xFFFFFFFFFFFFFFFFFFFFFFFFFFFFFFFFFFFFFFFF AND DUP2 MSTORE PUSH1 0x20 ADD PUSH1 0x1 DUP3 ADD DUP1 SLOAD PUSH2 0x18EF SWAP1 PUSH2 0x3370 JUMP JUMPDEST DUP1 PUSH1 0x1F ADD PUSH1 0x20 DUP1 SWAP2 DIV MUL PUSH1 0x20 ADD PUSH1 0x40 MLOAD SWAP1 DUP2 ADD PUSH1 0x40 MSTORE DUP1 SWAP3 SWAP2 SWAP1 DUP2 DUP2 MSTORE PUSH1 0x20 ADD DUP3 DUP1 SLOAD PUSH2 0x191B SWAP1 PUSH2 0x3370 JUMP JUMPDEST DUP1 ISZERO PUSH2 0x1968 JUMPI DUP1 PUSH1 0x1F LT PUSH2 0x193D JUMPI PUSH2 0x100 DUP1 DUP4 SLOAD DIV MUL DUP4 MSTORE SWAP2 PUSH1 0x20 ADD SWAP2 PUSH2 0x1968 JUMP JUMPDEST DUP3 ADD SWAP2 SWAP1 PUSH1 0x0 MSTORE PUSH1 0x20 PUSH1 0x0 KECCAK256 SWAP1 JUMPDEST DUP2 SLOAD DUP2 MSTORE SWAP1 PUSH1 0x1 ADD SWAP1 PUSH1 0x20 ADD DUP1 DUP4 GT PUSH2 0x194B JUMPI DUP3 SWAP1 SUB PUSH1 0x1F AND DUP3 ADD SWAP2 JUMPDEST POP POP POP POP POP DUP2 MSTORE PUSH1 0x20 ADD PUSH1 0x2 DUP3 ADD DUP1 SLOAD PUSH2 0x1981 SWAP1 PUSH2 0x3370 JUMP JUMPDEST DUP1 PUSH1 0x1F ADD PUSH1 0x20 DUP1 SWAP2 DIV MUL PUSH1 0x20 ADD PUSH1 0x40 MLOAD SWAP1 DUP2 ADD PUSH1 0x40 MSTORE DUP1 SWAP3 SWAP2 SWAP1 DUP2 DUP2 MSTORE PUSH1 0x20 ADD DUP3 DUP1 SLOAD PUSH2 0x19AD SWAP1 PUSH2 0x3370 JUMP JUMPDEST DUP1 ISZERO PUSH2 0x19FA JUMPI DUP1 PUSH1 0x1F LT PUSH2 0x19CF JUMPI PUSH2 0x100 DUP1 DUP4 SLOAD DIV MUL DUP4 MSTORE SWAP2 PUSH1 0x20 ADD SWAP2 PUSH2 0x19FA JUMP JUMPDEST DUP3 ADD SWAP2 SWAP1 PUSH1 0x0 MSTORE PUSH1 0x20 PUSH1 0x0 KECCAK256 SWAP1 JUMPDEST DUP2 SLOAD DUP2 MSTORE SWAP1 PUSH1 0x1 ADD SWAP1 PUSH1 0x20 ADD DUP1 DUP4 GT PUSH2 0x19DD JUMPI DUP3 SWAP1 SUB PUSH1 0x1F AND DUP3 ADD SWAP2 JUMPDEST POP POP POP POP POP DUP2 MSTORE PUSH1 0x20 ADD PUSH1 0x3 DUP3 ADD SLOAD DUP2 MSTORE PUSH1 0x20 ADD PUSH1 0x4 DUP3 ADD SLOAD DUP2 MSTORE PUSH1 0x20 ADD PUSH1 0x5 DUP3 ADD SLOAD DUP2 MSTORE PUSH1 0x20 ADD PUSH1 0x6 DUP3 ADD PUSH1 0x0 SWAP1 SLOAD SWAP1 PUSH2 0x100 EXP SWAP1 DIV PUSH1 0xFF AND ISZERO ISZERO ISZERO ISZERO DUP2 MSTORE PUSH1 0x20 ADD PUSH1 0x6 DUP3 ADD PUSH1 0x1 SWAP1 SLOAD SWAP1 PUSH2 0x100 EXP SWAP1 DIV PUSH1 0xFF AND ISZERO ISZERO ISZERO ISZERO DUP2 MSTORE POP POP SWAP1 POP SWAP2 SWAP1 POP JUMP JUMPDEST PUSH1 0x2 PUSH1 0x20 MSTORE DUP1 PUSH1 0x0 MSTORE PUSH1 0x40 PUSH1 0x0 KECCAK256 PUSH1 0x0 SWAP2 POP SWAP1 POP DUP1 PUSH1 0x0 ADD PUSH1 0x0 SWAP1 SLOAD SWAP1 PUSH2 0x100 EXP SWAP1 DIV PUSH20 0xFFFFFFFFFFFFFFFFFFFFFFFFFFFFFFFFFFFFFFFF AND SWAP1 DUP1 PUSH1 0x1 ADD DUP1 SLOAD PUSH2 0x1AA7 SWAP1 PUSH2 0x3370 JUMP JUMPDEST DUP1 PUSH1 0x1F ADD PUSH1 0x20 DUP1 SWAP2 DIV MUL PUSH1 0x20 ADD PUSH1 0x40 MLOAD SWAP1 DUP2 ADD PUSH1 0x40 MSTORE DUP1 SWAP3 SWAP2 SWAP1 DUP2 DUP2 MSTORE PUSH1 0x20 ADD DUP3 DUP1 SLOAD PUSH2 0x1AD3 SWAP1 PUSH2 0x3370 JUMP JUMPDEST DUP1 ISZERO PUSH2 0x1B20 JUMPI DUP1 PUSH1 0x1F LT PUSH2 0x1AF5 JUMPI PUSH2 0x100 DUP1 DUP4 SLOAD DIV MUL DUP4 MSTORE SWAP2 PUSH1 0x20 ADD SWAP2 PUSH2 0x1B20 JUMP JUMPDEST DUP3 ADD SWAP2 SWAP1 PUSH1 0x0 MSTORE PUSH1 0x20 PUSH1 0x0 KECCAK256 SWAP1 JUMPDEST DUP2 SLOAD DUP2 MSTORE SWAP1 PUSH1 0x1 ADD SWAP1 PUSH1 0x20 ADD DUP1 DUP4 GT PUSH2 0x1B03 JUMPI DUP3 SWAP1 SUB PUSH1 0x1F AND DUP3 ADD SWAP2 JUMPDEST POP POP POP POP POP SWAP1 DUP1 PUSH1 0x2 ADD DUP1 SLOAD PUSH2 0x1B35 SWAP1 PUSH2 0x3370 JUMP JUMPDEST DUP1 PUSH1 0x1F ADD PUSH1 0x20 DUP1 SWAP2 DIV MUL PUSH1 0x20 ADD PUSH1 0x40 MLOAD SWAP1 DUP2 ADD PUSH1 0x40 MSTORE DUP1 SWAP3 SWAP2 SWAP1 DUP2 DUP2 MSTORE PUSH1 0x20 ADD DUP3 DUP1 SLOAD PUSH2 0x1B61 SWAP1 PUSH2 0x3370 JUMP JUMPDEST DUP1 ISZERO PUSH2 0x1BAE JUMPI DUP1 PUSH1 0x1F LT PUSH2 0x1B83 JUMPI PUSH2 0x100 DUP1 DUP4 SLOAD DIV MUL DUP4 MSTORE SWAP2 PUSH1 0x20 ADD SWAP2 PUSH2 0x1BAE JUMP JUMPDEST DUP3 ADD SWAP2 SWAP1 PUSH1 0x0 MSTORE PUSH1 0x20 PUSH1 0x0 KECCAK256 SWAP1 JUMPDEST DUP2 SLOAD DUP2 MSTORE SWAP1 PUSH1 0x1 ADD SWAP1 PUSH1 0x20 ADD DUP1 DUP4 GT PUSH2 0x1B91 JUMPI DUP3 SWAP1 SUB PUSH1 0x1F AND DUP3 ADD SWAP2 JUMPDEST POP POP POP POP POP SWAP1 DUP1 PUSH1 0x3 ADD SLOAD SWAP1 DUP1 PUSH1 0x4 ADD SLOAD SWAP1 DUP1 PUSH1 0x5 ADD SLOAD SWAP1 DUP1 PUSH1 0x6 ADD PUSH1 0x0 SWAP1 SLOAD SWAP1 PUSH2 0x100 EXP SWAP1 DIV PUSH1 0xFF AND SWAP1 DUP1 PUSH1 0x6 ADD PUSH1 0x1 SWAP1 SLOAD SWAP1 PUSH2 0x100 EXP SWAP1 DIV PUSH1 0xFF AND SWAP1 POP DUP9 JUMP JUMPDEST PUSH2 0x1BF8 PUSH2 0x2135 JUMP JUMPDEST PUSH1 0x0 PUSH1 0x2 PUSH1 0x0 DUP5 PUSH20 0xFFFFFFFFFFFFFFFFFFFFFFFFFFFFFFFFFFFFFFFF AND PUSH20 0xFFFFFFFFFFFFFFFFFFFFFFFFFFFFFFFFFFFFFFFF AND DUP2 MSTORE PUSH1 0x20 ADD SWAP1 DUP2 MSTORE PUSH1 0x20 ADD PUSH1 0x0 KECCAK256 PUSH1 0x5 ADD SLOAD GT PUSH2 0x1C7D JUMPI PUSH1 0x40 MLOAD PUSH32 0x8C379A000000000000000000000000000000000000000000000000000000000 DUP2 MSTORE PUSH1 0x4 ADD PUSH2 0x1C74 SWAP1 PUSH2 0x322A JUMP JUMPDEST PUSH1 0x40 MLOAD DUP1 SWAP2 SUB SWAP1 REVERT JUMPDEST PUSH1 0x64 DUP2 GT ISZERO PUSH2 0x1CC1 JUMPI PUSH1 0x40 MLOAD PUSH32 0x8C379A000000000000000000000000000000000000000000000000000000000 DUP2 MSTORE PUSH1 0x4 ADD PUSH2 0x1CB8 SWAP1 PUSH2 0x30B3 JUMP JUMPDEST PUSH1 0x40 MLOAD DUP1 SWAP2 SUB SWAP1 REVERT JUMPDEST PUSH1 0x0 PUSH1 0x2 PUSH1 0x0 DUP5 PUSH20 0xFFFFFFFFFFFFFFFFFFFFFFFFFFFFFFFFFFFFFFFF AND PUSH20 0xFFFFFFFFFFFFFFFFFFFFFFFFFFFFFFFFFFFFFFFF AND DUP2 MSTORE PUSH1 0x20 ADD SWAP1 DUP2 MSTORE PUSH1 0x20 ADD PUSH1 0x0 KECCAK256 PUSH1 0x3 ADD SLOAD SWAP1 POP DUP2 PUSH1 0x2 PUSH1 0x0 DUP6 PUSH20 0xFFFFFFFFFFFFFFFFFFFFFFFFFFFFFFFFFFFFFFFF AND PUSH20 0xFFFFFFFFFFFFFFFFFFFFFFFFFFFFFFFFFFFFFFFF AND DUP2 MSTORE PUSH1 0x20 ADD SWAP1 DUP2 MSTORE PUSH1 0x20 ADD PUSH1 0x0 KECCAK256 PUSH1 0x3 ADD DUP2 SWAP1 SSTORE POP DUP3 PUSH20 0xFFFFFFFFFFFFFFFFFFFFFFFFFFFFFFFFFFFFFFFF AND PUSH32 0x15DD57E0CDE9AF9083C846EB39C9DA382E907C0036818E4A163ECD167E5F3276 DUP3 DUP5 PUSH1 0x40 MLOAD PUSH2 0x1D97 SWAP3 SWAP2 SWAP1 PUSH2 0x3A72 JUMP JUMPDEST PUSH1 0x40 MLOAD DUP1 SWAP2 SUB SWAP1 LOG2 POP POP POP JUMP JUMPDEST PUSH1 0x0 PUSH1 0x2 PUSH1 0x0 CALLER PUSH20 0xFFFFFFFFFFFFFFFFFFFFFFFFFFFFFFFFFFFFFFFF AND PUSH20 0xFFFFFFFFFFFFFFFFFFFFFFFFFFFFFFFFFFFFFFFF AND DUP2 MSTORE PUSH1 0x20 ADD SWAP1 DUP2 MSTORE PUSH1 0x20 ADD PUSH1 0x0 KECCAK256 PUSH1 0x5 ADD SLOAD EQ PUSH2 0x1E29 JUMPI PUSH1 0x40 MLOAD PUSH32 0x8C379A000000000000000000000000000000000000000000000000000000000 DUP2 MSTORE PUSH1 0x4 ADD PUSH2 0x1E20 SWAP1 PUSH2 0x3AE7 JUMP JUMPDEST PUSH1 0x40 MLOAD DUP1 SWAP2 SUB SWAP1 REVERT JUMPDEST PUSH1 0x0 DUP5 DUP5 SWAP1 POP GT PUSH2 0x1E6F JUMPI PUSH1 0x40 MLOAD PUSH32 0x8C379A000000000000000000000000000000000000000000000000000000000 DUP2 MSTORE PUSH1 0x4 ADD PUSH2 0x1E66 SWAP1 PUSH2 0x3B53 JUMP JUMPDEST PUSH1 0x40 MLOAD DUP1 SWAP2 SUB SWAP1 REVERT JUMPDEST PUSH1 0x40 MLOAD DUP1 PUSH2 0x100 ADD PUSH1 0x40 MSTORE DUP1 CALLER PUSH20 0xFFFFFFFFFFFFFFFFFFFFFFFFFFFFFFFFFFFFFFFF AND DUP2 MSTORE PUSH1 0x20 ADD DUP6 DUP6 DUP1 DUP1 PUSH1 0x1F ADD PUSH1 0x20 DUP1 SWAP2 DIV MUL PUSH1 0x20 ADD PUSH1 0x40 MLOAD SWAP1 DUP2 ADD PUSH1 0x40 MSTORE DUP1 SWAP4 SWAP3 SWAP2 SWAP1 DUP2 DUP2 MSTORE PUSH1 0x20 ADD DUP4 DUP4 DUP1 DUP3 DUP5 CALLDATACOPY PUSH1 0x0 DUP2 DUP5 ADD MSTORE PUSH1 0x1F NOT PUSH1 0x1F DUP3 ADD AND SWAP1 POP DUP1 DUP4 ADD SWAP3 POP POP POP POP POP POP POP DUP2 MSTORE PUSH1 0x20 ADD DUP4 DUP4 DUP1 DUP1 PUSH1 0x1F ADD PUSH1 0x20 DUP1 SWAP2 DIV MUL PUSH1 0x20 ADD PUSH1 0x40 MLOAD SWAP1 DUP2 ADD PUSH1 0x40 MSTORE DUP1 SWAP4 SWAP3 SWAP2 SWAP1 DUP2 DUP2 MSTORE PUSH1 0x20 ADD DUP4 DUP4 DUP1 DUP3 DUP5 CALLDATACOPY PUSH1 0x0 DUP2 DUP5 ADD MSTORE PUSH1 0x1F NOT PUSH1 0x1F DUP3 ADD AND SWAP1 POP DUP1 DUP4 ADD SWAP3 POP POP POP POP POP POP POP DUP2 MSTORE PUSH1 0x20 ADD PUSH1 0x32 DUP2 MSTORE PUSH1 0x20 ADD PUSH1 0x0 DUP2 MSTORE PUSH1 0x20 ADD TIMESTAMP DUP2 MSTORE PUSH1 0x20 ADD PUSH1 0x0 ISZERO ISZERO DUP2 MSTORE PUSH1 0x20 ADD PUSH1 0x0 ISZERO ISZERO DUP2 MSTORE POP PUSH1 0x2 PUSH1 0x0 CALLER PUSH20 0xFFFFFFFFFFFFFFFFFFFFFFFFFFFFFFFFFFFFFFFF AND PUSH20 0xFFFFFFFFFFFFFFFFFFFFFFFFFFFFFFFFFFFFFFFF AND DUP2 MSTORE PUSH1 0x20 ADD SWAP1 DUP2 MSTORE PUSH1 0x20 ADD PUSH1 0x0 KECCAK256 PUSH1 0x0 DUP3 ADD MLOAD DUP2 PUSH1 0x0 ADD PUSH1 0x0 PUSH2 0x100 EXP DUP2 SLOAD DUP2 PUSH20 0xFFFFFFFFFFFFFFFFFFFFFFFFFFFFFFFFFFFFFFFF MUL NOT AND SWAP1 DUP4 PUSH20 0xFFFFFFFFFFFFFFFFFFFFFFFFFFFFFFFFFFFFFFFF AND MUL OR SWAP1 SSTORE POP PUSH1 0x20 DUP3 ADD MLOAD DUP2 PUSH1 0x1 ADD SWAP1 DUP2 PUSH2 0x1FEA SWAP2 SWAP1 PUSH2 0x3689 JUMP JUMPDEST POP PUSH1 0x40 DUP3 ADD MLOAD DUP2 PUSH1 0x2 ADD SWAP1 DUP2 PUSH2 0x2000 SWAP2 SWAP1 PUSH2 0x3689 JUMP JUMPDEST POP PUSH1 0x60 DUP3 ADD MLOAD DUP2 PUSH1 0x3 ADD SSTORE PUSH1 0x80 DUP3 ADD MLOAD DUP2 PUSH1 0x4 ADD SSTORE PUSH1 0xA0 DUP3 ADD MLOAD DUP2 PUSH1 0x5 ADD SSTORE PUSH1 0xC0 DUP3 ADD MLOAD DUP2 PUSH1 0x6 ADD PUSH1 0x0 PUSH2 0x100 EXP DUP2 SLOAD DUP2 PUSH1 0xFF MUL NOT AND SWAP1 DUP4 ISZERO ISZERO MUL OR SWAP1 SSTORE POP PUSH1 0xE0 DUP3 ADD MLOAD DUP2 PUSH1 0x6 ADD PUSH1 0x1 PUSH2 0x100 EXP DUP2 SLOAD DUP2 PUSH1 0xFF MUL NOT AND SWAP1 DUP4 ISZERO ISZERO MUL OR SWAP1 SSTORE POP SWAP1 POP POP PUSH1 0x5 CALLER SWAP1 DUP1 PUSH1 0x1 DUP2 SLOAD ADD DUP1 DUP3 SSTORE DUP1 SWAP2 POP POP PUSH1 0x1 SWAP1 SUB SWAP1 PUSH1 0x0 MSTORE PUSH1 0x20 PUSH1 0x0 KECCAK256 ADD PUSH1 0x0 SWAP1 SWAP2 SWAP1 SWAP2 SWAP1 SWAP2 PUSH2 0x100 EXP DUP2 SLOAD DUP2 PUSH20 0xFFFFFFFFFFFFFFFFFFFFFFFFFFFFFFFFFFFFFFFF MUL NOT AND SWAP1 DUP4 PUSH20 0xFFFFFFFFFFFFFFFFFFFFFFFFFFFFFFFFFFFFFFFF AND MUL OR SWAP1 SSTORE POP PUSH1 0x8 PUSH1 0x0 DUP2 SLOAD DUP1 SWAP3 SWAP2 SWAP1 PUSH2 0x20D8 SWAP1 PUSH2 0x3102 JUMP JUMPDEST SWAP2 SWAP1 POP SSTORE POP CALLER PUSH20 0xFFFFFFFFFFFFFFFFFFFFFFFFFFFFFFFFFFFFFFFF AND PUSH32 0x23C5EFE572C42192271951ADB0E77F97D7FC84BC761D026189AC08617346824 DUP6 DUP6 TIMESTAMP PUSH1 0x40 MLOAD PUSH2 0x2127 SWAP4 SWAP3 SWAP2 SWAP1 PUSH2 0x3B73 JUMP JUMPDEST PUSH1 0x40 MLOAD DUP1 SWAP2 SUB SWAP1 LOG2 POP POP POP POP JUMP JUMPDEST PUSH2 0x213D PUSH2 0x23BF JUMP JUMPDEST PUSH20 0xFFFFFFFFFFFFFFFFFFFFFFFFFFFFFFFFFFFFFFFF AND PUSH2 0x215B PUSH2 0xF7B JUMP JUMPDEST PUSH20 0xFFFFFFFFFFFFFFFFFFFFFFFFFFFFFFFFFFFFFFFF AND EQ PUSH2 0x21BA JUMPI PUSH2 0x217E PUSH2 0x23BF JUMP JUMPDEST PUSH1 0x40 MLOAD PUSH32 0x118CDAA700000000000000000000000000000000000000000000000000000000 DUP2 MSTORE PUSH1 0x4 ADD PUSH2 0x21B1 SWAP2 SWAP1 PUSH2 0x2879 JUMP JUMPDEST PUSH1 0x40 MLOAD DUP1 SWAP2 SUB SWAP1 REVERT JUMPDEST JUMP JUMPDEST PUSH1 0x0 DUP1 PUSH1 0x0 SWAP1 SLOAD SWAP1 PUSH2 0x100 EXP SWAP1 DIV PUSH20 0xFFFFFFFFFFFFFFFFFFFFFFFFFFFFFFFFFFFFFFFF AND SWAP1 POP DUP2 PUSH1 0x0 DUP1 PUSH2 0x100 EXP DUP2 SLOAD DUP2 PUSH20 0xFFFFFFFFFFFFFFFFFFFFFFFFFFFFFFFFFFFFFFFF MUL NOT AND SWAP1 DUP4 PUSH20 0xFFFFFFFFFFFFFFFFFFFFFFFFFFFFFFFFFFFFFFFF AND MUL OR SWAP1 SSTORE POP DUP2 PUSH20 0xFFFFFFFFFFFFFFFFFFFFFFFFFFFFFFFFFFFFFFFF AND DUP2 PUSH20 0xFFFFFFFFFFFFFFFFFFFFFFFFFFFFFFFFFFFFFFFF AND PUSH32 0x8BE0079C531659141344CD1FD0A4F28419497F9722A3DAAFE3B4186F6B6457E0 PUSH1 0x40 MLOAD PUSH1 0x40 MLOAD DUP1 SWAP2 SUB SWAP1 LOG3 POP POP JUMP JUMPDEST PUSH1 0x0 PUSH1 0x2 PUSH1 0x0 DUP5 PUSH20 0xFFFFFFFFFFFFFFFFFFFFFFFFFFFFFFFFFFFFFFFF AND PUSH20 0xFFFFFFFFFFFFFFFFFFFFFFFFFFFFFFFFFFFFFFFF AND DUP2 MSTORE PUSH1 0x20 ADD SWAP1 DUP2 MSTORE PUSH1 0x20 ADD PUSH1 0x0 KECCAK256 PUSH1 0x3 ADD SLOAD SWAP1 POP PUSH1 0x0 DUP1 DUP4 SGT ISZERO PUSH2 0x22F2 JUMPI DUP3 DUP3 PUSH2 0x22DD SWAP2 SWAP1 PUSH2 0x314A JUMP JUMPDEST SWAP1 POP PUSH1 0x64 DUP2 GT ISZERO PUSH2 0x22ED JUMPI PUSH1 0x64 SWAP1 POP JUMPDEST PUSH2 0x2322 JUMP JUMPDEST PUSH1 0x0 DUP4 PUSH2 0x22FE SWAP1 PUSH2 0x3BAF JUMP JUMPDEST SWAP1 POP DUP3 DUP2 GT ISZERO PUSH2 0x2311 JUMPI PUSH1 0x0 SWAP2 POP PUSH2 0x2320 JUMP JUMPDEST DUP1 DUP4 PUSH2 0x231D SWAP2 SWAP1 PUSH2 0x3BF7 JUMP JUMPDEST SWAP2 POP JUMPDEST POP JUMPDEST DUP1 PUSH1 0x2 PUSH1 0x0 DUP7 PUSH20 0xFFFFFFFFFFFFFFFFFFFFFFFFFFFFFFFFFFFFFFFF AND PUSH20 0xFFFFFFFFFFFFFFFFFFFFFFFFFFFFFFFFFFFFFFFF AND DUP2 MSTORE PUSH1 0x20 ADD SWAP1 DUP2 MSTORE PUSH1 0x20 ADD PUSH1 0x0 KECCAK256 PUSH1 0x3 ADD DUP2 SWAP1 SSTORE POP DUP4 PUSH20 0xFFFFFFFFFFFFFFFFFFFFFFFFFFFFFFFFFFFFFFFF AND PUSH32 0x15DD57E0CDE9AF9083C846EB39C9DA382E907C0036818E4A163ECD167E5F3276 DUP4 DUP4 PUSH1 0x40 MLOAD PUSH2 0x23B1 SWAP3 SWAP2 SWAP1 PUSH2 0x3A72 JUMP JUMPDEST PUSH1 0x40 MLOAD DUP1 SWAP2 SUB SWAP1 LOG2 POP POP POP POP JUMP JUMPDEST PUSH1 0x0 CALLER SWAP1 POP SWAP1 JUMP JUMPDEST PUSH1 0x40 MLOAD DUP1 PUSH1 0xA0 ADD PUSH1 0x40 MSTORE DUP1 PUSH1 0x0 PUSH20 0xFFFFFFFFFFFFFFFFFFFFFFFFFFFFFFFFFFFFFFFF AND DUP2 MSTORE PUSH1 0x20 ADD PUSH1 0x60 DUP2 MSTORE PUSH1 0x20 ADD PUSH1 0x0 PUSH1 0xFF AND DUP2 MSTORE PUSH1 0x20 ADD PUSH1 0x0 DUP2 MSTORE PUSH1 0x20 ADD PUSH1 0x60 DUP2 MSTORE POP SWAP1 JUMP JUMPDEST DUP3 DUP1 SLOAD DUP3 DUP3 SSTORE SWAP1 PUSH1 0x0 MSTORE PUSH1 0x20 PUSH1 0x0 KECCAK256 SWAP1 DUP2 ADD SWAP3 DUP3 ISZERO PUSH2 0x2457 JUMPI SWAP2 PUSH1 0x20 MUL DUP3 ADD JUMPDEST DUP3 DUP2 GT ISZERO PUSH2 0x2456 JUMPI DUP3 MLOAD DUP3 SWAP1 DUP2 PUSH2 0x2446 SWAP2 SWAP1 PUSH2 0x3689 JUMP JUMPDEST POP SWAP2 PUSH1 0x20 ADD SWAP2 SWAP1 PUSH1 0x1 ADD SWAP1 PUSH2 0x242F JUMP JUMPDEST JUMPDEST POP SWAP1 POP PUSH2 0x2464 SWAP2 SWAP1 PUSH2 0x24C7 JUMP JUMPDEST POP SWAP1 JUMP JUMPDEST PUSH1 0x40 MLOAD DUP1 PUSH2 0x100 ADD PUSH1 0x40 MSTORE DUP1 PUSH1 0x0 PUSH20 0xFFFFFFFFFFFFFFFFFFFFFFFFFFFFFFFFFFFFFFFF AND DUP2 MSTORE PUSH1 0x20 ADD PUSH1 0x60 DUP2 MSTORE PUSH1 0x20 ADD PUSH1 0x60 DUP2 MSTORE PUSH1 0x20 ADD PUSH1 0x0 DUP2 MSTORE PUSH1 0x20 ADD PUSH1 0x0 DUP2 MSTORE PUSH1 0x20 ADD PUSH1 0x0 DUP2 MSTORE PUSH1 0x20 ADD PUSH1 0x0 ISZERO ISZERO DUP2 MSTORE PUSH1 0x20 ADD PUSH1 0x0 ISZERO ISZERO DUP2 MSTORE POP SWAP1 JUMP JUMPDEST JUMPDEST DUP1 DUP3 GT ISZERO PUSH2 0x24E7 JUMPI PUSH1 0x0 DUP2 DUP2 PUSH2 0x24DE SWAP2 SWAP1 PUSH2 0x24EB JUMP JUMPDEST POP PUSH1 0x1 ADD PUSH2 0x24C8 JUMP JUMPDEST POP SWAP1 JUMP JUMPDEST POP DUP1 SLOAD PUSH2 0x24F7 SWAP1 PUSH2 0x3370 JUMP JUMPDEST PUSH1 0x0 DUP3 SSTORE DUP1 PUSH1 0x1F LT PUSH2 0x2509 JUMPI POP PUSH2 0x2528 JUMP JUMPDEST PUSH1 0x1F ADD PUSH1 0x20 SWAP1 DIV SWAP1 PUSH1 0x0 MSTORE PUSH1 0x20 PUSH1 0x0 KECCAK256 SWAP1 DUP2 ADD SWAP1 PUSH2 0x2527 SWAP2 SWAP1 PUSH2 0x252B JUMP JUMPDEST JUMPDEST POP JUMP JUMPDEST JUMPDEST DUP1 DUP3 GT ISZERO PUSH2 0x2544 JUMPI PUSH1 0x0 DUP2 PUSH1 0x0 SWAP1 SSTORE POP PUSH1 0x1 ADD PUSH2 0x252C JUMP JUMPDEST POP SWAP1 JUMP JUMPDEST PUSH1 0x0 DUP2 SWAP1 POP SWAP2 SWAP1 POP JUMP JUMPDEST PUSH2 0x255B DUP2 PUSH2 0x2548 JUMP JUMPDEST DUP3 MSTORE POP POP JUMP JUMPDEST PUSH1 0x0 PUSH1 0x20 DUP3 ADD SWAP1 POP PUSH2 0x2576 PUSH1 0x0 DUP4 ADD DUP5 PUSH2 0x2552 JUMP JUMPDEST SWAP3 SWAP2 POP POP JUMP JUMPDEST PUSH1 0x0 PUSH1 0x40 MLOAD SWAP1 POP SWAP1 JUMP JUMPDEST PUSH1 0x0 DUP1 REVERT JUMPDEST PUSH1 0x0 DUP1 REVERT JUMPDEST PUSH1 0x0 DUP1 REVERT JUMPDEST PUSH1 0x0 DUP1 REVERT JUMPDEST PUSH1 0x0 DUP1 REVERT JUMPDEST PUSH1 0x0 DUP1 DUP4 PUSH1 0x1F DUP5 ADD SLT PUSH2 0x25B5 JUMPI PUSH2 0x25B4 PUSH2 0x2590 JUMP JUMPDEST JUMPDEST DUP3 CALLDATALOAD SWAP1 POP PUSH8 0xFFFFFFFFFFFFFFFF DUP2 GT ISZERO PUSH2 0x25D2 JUMPI PUSH2 0x25D1 PUSH2 0x2595 JUMP JUMPDEST JUMPDEST PUSH1 0x20 DUP4 ADD SWAP2 POP DUP4 PUSH1 0x1 DUP3 MUL DUP4 ADD GT ISZERO PUSH2 0x25EE JUMPI PUSH2 0x25ED PUSH2 0x259A JUMP JUMPDEST JUMPDEST SWAP3 POP SWAP3 SWAP1 POP JUMP JUMPDEST PUSH1 0x0 DUP1 PUSH1 0x20 DUP4 DUP6 SUB SLT ISZERO PUSH2 0x260C JUMPI PUSH2 0x260B PUSH2 0x2586 JUMP JUMPDEST JUMPDEST PUSH1 0x0 DUP4 ADD CALLDATALOAD PUSH8 0xFFFFFFFFFFFFFFFF DUP2 GT ISZERO PUSH2 0x262A JUMPI PUSH2 0x2629 PUSH2 0x258B JUMP JUMPDEST JUMPDEST PUSH2 0x2636 DUP6 DUP3 DUP7 ADD PUSH2 0x259F JUMP JUMPDEST SWAP3 POP SWAP3 POP POP SWAP3 POP SWAP3 SWAP1 POP JUMP JUMPDEST PUSH1 0x0 DUP2 ISZERO ISZERO SWAP1 POP SWAP2 SWAP1 POP JUMP JUMPDEST PUSH2 0x2657 DUP2 PUSH2 0x2642 JUMP JUMPDEST DUP3 MSTORE POP POP JUMP JUMPDEST PUSH1 0x0 PUSH1 0x40 DUP3 ADD SWAP1 POP PUSH2 0x2672 PUSH1 0x0 DUP4 ADD DUP6 PUSH2 0x264E JUMP JUMPDEST PUSH2 0x267F PUSH1 0x20 DUP4 ADD DUP5 PUSH2 0x2552 JUMP JUMPDEST SWAP4 SWAP3 POP POP POP JUMP JUMPDEST PUSH1 0x0 DUP2 SWAP1 POP SWAP2 SWAP1 POP JUMP JUMPDEST PUSH2 0x2699 DUP2 PUSH2 0x2686 JUMP JUMPDEST DUP2 EQ PUSH2 0x26A4 JUMPI PUSH1 0x0 DUP1 REVERT JUMPDEST POP JUMP JUMPDEST PUSH1 0x0 DUP2 CALLDATALOAD SWAP1 POP PUSH2 0x26B6 DUP2 PUSH2 0x2690 JUMP JUMPDEST SWAP3 SWAP2 POP POP JUMP JUMPDEST PUSH2 0x26C5 DUP2 PUSH2 0x2548 JUMP JUMPDEST DUP2 EQ PUSH2 0x26D0 JUMPI PUSH1 0x0 DUP1 REVERT JUMPDEST POP JUMP JUMPDEST PUSH1 0x0 DUP2 CALLDATALOAD SWAP1 POP PUSH2 0x26E2 DUP2 PUSH2 0x26BC JUMP JUMPDEST SWAP3 SWAP2 POP POP JUMP JUMPDEST PUSH1 0x0 DUP1 PUSH1 0x40 DUP4 DUP6 SUB SLT ISZERO PUSH2 0x26FF JUMPI PUSH2 0x26FE PUSH2 0x2586 JUMP JUMPDEST JUMPDEST PUSH1 0x0 PUSH2 0x270D DUP6 DUP3 DUP7 ADD PUSH2 0x26A7 JUMP JUMPDEST SWAP3 POP POP PUSH1 0x20 PUSH2 0x271E DUP6 DUP3 DUP7 ADD PUSH2 0x26D3 JUMP JUMPDEST SWAP2 POP POP SWAP3 POP SWAP3 SWAP1 POP JUMP JUMPDEST PUSH1 0x0 PUSH20 0xFFFFFFFFFFFFFFFFFFFFFFFFFFFFFFFFFFFFFFFF DUP3 AND SWAP1 POP SWAP2 SWAP1 POP JUMP JUMPDEST PUSH1 0x0 PUSH2 0x2753 DUP3 PUSH2 0x2728 JUMP JUMPDEST SWAP1 POP SWAP2 SWAP1 POP JUMP JUMPDEST PUSH2 0x2763 DUP2 PUSH2 0x2748 JUMP JUMPDEST DUP2 EQ PUSH2 0x276E JUMPI PUSH1 0x0 DUP1 REVERT JUMPDEST POP JUMP JUMPDEST PUSH1 0x0 DUP2 CALLDATALOAD SWAP1 POP PUSH2 0x2780 DUP2 PUSH2 0x275A JUMP JUMPDEST SWAP3 SWAP2 POP POP JUMP JUMPDEST PUSH1 0x0 PUSH1 0x20 DUP3 DUP5 SUB SLT ISZERO PUSH2 0x279C JUMPI PUSH2 0x279B PUSH2 0x2586 JUMP JUMPDEST JUMPDEST PUSH1 0x0 PUSH2 0x27AA DUP5 DUP3 DUP6 ADD PUSH2 0x2771 JUMP JUMPDEST SWAP2 POP POP SWAP3 SWAP2 POP POP JUMP JUMPDEST PUSH1 0x0 PUSH1 0x20 DUP3 DUP5 SUB SLT ISZERO PUSH2 0x27C9 JUMPI PUSH2 0x27C8 PUSH2 0x2586 JUMP JUMPDEST JUMPDEST PUSH1 0x0 PUSH2 0x27D7 DUP5 DUP3 DUP6 ADD PUSH2 0x26D3 JUMP JUMPDEST SWAP2 POP POP SWAP3 SWAP2 POP POP JUMP JUMPDEST PUSH2 0x27E9 DUP2 PUSH2 0x2686 JUMP JUMPDEST DUP3 MSTORE POP POP JUMP JUMPDEST PUSH1 0x0 PUSH1 0x20 DUP3 ADD SWAP1 POP PUSH2 0x2804 PUSH1 0x0 DUP4 ADD DUP5 PUSH2 0x27E0 JUMP JUMPDEST SWAP3 SWAP2 POP POP JUMP JUMPDEST PUSH1 0x0 DUP1 PUSH1 0x0 PUSH1 0x40 DUP5 DUP7 SUB SLT ISZERO PUSH2 0x2823 JUMPI PUSH2 0x2822 PUSH2 0x2586 JUMP JUMPDEST JUMPDEST PUSH1 0x0 PUSH2 0x2831 DUP7 DUP3 DUP8 ADD PUSH2 0x2771 JUMP JUMPDEST SWAP4 POP POP PUSH1 0x20 DUP5 ADD CALLDATALOAD PUSH8 0xFFFFFFFFFFFFFFFF DUP2 GT ISZERO PUSH2 0x2852 JUMPI PUSH2 0x2851 PUSH2 0x258B JUMP JUMPDEST JUMPDEST PUSH2 0x285E DUP7 DUP3 DUP8 ADD PUSH2 0x259F JUMP JUMPDEST SWAP3 POP SWAP3 POP POP SWAP3 POP SWAP3 POP SWAP3 JUMP JUMPDEST PUSH2 0x2873 DUP2 PUSH2 0x2748 JUMP JUMPDEST DUP3 MSTORE POP POP JUMP JUMPDEST PUSH1 0x0 PUSH1 0x20 DUP3 ADD SWAP1 POP PUSH2 0x288E PUSH1 0x0 DUP4 ADD DUP5 PUSH2 0x286A JUMP JUMPDEST SWAP3 SWAP2 POP POP JUMP JUMPDEST PUSH1 0x0 PUSH1 0x20 DUP3 DUP5 SUB SLT ISZERO PUSH2 0x28AA JUMPI PUSH2 0x28A9 PUSH2 0x2586 JUMP JUMPDEST JUMPDEST PUSH1 0x0 PUSH2 0x28B8 DUP5 DUP3 DUP6 ADD PUSH2 0x26A7 JUMP JUMPDEST SWAP2 POP POP SWAP3 SWAP2 POP POP JUMP JUMPDEST PUSH2 0x28CA DUP2 PUSH2 0x2748 JUMP JUMPDEST DUP3 MSTORE POP POP JUMP JUMPDEST PUSH1 0x0 DUP2 MLOAD SWAP1 POP SWAP2 SWAP1 POP JUMP JUMPDEST PUSH1 0x0 DUP3 DUP3 MSTORE PUSH1 0x20 DUP3 ADD SWAP1 POP SWAP3 SWAP2 POP POP JUMP JUMPDEST PUSH1 0x0 JUMPDEST DUP4 DUP2 LT ISZERO PUSH2 0x290A JUMPI DUP1 DUP3 ADD MLOAD DUP2 DUP5 ADD MSTORE PUSH1 0x20 DUP2 ADD SWAP1 POP PUSH2 0x28EF JUMP JUMPDEST PUSH1 0x0 DUP5 DUP5 ADD MSTORE POP POP POP POP JUMP JUMPDEST PUSH1 0x0 PUSH1 0x1F NOT PUSH1 0x1F DUP4 ADD AND SWAP1 POP SWAP2 SWAP1 POP JUMP JUMPDEST PUSH1 0x0 PUSH2 0x2932 DUP3 PUSH2 0x28D0 JUMP JUMPDEST PUSH2 0x293C DUP2 DUP6 PUSH2 0x28DB JUMP JUMPDEST SWAP4 POP PUSH2 0x294C DUP2 DUP6 PUSH1 0x20 DUP7 ADD PUSH2 0x28EC JUMP JUMPDEST PUSH2 0x2955 DUP2 PUSH2 0x2916 JUMP JUMPDEST DUP5 ADD SWAP2 POP POP SWAP3 SWAP2 POP POP JUMP JUMPDEST PUSH1 0x0 PUSH1 0xFF DUP3 AND SWAP1 POP SWAP2 SWAP1 POP JUMP JUMPDEST PUSH2 0x2976 DUP2 PUSH2 0x2960 JUMP JUMPDEST DUP3 MSTORE POP POP JUMP JUMPDEST PUSH2 0x2985 DUP2 PUSH2 0x2548 JUMP JUMPDEST DUP3 MSTORE POP POP JUMP JUMPDEST PUSH1 0x0 DUP2 MLOAD SWAP1 POP SWAP2 SWAP1 POP JUMP JUMPDEST PUSH1 0x0 DUP3 DUP3 MSTORE PUSH1 0x20 DUP3 ADD SWAP1 POP SWAP3 SWAP2 POP POP JUMP JUMPDEST PUSH1 0x0 DUP2 SWAP1 POP PUSH1 0x20 DUP3 ADD SWAP1 POP SWAP2 SWAP1 POP JUMP JUMPDEST PUSH1 0x0 PUSH2 0x29C3 DUP4 DUP4 PUSH2 0x2927 JUMP JUMPDEST SWAP1 POP SWAP3 SWAP2 POP POP JUMP JUMPDEST PUSH1 0x0 PUSH1 0x20 DUP3 ADD SWAP1 POP SWAP2 SWAP1 POP JUMP JUMPDEST PUSH1 0x0 PUSH2 0x29E3 DUP3 PUSH2 0x298B JUMP JUMPDEST PUSH2 0x29ED DUP2 DUP6 PUSH2 0x2996 JUMP JUMPDEST SWAP4 POP DUP4 PUSH1 0x20 DUP3 MUL DUP6 ADD PUSH2 0x29FF DUP6 PUSH2 0x29A7 JUMP JUMPDEST DUP1 PUSH1 0x0 JUMPDEST DUP6 DUP2 LT ISZERO PUSH2 0x2A3B JUMPI DUP5 DUP5 SUB DUP10 MSTORE DUP2 MLOAD PUSH2 0x2A1C DUP6 DUP3 PUSH2 0x29B7 JUMP JUMPDEST SWAP5 POP PUSH2 0x2A27 DUP4 PUSH2 0x29CB JUMP JUMPDEST SWAP3 POP PUSH1 0x20 DUP11 ADD SWAP10 POP POP PUSH1 0x1 DUP2 ADD SWAP1 POP PUSH2 0x2A03 JUMP JUMPDEST POP DUP3 SWAP8 POP DUP8 SWAP6 POP POP POP POP POP POP SWAP3 SWAP2 POP POP JUMP JUMPDEST PUSH1 0x0 PUSH1 0xA0 DUP4 ADD PUSH1 0x0 DUP4 ADD MLOAD PUSH2 0x2A65 PUSH1 0x0 DUP7 ADD DUP3 PUSH2 0x28C1 JUMP JUMPDEST POP PUSH1 0x20 DUP4 ADD MLOAD DUP5 DUP3 SUB PUSH1 0x20 DUP7 ADD MSTORE PUSH2 0x2A7D DUP3 DUP3 PUSH2 0x2927 JUMP JUMPDEST SWAP2 POP POP PUSH1 0x40 DUP4 ADD MLOAD PUSH2 0x2A92 PUSH1 0x40 DUP7 ADD DUP3 PUSH2 0x296D JUMP JUMPDEST POP PUSH1 0x60 DUP4 ADD MLOAD PUSH2 0x2AA5 PUSH1 0x60 DUP7 ADD DUP3 PUSH2 0x297C JUMP JUMPDEST POP PUSH1 0x80 DUP4 ADD MLOAD DUP5 DUP3 SUB PUSH1 0x80 DUP7 ADD MSTORE PUSH2 0x2ABD DUP3 DUP3 PUSH2 0x29D8 JUMP JUMPDEST SWAP2 POP POP DUP1 SWAP2 POP POP SWAP3 SWAP2 POP POP JUMP JUMPDEST PUSH1 0x0 PUSH1 0x20 DUP3 ADD SWAP1 POP DUP2 DUP2 SUB PUSH1 0x0 DUP4 ADD MSTORE PUSH2 0x2AE4 DUP2 DUP5 PUSH2 0x2A4D JUMP JUMPDEST SWAP1 POP SWAP3 SWAP2 POP POP JUMP JUMPDEST PUSH1 0x0 DUP3 DUP3 MSTORE PUSH1 0x20 DUP3 ADD SWAP1 POP SWAP3 SWAP2 POP POP JUMP JUMPDEST PUSH1 0x0 PUSH2 0x2B08 DUP3 PUSH2 0x28D0 JUMP JUMPDEST PUSH2 0x2B12 DUP2 DUP6 PUSH2 0x2AEC JUMP JUMPDEST SWAP4 POP PUSH2 0x2B22 DUP2 DUP6 PUSH1 0x20 DUP7 ADD PUSH2 0x28EC JUMP JUMPDEST PUSH2 0x2B2B DUP2 PUSH2 0x2916 JUMP JUMPDEST DUP5 ADD SWAP2 POP POP SWAP3 SWAP2 POP POP JUMP JUMPDEST PUSH2 0x2B3F DUP2 PUSH2 0x2960 JUMP JUMPDEST DUP3 MSTORE POP POP JUMP JUMPDEST PUSH1 0x0 PUSH1 0x80 DUP3 ADD SWAP1 POP PUSH2 0x2B5A PUSH1 0x0 DUP4 ADD DUP8 PUSH2 0x286A JUMP JUMPDEST DUP2 DUP2 SUB PUSH1 0x20 DUP4 ADD MSTORE PUSH2 0x2B6C DUP2 DUP7 PUSH2 0x2AFD JUMP JUMPDEST SWAP1 POP PUSH2 0x2B7B PUSH1 0x40 DUP4 ADD DUP6 PUSH2 0x2B36 JUMP JUMPDEST PUSH2 0x2B88 PUSH1 0x60 DUP4 ADD DUP5 PUSH2 0x2552 JUMP JUMPDEST SWAP6 SWAP5 POP POP POP POP POP JUMP JUMPDEST PUSH1 0x0 PUSH1 0xA0 DUP3 ADD SWAP1 POP DUP2 DUP2 SUB PUSH1 0x0 DUP4 ADD MSTORE PUSH2 0x2BAB DUP2 DUP9 PUSH2 0x2AFD JUMP JUMPDEST SWAP1 POP PUSH2 0x2BBA PUSH1 0x20 DUP4 ADD DUP8 PUSH2 0x286A JUMP JUMPDEST PUSH2 0x2BC7 PUSH1 0x40 DUP4 ADD DUP7 PUSH2 0x2552 JUMP JUMPDEST PUSH2 0x2BD4 PUSH1 0x60 DUP4 ADD DUP6 PUSH2 0x2552 JUMP JUMPDEST PUSH2 0x2BE1 PUSH1 0x80 DUP4 ADD DUP5 PUSH2 0x264E JUMP JUMPDEST SWAP7 SWAP6 POP POP POP POP POP POP JUMP JUMPDEST PUSH2 0x2BF4 DUP2 PUSH2 0x2960 JUMP JUMPDEST DUP2 EQ PUSH2 0x2BFF JUMPI PUSH1 0x0 DUP1 REVERT JUMPDEST POP JUMP JUMPDEST PUSH1 0x0 DUP2 CALLDATALOAD SWAP1 POP PUSH2 0x2C11 DUP2 PUSH2 0x2BEB JUMP JUMPDEST SWAP3 SWAP2 POP POP JUMP JUMPDEST PUSH1 0x0 DUP1 DUP4 PUSH1 0x1F DUP5 ADD SLT PUSH2 0x2C2D JUMPI PUSH2 0x2C2C PUSH2 0x2590 JUMP JUMPDEST JUMPDEST DUP3 CALLDATALOAD SWAP1 POP PUSH8 0xFFFFFFFFFFFFFFFF DUP2 GT ISZERO PUSH2 0x2C4A JUMPI PUSH2 0x2C49 PUSH2 0x2595 JUMP JUMPDEST JUMPDEST PUSH1 0x20 DUP4 ADD SWAP2 POP DUP4 PUSH1 0x20 DUP3 MUL DUP4 ADD GT ISZERO PUSH2 0x2C66 JUMPI PUSH2 0x2C65 PUSH2 0x259A JUMP JUMPDEST JUMPDEST SWAP3 POP SWAP3 SWAP1 POP JUMP JUMPDEST PUSH1 0x0 DUP1 PUSH1 0x0 DUP1 PUSH1 0x0 PUSH1 0x60 DUP7 DUP9 SUB SLT ISZERO PUSH2 0x2C89 JUMPI PUSH2 0x2C88 PUSH2 0x2586 JUMP JUMPDEST JUMPDEST PUSH1 0x0 DUP7 ADD CALLDATALOAD PUSH8 0xFFFFFFFFFFFFFFFF DUP2 GT ISZERO PUSH2 0x2CA7 JUMPI PUSH2 0x2CA6 PUSH2 0x258B JUMP JUMPDEST JUMPDEST PUSH2 0x2CB3 DUP9 DUP3 DUP10 ADD PUSH2 0x259F JUMP JUMPDEST SWAP6 POP SWAP6 POP POP PUSH1 0x20 PUSH2 0x2CC6 DUP9 DUP3 DUP10 ADD PUSH2 0x2C02 JUMP JUMPDEST SWAP4 POP POP PUSH1 0x40 DUP7 ADD CALLDATALOAD PUSH8 0xFFFFFFFFFFFFFFFF DUP2 GT ISZERO PUSH2 0x2CE7 JUMPI PUSH2 0x2CE6 PUSH2 0x258B JUMP JUMPDEST JUMPDEST PUSH2 0x2CF3 DUP9 DUP3 DUP10 ADD PUSH2 0x2C17 JUMP JUMPDEST SWAP3 POP SWAP3 POP POP SWAP3 SWAP6 POP SWAP3 SWAP6 SWAP1 SWAP4 POP JUMP JUMPDEST PUSH2 0x2D0B DUP2 PUSH2 0x2642 JUMP JUMPDEST DUP3 MSTORE POP POP JUMP JUMPDEST PUSH1 0x0 PUSH2 0x100 DUP4 ADD PUSH1 0x0 DUP4 ADD MLOAD PUSH2 0x2D2A PUSH1 0x0 DUP7 ADD DUP3 PUSH2 0x28C1 JUMP JUMPDEST POP PUSH1 0x20 DUP4 ADD MLOAD DUP5 DUP3 SUB PUSH1 0x20 DUP7 ADD MSTORE PUSH2 0x2D42 DUP3 DUP3 PUSH2 0x2927 JUMP JUMPDEST SWAP2 POP POP PUSH1 0x40 DUP4 ADD MLOAD DUP5 DUP3 SUB PUSH1 0x40 DUP7 ADD MSTORE PUSH2 0x2D5C DUP3 DUP3 PUSH2 0x2927 JUMP JUMPDEST SWAP2 POP POP PUSH1 0x60 DUP4 ADD MLOAD PUSH2 0x2D71 PUSH1 0x60 DUP7 ADD DUP3 PUSH2 0x297C JUMP JUMPDEST POP PUSH1 0x80 DUP4 ADD MLOAD PUSH2 0x2D84 PUSH1 0x80 DUP7 ADD DUP3 PUSH2 0x297C JUMP JUMPDEST POP PUSH1 0xA0 DUP4 ADD MLOAD PUSH2 0x2D97 PUSH1 0xA0 DUP7 ADD DUP3 PUSH2 0x297C JUMP JUMPDEST POP PUSH1 0xC0 DUP4 ADD MLOAD PUSH2 0x2DAA PUSH1 0xC0 DUP7 ADD DUP3 PUSH2 0x2D02 JUMP JUMPDEST POP PUSH1 0xE0 DUP4 ADD MLOAD PUSH2 0x2DBD PUSH1 0xE0 DUP7 ADD DUP3 PUSH2 0x2D02 JUMP JUMPDEST POP DUP1 SWAP2 POP POP SWAP3 SWAP2 POP POP JUMP JUMPDEST PUSH1 0x0 PUSH1 0x20 DUP3 ADD SWAP1 POP DUP2 DUP2 SUB PUSH1 0x0 DUP4 ADD MSTORE PUSH2 0x2DE2 DUP2 DUP5 PUSH2 0x2D11 JUMP JUMPDEST SWAP1 POP SWAP3 SWAP2 POP POP JUMP JUMPDEST PUSH1 0x0 PUSH2 0x100 DUP3 ADD SWAP1 POP PUSH2 0x2E00 PUSH1 0x0 DUP4 ADD DUP12 PUSH2 0x286A JUMP JUMPDEST DUP2 DUP2 SUB PUSH1 0x20 DUP4 ADD MSTORE PUSH2 0x2E12 DUP2 DUP11 PUSH2 0x2AFD JUMP JUMPDEST SWAP1 POP DUP2 DUP2 SUB PUSH1 0x40 DUP4 ADD MSTORE PUSH2 0x2E26 DUP2 DUP10 PUSH2 0x2AFD JUMP JUMPDEST SWAP1 POP PUSH2 0x2E35 PUSH1 0x60 DUP4 ADD DUP9 PUSH2 0x2552 JUMP JUMPDEST PUSH2 0x2E42 PUSH1 0x80 DUP4 ADD DUP8 PUSH2 0x2552 JUMP JUMPDEST PUSH2 0x2E4F PUSH1 0xA0 DUP4 ADD DUP7 PUSH2 0x2552 JUMP JUMPDEST PUSH2 0x2E5C PUSH1 0xC0 DUP4 ADD DUP6 PUSH2 0x264E JUMP JUMPDEST PUSH2 0x2E69 PUSH1 0xE0 DUP4 ADD DUP5 PUSH2 0x264E JUMP JUMPDEST SWAP10 SWAP9 POP POP POP POP POP POP POP POP POP JUMP JUMPDEST PUSH1 0x0 DUP1 PUSH1 0x40 DUP4 DUP6 SUB SLT ISZERO PUSH2 0x2E8D JUMPI PUSH2 0x2E8C PUSH2 0x2586 JUMP JUMPDEST JUMPDEST PUSH1 0x0 PUSH2 0x2E9B DUP6 DUP3 DUP7 ADD PUSH2 0x2771 JUMP JUMPDEST SWAP3 POP POP PUSH1 0x20 PUSH2 0x2EAC DUP6 DUP3 DUP7 ADD PUSH2 0x26D3 JUMP JUMPDEST SWAP2 POP POP SWAP3 POP SWAP3 SWAP1 POP JUMP JUMPDEST PUSH1 0x0 DUP1 PUSH1 0x0 DUP1 PUSH1 0x40 DUP6 DUP8 SUB SLT ISZERO PUSH2 0x2ED0 JUMPI PUSH2 0x2ECF PUSH2 0x2586 JUMP JUMPDEST JUMPDEST PUSH1 0x0 DUP6 ADD CALLDATALOAD PUSH8 0xFFFFFFFFFFFFFFFF DUP2 GT ISZERO PUSH2 0x2EEE JUMPI PUSH2 0x2EED PUSH2 0x258B JUMP JUMPDEST JUMPDEST PUSH2 0x2EFA DUP8 DUP3 DUP9 ADD PUSH2 0x259F JUMP JUMPDEST SWAP5 POP SWAP5 POP POP PUSH1 0x20 DUP6 ADD CALLDATALOAD PUSH8 0xFFFFFFFFFFFFFFFF DUP2 GT ISZERO PUSH2 0x2F1D JUMPI PUSH2 0x2F1C PUSH2 0x258B JUMP JUMPDEST JUMPDEST PUSH2 0x2F29 DUP8 DUP3 DUP9 ADD PUSH2 0x259F JUMP JUMPDEST SWAP3 POP SWAP3 POP POP SWAP3 SWAP6 SWAP2 SWAP5 POP SWAP3 POP JUMP JUMPDEST PUSH1 0x0 DUP2 SWAP1 POP SWAP3 SWAP2 POP POP JUMP JUMPDEST DUP3 DUP2 DUP4 CALLDATACOPY PUSH1 0x0 DUP4 DUP4 ADD MSTORE POP POP POP JUMP JUMPDEST PUSH1 0x0 PUSH2 0x2F5D DUP4 DUP6 PUSH2 0x2F37 JUMP JUMPDEST SWAP4 POP PUSH2 0x2F6A DUP4 DUP6 DUP5 PUSH2 0x2F42 JUMP JUMPDEST DUP3 DUP5 ADD SWAP1 POP SWAP4 SWAP3 POP POP POP JUMP JUMPDEST PUSH1 0x0 PUSH2 0x2F83 DUP3 DUP5 DUP7 PUSH2 0x2F51 JUMP JUMPDEST SWAP2 POP DUP2 SWAP1 POP SWAP4 SWAP3 POP POP POP JUMP JUMPDEST PUSH32 0x4E6F74207665726966696564206167656E740000000000000000000000000000 PUSH1 0x0 DUP3 ADD MSTORE POP JUMP JUMPDEST PUSH1 0x0 PUSH2 0x2FC5 PUSH1 0x12 DUP4 PUSH2 0x2AEC JUMP JUMPDEST SWAP2 POP PUSH2 0x2FD0 DUP3 PUSH2 0x2F8F JUMP JUMPDEST PUSH1 0x20 DUP3 ADD SWAP1 POP SWAP2 SWAP1 POP JUMP JUMPDEST PUSH1 0x0 PUSH1 0x20 DUP3 ADD SWAP1 POP DUP2 DUP2 SUB PUSH1 0x0 DUP4 ADD MSTORE PUSH2 0x2FF4 DUP2 PUSH2 0x2FB8 JUMP JUMPDEST SWAP1 POP SWAP2 SWAP1 POP JUMP JUMPDEST PUSH32 0x536B696C6C206E6F7420666F756E640000000000000000000000000000000000 PUSH1 0x0 DUP3 ADD MSTORE POP JUMP JUMPDEST PUSH1 0x0 PUSH2 0x3031 PUSH1 0xF DUP4 PUSH2 0x2AEC JUMP JUMPDEST SWAP2 POP PUSH2 0x303C DUP3 PUSH2 0x2FFB JUMP JUMPDEST PUSH1 0x20 DUP3 ADD SWAP1 POP SWAP2 SWAP1 POP JUMP JUMPDEST PUSH1 0x0 PUSH1 0x20 DUP3 ADD SWAP1 POP DUP2 DUP2 SUB PUSH1 0x0 DUP4 ADD MSTORE PUSH2 0x3060 DUP2 PUSH2 0x3024 JUMP JUMPDEST SWAP1 POP SWAP2 SWAP1 POP JUMP JUMPDEST PUSH32 0x496E76616C69642073636F726500000000000000000000000000000000000000 PUSH1 0x0 DUP3 ADD MSTORE POP JUMP JUMPDEST PUSH1 0x0 PUSH2 0x309D PUSH1 0xD DUP4 PUSH2 0x2AEC JUMP JUMPDEST SWAP2 POP PUSH2 0x30A8 DUP3 PUSH2 0x3067 JUMP JUMPDEST PUSH1 0x20 DUP3 ADD SWAP1 POP SWAP2 SWAP1 POP JUMP JUMPDEST PUSH1 0x0 PUSH1 0x20 DUP3 ADD SWAP1 POP DUP2 DUP2 SUB PUSH1 0x0 DUP4 ADD MSTORE PUSH2 0x30CC DUP2 PUSH2 0x3090 JUMP JUMPDEST SWAP1 POP SWAP2 SWAP1 POP JUMP JUMPDEST PUSH32 0x4E487B7100000000000000000000000000000000000000000000000000000000 PUSH1 0x0 MSTORE PUSH1 0x11 PUSH1 0x4 MSTORE PUSH1 0x24 PUSH1 0x0 REVERT JUMPDEST PUSH1 0x0 PUSH2 0x310D DUP3 PUSH2 0x2548 JUMP JUMPDEST SWAP2 POP PUSH32 0xFFFFFFFFFFFFFFFFFFFFFFFFFFFFFFFFFFFFFFFFFFFFFFFFFFFFFFFFFFFFFFFF DUP3 SUB PUSH2 0x313F JUMPI PUSH2 0x313E PUSH2 0x30D3 JUMP JUMPDEST JUMPDEST PUSH1 0x1 DUP3 ADD SWAP1 POP SWAP2 SWAP1 POP JUMP JUMPDEST PUSH1 0x0 PUSH2 0x3155 DUP3 PUSH2 0x2548 JUMP JUMPDEST SWAP2 POP PUSH2 0x3160 DUP4 PUSH2 0x2548 JUMP JUMPDEST SWAP3 POP DUP3 DUP3 ADD SWAP1 POP DUP1 DUP3 GT ISZERO PUSH2 0x3178 JUMPI PUSH2 0x3177 PUSH2 0x30D3 JUMP JUMPDEST JUMPDEST SWAP3 SWAP2 POP POP JUMP JUMPDEST PUSH32 0x4E487B7100000000000000000000000000000000000000000000000000000000 PUSH1 0x0 MSTORE PUSH1 0x12 PUSH1 0x4 MSTORE PUSH1 0x24 PUSH1 0x0 REVERT JUMPDEST PUSH1 0x0 PUSH2 0x31B8 DUP3 PUSH2 0x2548 JUMP JUMPDEST SWAP2 POP PUSH2 0x31C3 DUP4 PUSH2 0x2548 JUMP JUMPDEST SWAP3 POP DUP3 PUSH2 0x31D3 JUMPI PUSH2 0x31D2 PUSH2 0x317E JUMP JUMPDEST JUMPDEST DUP3 DUP3 DIV SWAP1 POP SWAP3 SWAP2 POP POP JUMP JUMPDEST PUSH32 0x4E6F742072656769737465726564000000000000000000000000000000000000 PUSH1 0x0 DUP3 ADD MSTORE POP JUMP JUMPDEST PUSH1 0x0 PUSH2 0x3214 PUSH1 0xE DUP4 PUSH2 0x2AEC JUMP JUMPDEST SWAP2 POP PUSH2 0x321F DUP3 PUSH2 0x31DE JUMP JUMPDEST PUSH1 0x20 DUP3 ADD SWAP1 POP SWAP2 SWAP1 POP JUMP JUMPDEST PUSH1 0x0 PUSH1 0x20 DUP3 ADD SWAP1 POP DUP2 DUP2 SUB PUSH1 0x0 DUP4 ADD MSTORE PUSH2 0x3243 DUP2 PUSH2 0x3207 JUMP JUMPDEST SWAP1 POP SWAP2 SWAP1 POP JUMP JUMPDEST PUSH1 0x0 PUSH2 0x3256 DUP4 DUP6 PUSH2 0x2AEC JUMP JUMPDEST SWAP4 POP PUSH2 0x3263 DUP4 DUP6 DUP5 PUSH2 0x2F42 JUMP JUMPDEST PUSH2 0x326C DUP4 PUSH2 0x2916 JUMP JUMPDEST DUP5 ADD SWAP1 POP SWAP4 SWAP3 POP POP POP JUMP JUMPDEST PUSH1 0x0 PUSH1 0x20 DUP3 ADD SWAP1 POP DUP2 DUP2 SUB PUSH1 0x0 DUP4 ADD MSTORE PUSH2 0x3292 DUP2 DUP5 DUP7 PUSH2 0x324A JUMP JUMPDEST SWAP1 POP SWAP4 SWAP3 POP POP POP JUMP JUMPDEST PUSH32 0x4167656E742062616E6E65640000000000000000000000000000000000000000 PUSH1 0x0 DUP3 ADD MSTORE POP JUMP JUMPDEST PUSH1 0x0 PUSH2 0x32D1 PUSH1 0xC DUP4 PUSH2 0x2AEC JUMP JUMPDEST SWAP2 POP PUSH2 0x32DC DUP3 PUSH2 0x329B JUMP JUMPDEST PUSH1 0x20 DUP3 ADD SWAP1 POP SWAP2 SWAP1 POP JUMP JUMPDEST PUSH1 0x0 PUSH1 0x20 DUP3 ADD SWAP1 POP DUP2 DUP2 SUB PUSH1 0x0 DUP4 ADD MSTORE PUSH2 0x3300 DUP2 PUSH2 0x32C4 JUMP JUMPDEST SWAP1 POP SWAP2 SWAP1 POP JUMP JUMPDEST PUSH1 0x0 DUP3 SWAP1 POP SWAP3 SWAP2 POP POP JUMP JUMPDEST PUSH32 0x4E487B7100000000000000000000000000000000000000000000000000000000 PUSH1 0x0 MSTORE PUSH1 0x41 PUSH1 0x4 MSTORE PUSH1 0x24 PUSH1 0x0 REVERT JUMPDEST PUSH32 0x4E487B7100000000000000000000000000000000000000000000000000000000 PUSH1 0x0 MSTORE PUSH1 0x22 PUSH1 0x4 MSTORE PUSH1 0x24 PUSH1 0x0 REVERT JUMPDEST PUSH1 0x0 PUSH1 0x2 DUP3 DIV SWAP1 POP PUSH1 0x1 DUP3 AND DUP1 PUSH2 0x3388 JUMPI PUSH1 0x7F DUP3 AND SWAP2 POP JUMPDEST PUSH1 0x20 DUP3 LT DUP2 SUB PUSH2 0x339B JUMPI PUSH2 0x339A PUSH2 0x3341 JUMP JUMPDEST JUMPDEST POP SWAP2 SWAP1 POP JUMP JUMPDEST PUSH1 0x0 DUP2 SWAP1 POP DUP2 PUSH1 0x0 MSTORE PUSH1 0x20 PUSH1 0x0 KECCAK256 SWAP1 POP SWAP2 SWAP1 POP JUMP JUMPDEST PUSH1 0x0 PUSH1 0x20 PUSH1 0x1F DUP4 ADD DIV SWAP1 POP SWAP2 SWAP1 POP JUMP JUMPDEST PUSH1 0x0 DUP3 DUP3 SHL SWAP1 POP SWAP3 SWAP2 POP POP JUMP JUMPDEST PUSH1 0x0 PUSH1 0x8 DUP4 MUL PUSH2 0x3403 PUSH32 0xFFFFFFFFFFFFFFFFFFFFFFFFFFFFFFFFFFFFFFFFFFFFFFFFFFFFFFFFFFFFFFFF DUP3 PUSH2 0x33C6 JUMP JUMPDEST PUSH2 0x340D DUP7 DUP4 PUSH2 0x33C6 JUMP JUMPDEST SWAP6 POP DUP1 NOT DUP5 AND SWAP4 POP DUP1 DUP7 AND DUP5 OR SWAP3 POP POP POP SWAP4 SWAP3 POP POP POP JUMP JUMPDEST PUSH1 0x0 DUP2 SWAP1 POP SWAP2 SWAP1 POP JUMP JUMPDEST PUSH1 0x0 PUSH2 0x344A PUSH2 0x3445 PUSH2 0x3440 DUP5 PUSH2 0x2548 JUMP JUMPDEST PUSH2 0x3425 JUMP JUMPDEST PUSH2 0x2548 JUMP JUMPDEST SWAP1 POP SWAP2 SWAP1 POP JUMP JUMPDEST PUSH1 0x0 DUP2 SWAP1 POP SWAP2 SWAP1 POP JUMP JUMPDEST PUSH2 0x3464 DUP4 PUSH2 0x342F JUMP JUMPDEST PUSH2 0x3478 PUSH2 0x3470 DUP3 PUSH2 0x3451 JUMP JUMPDEST DUP5 DUP5 SLOAD PUSH2 0x33D3 JUMP JUMPDEST DUP3 SSTORE POP POP POP POP JUMP JUMPDEST PUSH1 0x0 SWAP1 JUMP JUMPDEST PUSH2 0x348D PUSH2 0x3480 JUMP JUMPDEST PUSH2 0x3498 DUP2 DUP5 DUP5 PUSH2 0x345B JUMP JUMPDEST POP POP POP JUMP JUMPDEST JUMPDEST DUP2 DUP2 LT ISZERO PUSH2 0x34BC JUMPI PUSH2 0x34B1 PUSH1 0x0 DUP3 PUSH2 0x3485 JUMP JUMPDEST PUSH1 0x1 DUP2 ADD SWAP1 POP PUSH2 0x349E JUMP JUMPDEST POP POP JUMP JUMPDEST PUSH1 0x1F DUP3 GT ISZERO PUSH2 0x3501 JUMPI PUSH2 0x34D2 DUP2 PUSH2 0x33A1 JUMP JUMPDEST PUSH2 0x34DB DUP5 PUSH2 0x33B6 JUMP JUMPDEST DUP2 ADD PUSH1 0x20 DUP6 LT ISZERO PUSH2 0x34EA JUMPI DUP2 SWAP1 POP JUMPDEST PUSH2 0x34FE PUSH2 0x34F6 DUP6 PUSH2 0x33B6 JUMP JUMPDEST DUP4 ADD DUP3 PUSH2 0x349D JUMP JUMPDEST POP POP JUMPDEST POP POP POP JUMP JUMPDEST PUSH1 0x0 DUP3 DUP3 SHR SWAP1 POP SWAP3 SWAP2 POP POP JUMP JUMPDEST PUSH1 0x0 PUSH2 0x3524 PUSH1 0x0 NOT DUP5 PUSH1 0x8 MUL PUSH2 0x3506 JUMP JUMPDEST NOT DUP1 DUP4 AND SWAP2 POP POP SWAP3 SWAP2 POP POP JUMP JUMPDEST PUSH1 0x0 PUSH2 0x353D DUP4 DUP4 PUSH2 0x3513 JUMP JUMPDEST SWAP2 POP DUP3 PUSH1 0x2 MUL DUP3 OR SWAP1 POP SWAP3 SWAP2 POP POP JUMP JUMPDEST PUSH2 0x3557 DUP4 DUP4 PUSH2 0x3307 JUMP JUMPDEST PUSH8 0xFFFFFFFFFFFFFFFF DUP2 GT ISZERO PUSH2 0x3570 JUMPI PUSH2 0x356F PUSH2 0x3312 JUMP JUMPDEST JUMPDEST PUSH2 0x357A DUP3 SLOAD PUSH2 0x3370 JUMP JUMPDEST PUSH2 0x3585 DUP3 DUP3 DUP6 PUSH2 0x34C0 JUMP JUMPDEST PUSH1 0x0 PUSH1 0x1F DUP4 GT PUSH1 0x1 DUP2 EQ PUSH2 0x35B4 JUMPI PUSH1 0x0 DUP5 ISZERO PUSH2 0x35A2 JUMPI DUP3 DUP8 ADD CALLDATALOAD SWAP1 POP JUMPDEST PUSH2 0x35AC DUP6 DUP3 PUSH2 0x3531 JUMP JUMPDEST DUP7 SSTORE POP PUSH2 0x3614 JUMP JUMPDEST PUSH1 0x1F NOT DUP5 AND PUSH2 0x35C2 DUP7 PUSH2 0x33A1 JUMP JUMPDEST PUSH1 0x0 JUMPDEST DUP3 DUP2 LT ISZERO PUSH2 0x35EA JUMPI DUP5 DUP10 ADD CALLDATALOAD DUP3 SSTORE PUSH1 0x1 DUP3 ADD SWAP2 POP PUSH1 0x20 DUP6 ADD SWAP5 POP PUSH1 0x20 DUP2 ADD SWAP1 POP PUSH2 0x35C5 JUMP JUMPDEST DUP7 DUP4 LT ISZERO PUSH2 0x3607 JUMPI DUP5 DUP10 ADD CALLDATALOAD PUSH2 0x3603 PUSH1 0x1F DUP10 AND DUP3 PUSH2 0x3513 JUMP JUMPDEST DUP4 SSTORE POP JUMPDEST PUSH1 0x1 PUSH1 0x2 DUP9 MUL ADD DUP9 SSTORE POP POP POP JUMPDEST POP POP POP POP POP POP POP JUMP JUMPDEST PUSH32 0x536B696C6C206578697374730000000000000000000000000000000000000000 PUSH1 0x0 DUP3 ADD MSTORE POP JUMP JUMPDEST PUSH1 0x0 PUSH2 0x3653 PUSH1 0xC DUP4 PUSH2 0x2AEC JUMP JUMPDEST SWAP2 POP PUSH2 0x365E DUP3 PUSH2 0x361D JUMP JUMPDEST PUSH1 0x20 DUP3 ADD SWAP1 POP SWAP2 SWAP1 POP JUMP JUMPDEST PUSH1 0x0 PUSH1 0x20 DUP3 ADD SWAP1 POP DUP2 DUP2 SUB PUSH1 0x0 DUP4 ADD MSTORE PUSH2 0x3682 DUP2 PUSH2 0x3646 JUMP JUMPDEST SWAP1 POP SWAP2 SWAP1 POP JUMP JUMPDEST PUSH2 0x3692 DUP3 PUSH2 0x28D0 JUMP JUMPDEST PUSH8 0xFFFFFFFFFFFFFFFF DUP2 GT ISZERO PUSH2 0x36AB JUMPI PUSH2 0x36AA PUSH2 0x3312 JUMP JUMPDEST JUMPDEST PUSH2 0x36B5 DUP3 SLOAD PUSH2 0x3370 JUMP JUMPDEST PUSH2 0x36C0 DUP3 DUP3 DUP6 PUSH2 0x34C0 JUMP JUMPDEST PUSH1 0x0 PUSH1 0x20 SWAP1 POP PUSH1 0x1F DUP4 GT PUSH1 0x1 DUP2 EQ PUSH2 0x36F3 JUMPI PUSH1 0x0 DUP5 ISZERO PUSH2 0x36E1 JUMPI DUP3 DUP8 ADD MLOAD SWAP1 POP JUMPDEST PUSH2 0x36EB DUP6 DUP3 PUSH2 0x3531 JUMP JUMPDEST DUP7 SSTORE POP PUSH2 0x3753 JUMP JUMPDEST PUSH1 0x1F NOT DUP5 AND PUSH2 0x3701 DUP7 PUSH2 0x33A1 JUMP JUMPDEST PUSH1 0x0 JUMPDEST DUP3 DUP2 LT ISZERO PUSH2 0x3729 JUMPI DUP5 DUP10 ADD MLOAD DUP3 SSTORE PUSH1 0x1 DUP3 ADD SWAP2 POP PUSH1 0x20 DUP6 ADD SWAP5 POP PUSH1 0x20 DUP2 ADD SWAP1 POP PUSH2 0x3704 JUMP JUMPDEST DUP7 DUP4 LT ISZERO PUSH2 0x3746 JUMPI DUP5 DUP10 ADD MLOAD PUSH2 0x3742 PUSH1 0x1F DUP10 AND DUP3 PUSH2 0x3513 JUMP JUMPDEST DUP4 SSTORE POP JUMPDEST PUSH1 0x1 PUSH1 0x2 DUP9 MUL ADD DUP9 SSTORE POP POP POP JUMPDEST POP POP POP POP POP POP JUMP JUMPDEST PUSH1 0x0 PUSH1 0x40 DUP3 ADD SWAP1 POP DUP2 DUP2 SUB PUSH1 0x0 DUP4 ADD MSTORE PUSH2 0x3776 DUP2 DUP6 DUP8 PUSH2 0x324A JUMP JUMPDEST SWAP1 POP PUSH2 0x3785 PUSH1 0x20 DUP4 ADD DUP5 PUSH2 0x286A JUMP JUMPDEST SWAP5 SWAP4 POP POP POP POP JUMP JUMPDEST PUSH32 0x496E76616C6964207269736B206C6576656C0000000000000000000000000000 PUSH1 0x0 DUP3 ADD MSTORE POP JUMP JUMPDEST PUSH1 0x0 PUSH2 0x37C3 PUSH1 0x12 DUP4 PUSH2 0x2AEC JUMP JUMPDEST SWAP2 POP PUSH2 0x37CE DUP3 PUSH2 0x378D JUMP JUMPDEST PUSH1 0x20 DUP3 ADD SWAP1 POP SWAP2 SWAP1 POP JUMP JUMPDEST PUSH1 0x0 PUSH1 0x20 DUP3 ADD SWAP1 POP DUP2 DUP2 SUB PUSH1 0x0 DUP4 ADD MSTORE PUSH2 0x37F2 DUP2 PUSH2 0x37B6 JUMP JUMPDEST SWAP1 POP SWAP2 SWAP1 POP JUMP JUMPDEST PUSH1 0x0 DUP2 PUSH1 0x60 SHL SWAP1 POP SWAP2 SWAP1 POP JUMP JUMPDEST PUSH1 0x0 PUSH2 0x3811 DUP3 PUSH2 0x37F9 JUMP JUMPDEST SWAP1 POP SWAP2 SWAP1 POP JUMP JUMPDEST PUSH1 0x0 PUSH2 0x3823 DUP3 PUSH2 0x3806 JUMP JUMPDEST SWAP1 POP SWAP2 SWAP1 POP JUMP JUMPDEST PUSH2 0x383B PUSH2 0x3836 DUP3 PUSH2 0x2748 JUMP JUMPDEST PUSH2 0x3818 JUMP JUMPDEST DUP3 MSTORE POP POP JUMP JUMPDEST PUSH1 0x0 DUP2 SWAP1 POP SWAP2 SWAP1 POP JUMP JUMPDEST PUSH2 0x385C PUSH2 0x3857 DUP3 PUSH2 0x2548 JUMP JUMPDEST PUSH2 0x3841 JUMP JUMPDEST DUP3 MSTORE POP POP JUMP JUMPDEST PUSH1 0x0 PUSH2 0x386E DUP3 DUP8 PUSH2 0x382A JUMP JUMPDEST PUSH1 0x14 DUP3 ADD SWAP2 POP PUSH2 0x387F DUP3 DUP6 DUP8 PUSH2 0x2F51 JUMP JUMPDEST SWAP2 POP PUSH2 0x388B DUP3 DUP5 PUSH2 0x384B JUMP JUMPDEST PUSH1 0x20 DUP3 ADD SWAP2 POP DUP2 SWAP1 POP SWAP6 SWAP5 POP POP POP POP POP JUMP JUMPDEST PUSH2 0x38A6 DUP3 PUSH2 0x2916 JUMP JUMPDEST DUP2 ADD DUP2 DUP2 LT PUSH8 0xFFFFFFFFFFFFFFFF DUP3 GT OR ISZERO PUSH2 0x38C5 JUMPI PUSH2 0x38C4 PUSH2 0x3312 JUMP JUMPDEST JUMPDEST DUP1 PUSH1 0x40 MSTORE POP POP POP JUMP JUMPDEST PUSH1 0x0 PUSH2 0x38D8 PUSH2 0x257C JUMP JUMPDEST SWAP1 POP PUSH2 0x38E4 DUP3 DUP3 PUSH2 0x389D JUMP JUMPDEST SWAP2 SWAP1 POP JUMP JUMPDEST PUSH1 0x0 PUSH8 0xFFFFFFFFFFFFFFFF DUP3 GT ISZERO PUSH2 0x3904 JUMPI PUSH2 0x3903 PUSH2 0x3312 JUMP JUMPDEST JUMPDEST PUSH1 0x20 DUP3 MUL SWAP1 POP PUSH1 0x20 DUP2 ADD SWAP1 POP SWAP2 SWAP1 POP JUMP JUMPDEST PUSH1 0x0 DUP1 REVERT JUMPDEST PUSH1 0x0 PUSH8 0xFFFFFFFFFFFFFFFF DUP3 GT ISZERO PUSH2 0x3935 JUMPI PUSH2 0x3934 PUSH2 0x3312 JUMP JUMPDEST JUMPDEST PUSH2 0x393E DUP3 PUSH2 0x2916 JUMP JUMPDEST SWAP1 POP PUSH1 0x20 DUP2 ADD SWAP1 POP SWAP2 SWAP1 POP JUMP JUMPDEST PUSH1 0x0 PUSH2 0x395E PUSH2 0x3959 DUP5 PUSH2 0x391A JUMP JUMPDEST PUSH2 0x38CE JUMP JUMPDEST SWAP1 POP DUP3 DUP2 MSTORE PUSH1 0x20 DUP2 ADD DUP5 DUP5 DUP5 ADD GT ISZERO PUSH2 0x397A JUMPI PUSH2 0x3979 PUSH2 0x3915 JUMP JUMPDEST JUMPDEST PUSH2 0x3985 DUP5 DUP3 DUP6 PUSH2 0x2F42 JUMP JUMPDEST POP SWAP4 SWAP3 POP POP POP JUMP JUMPDEST PUSH1 0x0 DUP3 PUSH1 0x1F DUP4 ADD SLT PUSH2 0x39A2 JUMPI PUSH2 0x39A1 PUSH2 0x2590 JUMP JUMPDEST JUMPDEST DUP2 CALLDATALOAD PUSH2 0x39B2 DUP5 DUP3 PUSH1 0x20 DUP7 ADD PUSH2 0x394B JUMP JUMPDEST SWAP2 POP POP SWAP3 SWAP2 POP POP JUMP JUMPDEST PUSH1 0x0 PUSH2 0x39CE PUSH2 0x39C9 DUP5 PUSH2 0x38E9 JUMP JUMPDEST PUSH2 0x38CE JUMP JUMPDEST SWAP1 POP DUP1 DUP4 DUP3 MSTORE PUSH1 0x20 DUP3 ADD SWAP1 POP PUSH1 0x20 DUP5 MUL DUP4 ADD DUP6 DUP2 GT ISZERO PUSH2 0x39F1 JUMPI PUSH2 0x39F0 PUSH2 0x259A JUMP JUMPDEST JUMPDEST DUP4 JUMPDEST DUP2 DUP2 LT ISZERO PUSH2 0x3A38 JUMPI DUP1 CALLDATALOAD PUSH8 0xFFFFFFFFFFFFFFFF DUP2 GT ISZERO PUSH2 0x3A16 JUMPI PUSH2 0x3A15 PUSH2 0x2590 JUMP JUMPDEST JUMPDEST DUP1 DUP7 ADD PUSH2 0x3A23 DUP10 DUP3 PUSH2 0x398D JUMP JUMPDEST DUP6 MSTORE PUSH1 0x20 DUP6 ADD SWAP5 POP POP POP PUSH1 0x20 DUP2 ADD SWAP1 POP PUSH2 0x39F3 JUMP JUMPDEST POP POP POP SWAP4 SWAP3 POP POP POP JUMP JUMPDEST PUSH1 0x0 PUSH2 0x3A4F CALLDATASIZE DUP5 DUP5 PUSH2 0x39BB JUMP JUMPDEST SWAP1 POP SWAP3 SWAP2 POP POP JUMP JUMPDEST PUSH1 0x0 PUSH1 0x20 DUP3 ADD SWAP1 POP PUSH2 0x3A6C PUSH1 0x0 DUP4 ADD DUP5 PUSH2 0x2B36 JUMP JUMPDEST SWAP3 SWAP2 POP POP JUMP JUMPDEST PUSH1 0x0 PUSH1 0x40 DUP3 ADD SWAP1 POP PUSH2 0x3A87 PUSH1 0x0 DUP4 ADD DUP6 PUSH2 0x2552 JUMP JUMPDEST PUSH2 0x3A94 PUSH1 0x20 DUP4 ADD DUP5 PUSH2 0x2552 JUMP JUMPDEST SWAP4 SWAP3 POP POP POP JUMP JUMPDEST PUSH32 0x416C726561647920726567697374657265640000000000000000000000000000 PUSH1 0x0 DUP3 ADD MSTORE POP JUMP JUMPDEST PUSH1 0x0 PUSH2 0x3AD1 PUSH1 0x12 DUP4 PUSH2 0x2AEC JUMP JUMPDEST SWAP2 POP PUSH2 0x3ADC DUP3 PUSH2 0x3A9B JUMP JUMPDEST PUSH1 0x20 DUP3 ADD SWAP1 POP SWAP2 SWAP1 POP JUMP JUMPDEST PUSH1 0x0 PUSH1 0x20 DUP3 ADD SWAP1 POP DUP2 DUP2 SUB PUSH1 0x0 DUP4 ADD MSTORE PUSH2 0x3B00 DUP2 PUSH2 0x3AC4 JUMP JUMPDEST SWAP1 POP SWAP2 SWAP1 POP JUMP JUMPDEST PUSH32 0x4E616D6520726571756972656400000000000000000000000000000000000000 PUSH1 0x0 DUP3 ADD MSTORE POP JUMP JUMPDEST PUSH1 0x0 PUSH2 0x3B3D PUSH1 0xD DUP4 PUSH2 0x2AEC JUMP JUMPDEST SWAP2 POP PUSH2 0x3B48 DUP3 PUSH2 0x3B07 JUMP JUMPDEST PUSH1 0x20 DUP3 ADD SWAP1 POP SWAP2 SWAP1 POP JUMP JUMPDEST PUSH1 0x0 PUSH1 0x20 DUP3 ADD SWAP1 POP DUP2 DUP2 SUB PUSH1 0x0 DUP4 ADD MSTORE PUSH2 0x3B6C DUP2 PUSH2 0x3B30 JUMP JUMPDEST SWAP1 POP SWAP2 SWAP1 POP JUMP JUMPDEST PUSH1 0x0 PUSH1 0x40 DUP3 ADD SWAP1 POP DUP2 DUP2 SUB PUSH1 0x0 DUP4 ADD MSTORE PUSH2 0x3B8E DUP2 DUP6 DUP8 PUSH2 0x324A JUMP JUMPDEST SWAP1 POP PUSH2 0x3B9D PUSH1 0x20 DUP4 ADD DUP5 PUSH2 0x2552 JUMP JUMPDEST SWAP5 SWAP4 POP POP POP POP JUMP JUMPDEST PUSH1 0x0 DUP2 SWAP1 POP SWAP2 SWAP1 POP JUMP JUMPDEST PUSH1 0x0 PUSH2 0x3BBA DUP3 PUSH2 0x3BA5 JUMP JUMPDEST SWAP2 POP PUSH32 0x8000000000000000000000000000000000000000000000000000000000000000 DUP3 SUB PUSH2 0x3BEC JUMPI PUSH2 0x3BEB PUSH2 0x30D3 JUMP JUMPDEST JUMPDEST DUP2 PUSH1 0x0 SUB SWAP1 POP SWAP2 SWAP1 POP JUMP JUMPDEST PUSH1 0x0 PUSH2 0x3C02 DUP3 PUSH2 0x2548 JUMP JUMPDEST SWAP2 POP PUSH2 0x3C0D DUP4 PUSH2 0x2548 JUMP JUMPDEST SWAP3 POP DUP3 DUP3 SUB SWAP1 POP DUP2 DUP2 GT ISZERO PUSH2 0x3C25 JUMPI PUSH2 0x3C24 PUSH2 0x30D3 JUMP JUMPDEST JUMPDEST SWAP3 SWAP2 POP POP JUMP INVALID LOG2 PUSH5 0x6970667358 0x22 SLT KECCAK256 0xEB 0xCE DUP2 0xB2 0xA5 0xAF 0xFC 0x24 0xBC SAR CALLDATASIZE CREATE2 0x4C INVALID EXTCODEHASH 0xE4 0xE5 PUSH0 0xF9 GASPRICE 0x4A DUP16 PUSH6 0x3AAD4E6928F2 PUSH27 0x57DA64736F6C634300081400330000000000000000000000000000 "},"methodIdentifiers":{"INITIAL_TRUST_SCORE()":"a91a36e9","MAX_TRUST_SCORE()":"74c8d377","MIN_TRUST_SCORE()":"057e709c","agents(address)":"fd66091e","allScans(uint256)":"362d26b3","banAgent(address,string)":"4a073874","getAgent(address)":"fb3551ff","getAgentCount()":"91cab63e","getScan(bytes32)":"ad436cc3","getScanCount()":"8910cb66","isSkillTrusted(string)":"0f9c5a4b","owner()":"8da5cb5b","registerAgent(string,string)":"ff17aca4","registeredAgents(uint256)":"a7bd211c","renounceOwnership()":"715018a6","scans(bytes32)":"c4b31084","setTrustScore(address,uint256)":"feec4758","submitScan(string,uint8,string[])":"f2c5cb19","submitSkill(string)":"734b7ca9","totalAgents()":"c5053712","totalScans()":"0c23792b","transferOwnership(address)":"f2fde38b","trustedSkills(bytes32)":"f2883765","updateManifest(string)":"57200a9e","verifyAgent(address)":"30740952","verifySkill(bytes32,uint256)":"2d6d9101"}}}}}