{
  "_format": "hh-sol-artifact-1",
  "contractName": "NovaGuardian",
  "sourceName": "contracts/NovaGuardian.sol",
  "abi": [
    {
      "inputs": [],
      "stateMutability": "nonpayable",
      "type": "constructor"
    },
    {
      "inputs": [
        {
          "internalType": "address",
          "name": "owner",
          "type": "address"
        }
      ],
      "name": "OwnableInvalidOwner",
      "type": "error"
    },
    {
      "inputs": [
        {
          "internalType": "address",
          "name": "account",
          "type": "address"
        }
      ],
      "name": "OwnableUnauthorizedAccount",
      "type": "error"
    },
    {
      "inputs": [],
      "name": "ReentrancyGuardReentrantCall",
      "type": "error"
    },
    {
      "anonymous": false,
      "inputs": [
        {
          "indexed": true,
          "internalType": "address",
          "name": "wallet",
          "type": "address"
        },
        {
          "indexed": false,
          "internalType": "string",
          "name": "reason",
          "type": "string"
        }
      ],
      "name": "AgentBanned",
      "type": "event"
    },
    {
      "anonymous": false,
      "inputs": [
        {
          "indexed": true,
          "internalType": "address",
          "name": "wallet",
          "type": "address"
        },
        {
          "indexed": false,
          "internalType": "string",
          "name": "name",
          "type": "string"
        },
        {
          "indexed": false,
          "internalType": "uint256",
          "name": "timestamp",
          "type": "uint256"
        }
      ],
      "name": "AgentRegistered",
      "type": "event"
    },
    {
      "anonymous": false,
      "inputs": [
        {
          "indexed": true,
          "internalType": "address",
          "name": "wallet",
          "type": "address"
        },
        {
          "indexed": false,
          "internalType": "uint256",
          "name": "trustScore",
          "type": "uint256"
        }
      ],
      "name": "AgentVerified",
      "type": "event"
    },
    {
      "anonymous": false,
      "inputs": [
        {
          "indexed": true,
          "internalType": "address",
          "name": "previousOwner",
          "type": "address"
        },
        {
          "indexed": true,
          "internalType": "address",
          "name": "newOwner",
          "type": "address"
        }
      ],
      "name": "OwnershipTransferred",
      "type": "event"
    },
    {
      "anonymous": false,
      "inputs": [
        {
          "indexed": true,
          "internalType": "bytes32",
          "name": "scanId",
          "type": "bytes32"
        },
        {
          "indexed": true,
          "internalType": "address",
          "name": "agent",
          "type": "address"
        },
        {
          "indexed": false,
          "internalType": "uint8",
          "name": "riskLevel",
          "type": "uint8"
        }
      ],
      "name": "ScanCompleted",
      "type": "event"
    },
    {
      "anonymous": false,
      "inputs": [
        {
          "indexed": true,
          "internalType": "bytes32",
          "name": "skillId",
          "type": "bytes32"
        },
        {
          "indexed": false,
          "internalType": "uint256",
          "name": "trustScore",
          "type": "uint256"
        }
      ],
      "name": "SkillApproved",
      "type": "event"
    },
    {
      "anonymous": false,
      "inputs": [
        {
          "indexed": true,
          "internalType": "bytes32",
          "name": "skillId",
          "type": "bytes32"
        },
        {
          "indexed": false,
          "internalType": "string",
          "name": "skillHash",
          "type": "string"
        },
        {
          "indexed": false,
          "internalType": "address",
          "name": "submitter",
          "type": "address"
        }
      ],
      "name": "SkillSubmitted",
      "type": "event"
    },
    {
      "anonymous": false,
      "inputs": [
        {
          "indexed": true,
          "internalType": "address",
          "name": "agent",
          "type": "address"
        },
        {
          "indexed": false,
          "internalType": "uint256",
          "name": "oldScore",
          "type": "uint256"
        },
        {
          "indexed": false,
          "internalType": "uint256",
          "name": "newScore",
          "type": "uint256"
        }
      ],
      "name": "TrustScoreUpdated",
      "type": "event"
    },
    {
      "inputs": [],
      "name": "INITIAL_TRUST_SCORE",
      "outputs": [
        {
          "internalType": "uint256",
          "name": "",
          "type": "uint256"
        }
      ],
      "stateMutability": "view",
      "type": "function"
    },
    {
      "inputs": [],
      "name": "MAX_TRUST_SCORE",
      "outputs": [
        {
          "internalType": "uint256",
          "name": "",
          "type": "uint256"
        }
      ],
      "stateMutability": "view",
      "type": "function"
    },
    {
      "inputs": [],
      "name": "MIN_TRUST_SCORE",
      "outputs": [
        {
          "internalType": "uint256",
          "name": "",
          "type": "uint256"
        }
      ],
      "stateMutability": "view",
      "type": "function"
    },
    {
      "inputs": [
        {
          "internalType": "address",
          "name": "",
          "type": "address"
        }
      ],
      "name": "agents",
      "outputs": [
        {
          "internalType": "address",
          "name": "wallet",
          "type": "address"
        },
        {
          "internalType": "string",
          "name": "name",
          "type": "string"
        },
        {
          "internalType": "string",
          "name": "manifestHash",
          "type": "string"
        },
        {
          "internalType": "uint256",
          "name": "trustScore",
          "type": "uint256"
        },
        {
          "internalType": "uint256",
          "name": "scanCount",
          "type": "uint256"
        },
        {
          "internalType": "uint256",
          "name": "registeredAt",
          "type": "uint256"
        },
        {
          "internalType": "bool",
          "name": "isVerified",
          "type": "bool"
        },
        {
          "internalType": "bool",
          "name": "isBanned",
          "type": "bool"
        }
      ],
      "stateMutability": "view",
      "type": "function"
    },
    {
      "inputs": [
        {
          "internalType": "uint256",
          "name": "",
          "type": "uint256"
        }
      ],
      "name": "allScans",
      "outputs": [
        {
          "internalType": "bytes32",
          "name": "",
          "type": "bytes32"
        }
      ],
      "stateMutability": "view",
      "type": "function"
    },
    {
      "inputs": [
        {
          "internalType": "address",
          "name": "agent",
          "type": "address"
        },
        {
          "internalType": "string",
          "name": "reason",
          "type": "string"
        }
      ],
      "name": "banAgent",
      "outputs": [],
      "stateMutability": "nonpayable",
      "type": "function"
    },
    {
      "inputs": [
        {
          "internalType": "address",
          "name": "wallet",
          "type": "address"
        }
      ],
      "name": "getAgent",
      "outputs": [
        {
          "components": [
            {
              "internalType": "address",
              "name": "wallet",
              "type": "address"
            },
            {
              "internalType": "string",
              "name": "name",
              "type": "string"
            },
            {
              "internalType": "string",
              "name": "manifestHash",
              "type": "string"
            },
            {
              "internalType": "uint256",
              "name": "trustScore",
              "type": "uint256"
            },
            {
              "internalType": "uint256",
              "name": "scanCount",
              "type": "uint256"
            },
            {
              "internalType": "uint256",
              "name": "registeredAt",
              "type": "uint256"
            },
            {
              "internalType": "bool",
              "name": "isVerified",
              "type": "bool"
            },
            {
              "internalType": "bool",
              "name": "isBanned",
              "type": "bool"
            }
          ],
          "internalType": "struct NovaGuardian.AgentProfile",
          "name": "",
          "type": "tuple"
        }
      ],
      "stateMutability": "view",
      "type": "function"
    },
    {
      "inputs": [],
      "name": "getAgentCount",
      "outputs": [
        {
          "internalType": "uint256",
          "name": "",
          "type": "uint256"
        }
      ],
      "stateMutability": "view",
      "type": "function"
    },
    {
      "inputs": [
        {
          "internalType": "bytes32",
          "name": "scanId",
          "type": "bytes32"
        }
      ],
      "name": "getScan",
      "outputs": [
        {
          "components": [
            {
              "internalType": "address",
              "name": "agent",
              "type": "address"
            },
            {
              "internalType": "string",
              "name": "targetHash",
              "type": "string"
            },
            {
              "internalType": "uint8",
              "name": "riskLevel",
              "type": "uint8"
            },
            {
              "internalType": "uint256",
              "name": "timestamp",
              "type": "uint256"
            },
            {
              "internalType": "string[]",
              "name": "findings",
              "type": "string[]"
            }
          ],
          "internalType": "struct NovaGuardian.ScanResult",
          "name": "",
          "type": "tuple"
        }
      ],
      "stateMutability": "view",
      "type": "function"
    },
    {
      "inputs": [],
      "name": "getScanCount",
      "outputs": [
        {
          "internalType": "uint256",
          "name": "",
          "type": "uint256"
        }
      ],
      "stateMutability": "view",
      "type": "function"
    },
    {
      "inputs": [
        {
          "internalType": "string",
          "name": "skillHash",
          "type": "string"
        }
      ],
      "name": "isSkillTrusted",
      "outputs": [
        {
          "internalType": "bool",
          "name": "",
          "type": "bool"
        },
        {
          "internalType": "uint256",
          "name": "",
          "type": "uint256"
        }
      ],
      "stateMutability": "view",
      "type": "function"
    },
    {
      "inputs": [],
      "name": "owner",
      "outputs": [
        {
          "internalType": "address",
          "name": "",
          "type": "address"
        }
      ],
      "stateMutability": "view",
      "type": "function"
    },
    {
      "inputs": [
        {
          "internalType": "string",
          "name": "name",
          "type": "string"
        },
        {
          "internalType": "string",
          "name": "manifestHash",
          "type": "string"
        }
      ],
      "name": "registerAgent",
      "outputs": [],
      "stateMutability": "nonpayable",
      "type": "function"
    },
    {
      "inputs": [
        {
          "internalType": "uint256",
          "name": "",
          "type": "uint256"
        }
      ],
      "name": "registeredAgents",
      "outputs": [
        {
          "internalType": "address",
          "name": "",
          "type": "address"
        }
      ],
      "stateMutability": "view",
      "type": "function"
    },
    {
      "inputs": [],
      "name": "renounceOwnership",
      "outputs": [],
      "stateMutability": "nonpayable",
      "type": "function"
    },
    {
      "inputs": [
        {
          "internalType": "bytes32",
          "name": "",
          "type": "bytes32"
        }
      ],
      "name": "scans",
      "outputs": [
        {
          "internalType": "address",
          "name": "agent",
          "type": "address"
        },
        {
          "internalType": "string",
          "name": "targetHash",
          "type": "string"
        },
        {
          "internalType": "uint8",
          "name": "riskLevel",
          "type": "uint8"
        },
        {
          "internalType": "uint256",
          "name": "timestamp",
          "type": "uint256"
        }
      ],
      "stateMutability": "view",
      "type": "function"
    },
    {
      "inputs": [
        {
          "internalType": "address",
          "name": "agent",
          "type": "address"
        },
        {
          "internalType": "uint256",
          "name": "score",
          "type": "uint256"
        }
      ],
      "name": "setTrustScore",
      "outputs": [],
      "stateMutability": "nonpayable",
      "type": "function"
    },
    {
      "inputs": [
        {
          "internalType": "string",
          "name": "targetHash",
          "type": "string"
        },
        {
          "internalType": "uint8",
          "name": "riskLevel",
          "type": "uint8"
        },
        {
          "internalType": "string[]",
          "name": "findings",
          "type": "string[]"
        }
      ],
      "name": "submitScan",
      "outputs": [
        {
          "internalType": "bytes32",
          "name": "scanId",
          "type": "bytes32"
        }
      ],
      "stateMutability": "nonpayable",
      "type": "function"
    },
    {
      "inputs": [
        {
          "internalType": "string",
          "name": "skillHash",
          "type": "string"
        }
      ],
      "name": "submitSkill",
      "outputs": [
        {
          "internalType": "bytes32",
          "name": "skillId",
          "type": "bytes32"
        }
      ],
      "stateMutability": "nonpayable",
      "type": "function"
    },
    {
      "inputs": [],
      "name": "totalAgents",
      "outputs": [
        {
          "internalType": "uint256",
          "name": "",
          "type": "uint256"
        }
      ],
      "stateMutability": "view",
      "type": "function"
    },
    {
      "inputs": [],
      "name": "totalScans",
      "outputs": [
        {
          "internalType": "uint256",
          "name": "",
          "type": "uint256"
        }
      ],
      "stateMutability": "view",
      "type": "function"
    },
    {
      "inputs": [
        {
          "internalType": "address",
          "name": "newOwner",
          "type": "address"
        }
      ],
      "name": "transferOwnership",
      "outputs": [],
      "stateMutability": "nonpayable",
      "type": "function"
    },
    {
      "inputs": [
        {
          "internalType": "bytes32",
          "name": "",
          "type": "bytes32"
        }
      ],
      "name": "trustedSkills",
      "outputs": [
        {
          "internalType": "string",
          "name": "skillHash",
          "type": "string"
        },
        {
          "internalType": "address",
          "name": "submitter",
          "type": "address"
        },
        {
          "internalType": "uint256",
          "name": "trustScore",
          "type": "uint256"
        },
        {
          "internalType": "uint256",
          "name": "verifications",
          "type": "uint256"
        },
        {
          "internalType": "bool",
          "name": "isApproved",
          "type": "bool"
        }
      ],
      "stateMutability": "view",
      "type": "function"
    },
    {
      "inputs": [
        {
          "internalType": "string",
          "name": "manifestHash",
          "type": "string"
        }
      ],
      "name": "updateManifest",
      "outputs": [],
      "stateMutability": "nonpayable",
      "type": "function"
    },
    {
      "inputs": [
        {
          "internalType": "address",
          "name": "agent",
          "type": "address"
        }
      ],
      "name": "verifyAgent",
      "outputs": [],
      "stateMutability": "nonpayable",
      "type": "function"
    },
    {
      "inputs": [
        {
          "internalType": "bytes32",
          "name": "skillId",
          "type": "bytes32"
        },
        {
          "internalType": "uint256",
          "name": "score",
          "type": "uint256"
        }
      ],
      "name": "verifySkill",
      "outputs": [],
      "stateMutability": "nonpayable",
      "type": "function"
    }
  ],
  "bytecode": "0x60806040523480156200001157600080fd5b5033600073ffffffffffffffffffffffffffffffffffffffff168173ffffffffffffffffffffffffffffffffffffffff1603620000885760006040517f1e4fbdf70000000000000000000000000000000000000000000000000000000081526004016200007f9190620001b0565b60405180910390fd5b6200009981620000a760201b60201c565b5060018081905550620001cd565b60008060009054906101000a900473ffffffffffffffffffffffffffffffffffffffff169050816000806101000a81548173ffffffffffffffffffffffffffffffffffffffff021916908373ffffffffffffffffffffffffffffffffffffffff1602179055508173ffffffffffffffffffffffffffffffffffffffff168173ffffffffffffffffffffffffffffffffffffffff167f8be0079c531659141344cd1fd0a4f28419497f9722a3daafe3b4186f6b6457e060405160405180910390a35050565b600073ffffffffffffffffffffffffffffffffffffffff82169050919050565b600062000198826200016b565b9050919050565b620001aa816200018b565b82525050565b6000602082019050620001c760008301846200019f565b92915050565b613c6180620001dd6000396000f3fe608060405234801561001057600080fd5b506004361061018e5760003560e01c806391cab63e116100de578063f288376511610097578063fb3551ff11610071578063fb3551ff146104a1578063fd66091e146104d1578063feec475814610508578063ff17aca4146105245761018e565b8063f288376514610421578063f2c5cb1914610455578063f2fde38b146104855761018e565b806391cab63e14610334578063a7bd211c14610352578063a91a36e914610382578063ad436cc3146103a0578063c4b31084146103d0578063c5053712146104035761018e565b80634a0738741161014b578063734b7ca911610125578063734b7ca9146102aa57806374c8d377146102da5780638910cb66146102f85780638da5cb5b146103165761018e565b80634a0738741461026857806357200a9e14610284578063715018a6146102a05761018e565b8063057e709c146101935780630c23792b146101b15780630f9c5a4b146101cf5780632d6d910114610200578063307409521461021c578063362d26b314610238575b600080fd5b61019b610540565b6040516101a89190612561565b60405180910390f35b6101b9610545565b6040516101c69190612561565b60405180910390f35b6101e960048036038101906101e491906125f5565b61054b565b6040516101f792919061265d565b60405180910390f35b61021a600480360381019061021591906126e8565b6105b6565b005b61023660048036038101906102319190612786565b610804565b005b610252600480360381019061024d91906127b3565b61097f565b60405161025f91906127ef565b60405180910390f35b610282600480360381019061027d919061280a565b6109a3565b005b61029e600480360381019061029991906125f5565b610b28565b005b6102a8610c93565b005b6102c460048036038101906102bf91906125f5565b610ca7565b6040516102d191906127ef565b60405180910390f35b6102e2610f6c565b6040516102ef9190612561565b60405180910390f35b610300610f71565b60405161030d9190612561565b60405180910390f35b61031e610f7b565b60405161032b9190612879565b60405180910390f35b61033c610fa4565b6040516103499190612561565b60405180910390f35b61036c600480360381019061036791906127b3565b610fae565b6040516103799190612879565b60405180910390f35b61038a610fed565b6040516103979190612561565b60405180910390f35b6103ba60048036038101906103b59190612894565b610ff2565b6040516103c79190612aca565b60405180910390f35b6103ea60048036038101906103e59190612894565b611207565b6040516103fa9493929190612b45565b60405180910390f35b61040b6112ec565b6040516104189190612561565b60405180910390f35b61043b60048036038101906104369190612894565b6112f2565b60405161044c959493929190612b91565b60405180910390f35b61046f600480360381019061046a9190612c6d565b6113dd565b60405161047c91906127ef565b60405180910390f35b61049f600480360381019061049a9190612786565b6117b0565b005b6104bb60048036038101906104b69190612786565b611836565b6040516104c89190612dc8565b60405180910390f35b6104eb60048036038101906104e69190612786565b611a5e565b6040516104ff989796959493929190612dea565b60405180910390f35b610522600480360381019061051d9190612e76565b611bf0565b005b61053e60048036038101906105399190612eb6565b611da4565b005b600081565b60075481565b60008060008484604051602001610563929190612f76565b60405160208183030381529060405280519060200120905060006004600083815260200190815260200160002090508060040160009054906101000a900460ff1681600201549350935050509250929050565b600260003373ffffffffffffffffffffffffffffffffffffffff1673ffffffffffffffffffffffffffffffffffffffff16815260200190815260200160002060060160009054906101000a900460ff16610645576040517f08c379a000000000000000000000000000000000000000000000000000000000815260040161063c90612fdb565b60405180910390fd5b600073ffffffffffffffffffffffffffffffffffffffff166004600084815260200190815260200160002060010160009054906101000a900473ffffffffffffffffffffffffffffffffffffffff1673ffffffffffffffffffffffffffffffffffffffff16036106ea576040517f08c379a00000000000000000000000000000000000000000000000000000000081526004016106e190613047565b60405180910390fd5b606481111561072e576040517f08c379a0000000000000000000000000000000000000000000000000000000008152600401610725906130b3565b60405180910390fd5b600060046000848152602001908152602001600020905080600301600081548092919061075a90613102565b91905055508060030154828260020154610774919061314a565b61077e91906131ad565b816002018190555060038160030154101580156107a057506046816002015410155b156107ff5760018160040160006101000a81548160ff021916908315150217905550827f9eacd5102e6d99a7e56aca85b162fff2a89b1ff0d4b5a88d97983a35d19ae7a882600201546040516107f69190612561565b60405180910390a25b505050565b61080c612135565b6000600260008373ffffffffffffffffffffffffffffffffffffffff1673ffffffffffffffffffffffffffffffffffffffff1681526020019081526020016000206005015411610891576040517f08c379a00000000000000000000000000000000000000000000000000000000081526004016108889061322a565b60405180910390fd5b6001600260008373ffffffffffffffffffffffffffffffffffffffff1673ffffffffffffffffffffffffffffffffffffffff16815260200190815260200160002060060160006101000a81548160ff0219169083151502179055508073ffffffffffffffffffffffffffffffffffffffff167f9e731975b673694cf4c611f5eda33cd103657ea6b0afa241c584c6e82477d020600260008473ffffffffffffffffffffffffffffffffffffffff1673ffffffffffffffffffffffffffffffffffffffff168152602001908152602001600020600301546040516109749190612561565b60405180910390a250565b6006818154811061098f57600080fd5b906000526020600020016000915090505481565b6109ab612135565b6000600260008573ffffffffffffffffffffffffffffffffffffffff1673ffffffffffffffffffffffffffffffffffffffff1681526020019081526020016000206005015411610a30576040517f08c379a0000000000000000000000000000000000000000000000000000000008152600401610a279061322a565b60405180910390fd5b6001600260008573ffffffffffffffffffffffffffffffffffffffff1673ffffffffffffffffffffffffffffffffffffffff16815260200190815260200160002060060160016101000a81548160ff0219169083151502179055506000600260008573ffffffffffffffffffffffffffffffffffffffff1673ffffffffffffffffffffffffffffffffffffffff168152602001908152602001600020600301819055508273ffffffffffffffffffffffffffffffffffffffff167f2c05b34d4be4e407fe28ab8d44a77b22dc4de4e596c15f509e6be9a77a8ce9268383604051610b1b929190613277565b60405180910390a2505050565b6000600260003373ffffffffffffffffffffffffffffffffffffffff1673ffffffffffffffffffffffffffffffffffffffff1681526020019081526020016000206005015411610bad576040517f08c379a0000000000000000000000000000000000000000000000000000000008152600401610ba49061322a565b60405180910390fd5b600260003373ffffffffffffffffffffffffffffffffffffffff1673ffffffffffffffffffffffffffffffffffffffff16815260200190815260200160002060060160019054906101000a900460ff1615610c3d576040517f08c379a0000000000000000000000000000000000000000000000000000000008152600401610c34906132e7565b60405180910390fd5b8181600260003373ffffffffffffffffffffffffffffffffffffffff1673ffffffffffffffffffffffffffffffffffffffff1681526020019081526020016000206002019182610c8e92919061354d565b505050565b610c9b612135565b610ca560006121bc565b565b600080600260003373ffffffffffffffffffffffffffffffffffffffff1673ffffffffffffffffffffffffffffffffffffffff1681526020019081526020016000206005015411610d2d576040517f08c379a0000000000000000000000000000000000000000000000000000000008152600401610d249061322a565b60405180910390fd5b8282604051602001610d40929190612f76565b604051602081830303815290604052805190602001209050600073ffffffffffffffffffffffffffffffffffffffff166004600083815260200190815260200160002060010160009054906101000a900473ffffffffffffffffffffffffffffffffffffffff1673ffffffffffffffffffffffffffffffffffffffff1614610dfd576040517f08c379a0000000000000000000000000000000000000000000000000000000008152600401610df490613669565b60405180910390fd5b6040518060a0016040528084848080601f016020809104026020016040519081016040528093929190818152602001838380828437600081840152601f19601f8201169050808301925050505050505081526020013373ffffffffffffffffffffffffffffffffffffffff168152602001600081526020016000815260200160001515815250600460008381526020019081526020016000206000820151816000019081610eab9190613689565b5060208201518160010160006101000a81548173ffffffffffffffffffffffffffffffffffffffff021916908373ffffffffffffffffffffffffffffffffffffffff160217905550604082015181600201556060820151816003015560808201518160040160006101000a81548160ff021916908315150217905550905050807f38586a8f95f53da657f740d4e3f98699828cd95273c9770d2744346580eaa3a5848433604051610f5e9392919061375b565b60405180910390a292915050565b606481565b6000600754905090565b60008060009054906101000a900473ffffffffffffffffffffffffffffffffffffffff16905090565b6000600854905090565b60058181548110610fbe57600080fd5b906000526020600020016000915054906101000a900473ffffffffffffffffffffffffffffffffffffffff1681565b603281565b610ffa6123c7565b600360008381526020019081526020016000206040518060a00160405290816000820160009054906101000a900473ffffffffffffffffffffffffffffffffffffffff1673ffffffffffffffffffffffffffffffffffffffff1673ffffffffffffffffffffffffffffffffffffffff16815260200160018201805461107e90613370565b80601f01602080910402602001604051908101604052809291908181526020018280546110aa90613370565b80156110f75780601f106110cc576101008083540402835291602001916110f7565b820191906000526020600020905b8154815290600101906020018083116110da57829003601f168201915b505050505081526020016002820160009054906101000a900460ff1660ff1660ff1681526020016003820154815260200160048201805480602002602001604051908101604052809291908181526020016000905b828210156111f857838290600052602060002001805461116b90613370565b80601f016020809104026020016040519081016040528092919081815260200182805461119790613370565b80156111e45780601f106111b9576101008083540402835291602001916111e4565b820191906000526020600020905b8154815290600101906020018083116111c757829003601f168201915b50505050508152602001906001019061114c565b50505050815250509050919050565b60036020528060005260406000206000915090508060000160009054906101000a900473ffffffffffffffffffffffffffffffffffffffff169080600101805461125090613370565b80601f016020809104026020016040519081016040528092919081815260200182805461127c90613370565b80156112c95780601f1061129e576101008083540402835291602001916112c9565b820191906000526020600020905b8154815290600101906020018083116112ac57829003601f168201915b5050505050908060020160009054906101000a900460ff16908060030154905084565b60085481565b600460205280600052604060002060009150905080600001805461131590613370565b80601f016020809104026020016040519081016040528092919081815260200182805461134190613370565b801561138e5780601f106113635761010080835404028352916020019161138e565b820191906000526020600020905b81548152906001019060200180831161137157829003601f168201915b5050505050908060010160009054906101000a900473ffffffffffffffffffffffffffffffffffffffff16908060020154908060030154908060040160009054906101000a900460ff16905085565b600080600260003373ffffffffffffffffffffffffffffffffffffffff1673ffffffffffffffffffffffffffffffffffffffff1681526020019081526020016000206005015411611463576040517f08c379a000000000000000000000000000000000000000000000000000000000815260040161145a9061322a565b60405180910390fd5b600260003373ffffffffffffffffffffffffffffffffffffffff1673ffffffffffffffffffffffffffffffffffffffff16815260200190815260200160002060060160019054906101000a900460ff16156114f3576040517f08c379a00000000000000000000000000000000000000000000000000000000081526004016114ea906132e7565b60405180910390fd5b60048460ff16111561153a576040517f08c379a0000000000000000000000000000000000000000000000000000000008152600401611531906137d9565b60405180910390fd5b338686426040516020016115519493929190613862565b6040516020818303038152906040528051906020012090506040518060a001604052803373ffffffffffffffffffffffffffffffffffffffff16815260200187878080601f016020809104026020016040519081016040528093929190818152602001838380828437600081840152601f19601f8201169050808301925050505050505081526020018560ff1681526020014281526020018484906115f69190613a42565b8152506003600083815260200190815260200160002060008201518160000160006101000a81548173ffffffffffffffffffffffffffffffffffffffff021916908373ffffffffffffffffffffffffffffffffffffffff16021790555060208201518160010190816116689190613689565b5060408201518160020160006101000a81548160ff021916908360ff1602179055506060820151816003015560808201518160040190805190602001906116b092919061240f565b509050506006819080600181540180825580915050600190039060005260206000200160009091909190915055600260003373ffffffffffffffffffffffffffffffffffffffff1673ffffffffffffffffffffffffffffffffffffffff168152602001908152602001600020600401600081548092919061173090613102565b91905055506007600081548092919061174890613102565b9190505550611758336001612280565b3373ffffffffffffffffffffffffffffffffffffffff16817f1150cea034e4fd5a6337ec3d96898404f0ecdb57b462c869ad74977b130474f38660405161179f9190613a57565b60405180910390a395945050505050565b6117b8612135565b600073ffffffffffffffffffffffffffffffffffffffff168173ffffffffffffffffffffffffffffffffffffffff160361182a5760006040517f1e4fbdf70000000000000000000000000000000000000000000000000000000081526004016118219190612879565b60405180910390fd5b611833816121bc565b50565b61183e612468565b600260008373ffffffffffffffffffffffffffffffffffffffff1673ffffffffffffffffffffffffffffffffffffffff168152602001908152602001600020604051806101000160405290816000820160009054906101000a900473ffffffffffffffffffffffffffffffffffffffff1673ffffffffffffffffffffffffffffffffffffffff1673ffffffffffffffffffffffffffffffffffffffff1681526020016001820180546118ef90613370565b80601f016020809104026020016040519081016040528092919081815260200182805461191b90613370565b80156119685780601f1061193d57610100808354040283529160200191611968565b820191906000526020600020905b81548152906001019060200180831161194b57829003601f168201915b5050505050815260200160028201805461198190613370565b80601f01602080910402602001604051908101604052809291908181526020018280546119ad90613370565b80156119fa5780601f106119cf576101008083540402835291602001916119fa565b820191906000526020600020905b8154815290600101906020018083116119dd57829003601f168201915b505050505081526020016003820154815260200160048201548152602001600582015481526020016006820160009054906101000a900460ff161515151581526020016006820160019054906101000a900460ff1615151515815250509050919050565b60026020528060005260406000206000915090508060000160009054906101000a900473ffffffffffffffffffffffffffffffffffffffff1690806001018054611aa790613370565b80601f0160208091040260200160405190810160405280929190818152602001828054611ad390613370565b8015611b205780601f10611af557610100808354040283529160200191611b20565b820191906000526020600020905b815481529060010190602001808311611b0357829003601f168201915b505050505090806002018054611b3590613370565b80601f0160208091040260200160405190810160405280929190818152602001828054611b6190613370565b8015611bae5780601f10611b8357610100808354040283529160200191611bae565b820191906000526020600020905b815481529060010190602001808311611b9157829003601f168201915b5050505050908060030154908060040154908060050154908060060160009054906101000a900460ff16908060060160019054906101000a900460ff16905088565b611bf8612135565b6000600260008473ffffffffffffffffffffffffffffffffffffffff1673ffffffffffffffffffffffffffffffffffffffff1681526020019081526020016000206005015411611c7d576040517f08c379a0000000000000000000000000000000000000000000000000000000008152600401611c749061322a565b60405180910390fd5b6064811115611cc1576040517f08c379a0000000000000000000000000000000000000000000000000000000008152600401611cb8906130b3565b60405180910390fd5b6000600260008473ffffffffffffffffffffffffffffffffffffffff1673ffffffffffffffffffffffffffffffffffffffff16815260200190815260200160002060030154905081600260008573ffffffffffffffffffffffffffffffffffffffff1673ffffffffffffffffffffffffffffffffffffffff168152602001908152602001600020600301819055508273ffffffffffffffffffffffffffffffffffffffff167f15dd57e0cde9af9083c846eb39c9da382e907c0036818e4a163ecd167e5f32768284604051611d97929190613a72565b60405180910390a2505050565b6000600260003373ffffffffffffffffffffffffffffffffffffffff1673ffffffffffffffffffffffffffffffffffffffff1681526020019081526020016000206005015414611e29576040517f08c379a0000000000000000000000000000000000000000000000000000000008152600401611e2090613ae7565b60405180910390fd5b60008484905011611e6f576040517f08c379a0000000000000000000000000000000000000000000000000000000008152600401611e6690613b53565b60405180910390fd5b6040518061010001604052803373ffffffffffffffffffffffffffffffffffffffff16815260200185858080601f016020809104026020016040519081016040528093929190818152602001838380828437600081840152601f19601f82011690508083019250505050505050815260200183838080601f016020809104026020016040519081016040528093929190818152602001838380828437600081840152601f19601f820116905080830192505050505050508152602001603281526020016000815260200142815260200160001515815260200160001515815250600260003373ffffffffffffffffffffffffffffffffffffffff1673ffffffffffffffffffffffffffffffffffffffff16815260200190815260200160002060008201518160000160006101000a81548173ffffffffffffffffffffffffffffffffffffffff021916908373ffffffffffffffffffffffffffffffffffffffff1602179055506020820151816001019081611fea9190613689565b5060408201518160020190816120009190613689565b50606082015181600301556080820151816004015560a0820151816005015560c08201518160060160006101000a81548160ff02191690831515021790555060e08201518160060160016101000a81548160ff0219169083151502179055509050506005339080600181540180825580915050600190039060005260206000200160009091909190916101000a81548173ffffffffffffffffffffffffffffffffffffffff021916908373ffffffffffffffffffffffffffffffffffffffff160217905550600860008154809291906120d890613102565b91905055503373ffffffffffffffffffffffffffffffffffffffff167f023c5efe572c42192271951adb0e77f97d7fc84bc761d026189ac0861734682485854260405161212793929190613b73565b60405180910390a250505050565b61213d6123bf565b73ffffffffffffffffffffffffffffffffffffffff1661215b610f7b565b73ffffffffffffffffffffffffffffffffffffffff16146121ba5761217e6123bf565b6040517f118cdaa70000000000000000000000000000000000000000000000000000000081526004016121b19190612879565b60405180910390fd5b565b60008060009054906101000a900473ffffffffffffffffffffffffffffffffffffffff169050816000806101000a81548173ffffffffffffffffffffffffffffffffffffffff021916908373ffffffffffffffffffffffffffffffffffffffff1602179055508173ffffffffffffffffffffffffffffffffffffffff168173ffffffffffffffffffffffffffffffffffffffff167f8be0079c531659141344cd1fd0a4f28419497f9722a3daafe3b4186f6b6457e060405160405180910390a35050565b6000600260008473ffffffffffffffffffffffffffffffffffffffff1673ffffffffffffffffffffffffffffffffffffffff1681526020019081526020016000206003015490506000808313156122f25782826122dd919061314a565b905060648111156122ed57606490505b612322565b6000836122fe90613baf565b9050828111156123115760009150612320565b808361231d9190613bf7565b91505b505b80600260008673ffffffffffffffffffffffffffffffffffffffff1673ffffffffffffffffffffffffffffffffffffffff168152602001908152602001600020600301819055508373ffffffffffffffffffffffffffffffffffffffff167f15dd57e0cde9af9083c846eb39c9da382e907c0036818e4a163ecd167e5f327683836040516123b1929190613a72565b60405180910390a250505050565b600033905090565b6040518060a00160405280600073ffffffffffffffffffffffffffffffffffffffff16815260200160608152602001600060ff16815260200160008152602001606081525090565b828054828255906000526020600020908101928215612457579160200282015b828111156124565782518290816124469190613689565b509160200191906001019061242f565b5b50905061246491906124c7565b5090565b604051806101000160405280600073ffffffffffffffffffffffffffffffffffffffff16815260200160608152602001606081526020016000815260200160008152602001600081526020016000151581526020016000151581525090565b5b808211156124e757600081816124de91906124eb565b506001016124c8565b5090565b5080546124f790613370565b6000825580601f106125095750612528565b601f016020900490600052602060002090810190612527919061252b565b5b50565b5b8082111561254457600081600090555060010161252c565b5090565b6000819050919050565b61255b81612548565b82525050565b60006020820190506125766000830184612552565b92915050565b6000604051905090565b600080fd5b600080fd5b600080fd5b600080fd5b600080fd5b60008083601f8401126125b5576125b4612590565b5b8235905067ffffffffffffffff8111156125d2576125d1612595565b5b6020830191508360018202830111156125ee576125ed61259a565b5b9250929050565b6000806020838503121561260c5761260b612586565b5b600083013567ffffffffffffffff81111561262a5761262961258b565b5b6126368582860161259f565b92509250509250929050565b60008115159050919050565b61265781612642565b82525050565b6000604082019050612672600083018561264e565b61267f6020830184612552565b9392505050565b6000819050919050565b61269981612686565b81146126a457600080fd5b50565b6000813590506126b681612690565b92915050565b6126c581612548565b81146126d057600080fd5b50565b6000813590506126e2816126bc565b92915050565b600080604083850312156126ff576126fe612586565b5b600061270d858286016126a7565b925050602061271e858286016126d3565b9150509250929050565b600073ffffffffffffffffffffffffffffffffffffffff82169050919050565b600061275382612728565b9050919050565b61276381612748565b811461276e57600080fd5b50565b6000813590506127808161275a565b92915050565b60006020828403121561279c5761279b612586565b5b60006127aa84828501612771565b91505092915050565b6000602082840312156127c9576127c8612586565b5b60006127d7848285016126d3565b91505092915050565b6127e981612686565b82525050565b600060208201905061280460008301846127e0565b92915050565b60008060006040848603121561282357612822612586565b5b600061283186828701612771565b935050602084013567ffffffffffffffff8111156128525761285161258b565b5b61285e8682870161259f565b92509250509250925092565b61287381612748565b82525050565b600060208201905061288e600083018461286a565b92915050565b6000602082840312156128aa576128a9612586565b5b60006128b8848285016126a7565b91505092915050565b6128ca81612748565b82525050565b600081519050919050565b600082825260208201905092915050565b60005b8381101561290a5780820151818401526020810190506128ef565b60008484015250505050565b6000601f19601f8301169050919050565b6000612932826128d0565b61293c81856128db565b935061294c8185602086016128ec565b61295581612916565b840191505092915050565b600060ff82169050919050565b61297681612960565b82525050565b61298581612548565b82525050565b600081519050919050565b600082825260208201905092915050565b6000819050602082019050919050565b60006129c38383612927565b905092915050565b6000602082019050919050565b60006129e38261298b565b6129ed8185612996565b9350836020820285016129ff856129a7565b8060005b85811015612a3b5784840389528151612a1c85826129b7565b9450612a27836129cb565b925060208a01995050600181019050612a03565b50829750879550505050505092915050565b600060a083016000830151612a6560008601826128c1565b5060208301518482036020860152612a7d8282612927565b9150506040830151612a92604086018261296d565b506060830151612aa5606086018261297c565b5060808301518482036080860152612abd82826129d8565b9150508091505092915050565b60006020820190508181036000830152612ae48184612a4d565b905092915050565b600082825260208201905092915050565b6000612b08826128d0565b612b128185612aec565b9350612b228185602086016128ec565b612b2b81612916565b840191505092915050565b612b3f81612960565b82525050565b6000608082019050612b5a600083018761286a565b8181036020830152612b6c8186612afd565b9050612b7b6040830185612b36565b612b886060830184612552565b95945050505050565b600060a0820190508181036000830152612bab8188612afd565b9050612bba602083018761286a565b612bc76040830186612552565b612bd46060830185612552565b612be1608083018461264e565b9695505050505050565b612bf481612960565b8114612bff57600080fd5b50565b600081359050612c1181612beb565b92915050565b60008083601f840112612c2d57612c2c612590565b5b8235905067ffffffffffffffff811115612c4a57612c49612595565b5b602083019150836020820283011115612c6657612c6561259a565b5b9250929050565b600080600080600060608688031215612c8957612c88612586565b5b600086013567ffffffffffffffff811115612ca757612ca661258b565b5b612cb38882890161259f565b95509550506020612cc688828901612c02565b935050604086013567ffffffffffffffff811115612ce757612ce661258b565b5b612cf388828901612c17565b92509250509295509295909350565b612d0b81612642565b82525050565b600061010083016000830151612d2a60008601826128c1565b5060208301518482036020860152612d428282612927565b91505060408301518482036040860152612d5c8282612927565b9150506060830151612d71606086018261297c565b506080830151612d84608086018261297c565b5060a0830151612d9760a086018261297c565b5060c0830151612daa60c0860182612d02565b5060e0830151612dbd60e0860182612d02565b508091505092915050565b60006020820190508181036000830152612de28184612d11565b905092915050565b600061010082019050612e00600083018b61286a565b8181036020830152612e12818a612afd565b90508181036040830152612e268189612afd565b9050612e356060830188612552565b612e426080830187612552565b612e4f60a0830186612552565b612e5c60c083018561264e565b612e6960e083018461264e565b9998505050505050505050565b60008060408385031215612e8d57612e8c612586565b5b6000612e9b85828601612771565b9250506020612eac858286016126d3565b9150509250929050565b60008060008060408587031215612ed057612ecf612586565b5b600085013567ffffffffffffffff811115612eee57612eed61258b565b5b612efa8782880161259f565b9450945050602085013567ffffffffffffffff811115612f1d57612f1c61258b565b5b612f298782880161259f565b925092505092959194509250565b600081905092915050565b82818337600083830152505050565b6000612f5d8385612f37565b9350612f6a838584612f42565b82840190509392505050565b6000612f83828486612f51565b91508190509392505050565b7f4e6f74207665726966696564206167656e740000000000000000000000000000600082015250565b6000612fc5601283612aec565b9150612fd082612f8f565b602082019050919050565b60006020820190508181036000830152612ff481612fb8565b9050919050565b7f536b696c6c206e6f7420666f756e640000000000000000000000000000000000600082015250565b6000613031600f83612aec565b915061303c82612ffb565b602082019050919050565b6000602082019050818103600083015261306081613024565b9050919050565b7f496e76616c69642073636f726500000000000000000000000000000000000000600082015250565b600061309d600d83612aec565b91506130a882613067565b602082019050919050565b600060208201905081810360008301526130cc81613090565b9050919050565b7f4e487b7100000000000000000000000000000000000000000000000000000000600052601160045260246000fd5b600061310d82612548565b91507fffffffffffffffffffffffffffffffffffffffffffffffffffffffffffffffff820361313f5761313e6130d3565b5b600182019050919050565b600061315582612548565b915061316083612548565b9250828201905080821115613178576131776130d3565b5b92915050565b7f4e487b7100000000000000000000000000000000000000000000000000000000600052601260045260246000fd5b60006131b882612548565b91506131c383612548565b9250826131d3576131d261317e565b5b828204905092915050565b7f4e6f742072656769737465726564000000000000000000000000000000000000600082015250565b6000613214600e83612aec565b915061321f826131de565b602082019050919050565b6000602082019050818103600083015261324381613207565b9050919050565b60006132568385612aec565b9350613263838584612f42565b61326c83612916565b840190509392505050565b6000602082019050818103600083015261329281848661324a565b90509392505050565b7f4167656e742062616e6e65640000000000000000000000000000000000000000600082015250565b60006132d1600c83612aec565b91506132dc8261329b565b602082019050919050565b60006020820190508181036000830152613300816132c4565b9050919050565b600082905092915050565b7f4e487b7100000000000000000000000000000000000000000000000000000000600052604160045260246000fd5b7f4e487b7100000000000000000000000000000000000000000000000000000000600052602260045260246000fd5b6000600282049050600182168061338857607f821691505b60208210810361339b5761339a613341565b5b50919050565b60008190508160005260206000209050919050565b60006020601f8301049050919050565b600082821b905092915050565b6000600883026134037fffffffffffffffffffffffffffffffffffffffffffffffffffffffffffffffff826133c6565b61340d86836133c6565b95508019841693508086168417925050509392505050565b6000819050919050565b600061344a61344561344084612548565b613425565b612548565b9050919050565b6000819050919050565b6134648361342f565b61347861347082613451565b8484546133d3565b825550505050565b600090565b61348d613480565b61349881848461345b565b505050565b5b818110156134bc576134b1600082613485565b60018101905061349e565b5050565b601f821115613501576134d2816133a1565b6134db846133b6565b810160208510156134ea578190505b6134fe6134f6856133b6565b83018261349d565b50505b505050565b600082821c905092915050565b600061352460001984600802613506565b1980831691505092915050565b600061353d8383613513565b9150826002028217905092915050565b6135578383613307565b67ffffffffffffffff8111156135705761356f613312565b5b61357a8254613370565b6135858282856134c0565b6000601f8311600181146135b457600084156135a2578287013590505b6135ac8582613531565b865550613614565b601f1984166135c2866133a1565b60005b828110156135ea578489013582556001820191506020850194506020810190506135c5565b868310156136075784890135613603601f891682613513565b8355505b6001600288020188555050505b50505050505050565b7f536b696c6c206578697374730000000000000000000000000000000000000000600082015250565b6000613653600c83612aec565b915061365e8261361d565b602082019050919050565b6000602082019050818103600083015261368281613646565b9050919050565b613692826128d0565b67ffffffffffffffff8111156136ab576136aa613312565b5b6136b58254613370565b6136c08282856134c0565b600060209050601f8311600181146136f357600084156136e1578287015190505b6136eb8582613531565b865550613753565b601f198416613701866133a1565b60005b8281101561372957848901518255600182019150602085019450602081019050613704565b868310156137465784890151613742601f891682613513565b8355505b6001600288020188555050505b505050505050565b6000604082019050818103600083015261377681858761324a565b9050613785602083018461286a565b949350505050565b7f496e76616c6964207269736b206c6576656c0000000000000000000000000000600082015250565b60006137c3601283612aec565b91506137ce8261378d565b602082019050919050565b600060208201905081810360008301526137f2816137b6565b9050919050565b60008160601b9050919050565b6000613811826137f9565b9050919050565b600061382382613806565b9050919050565b61383b61383682612748565b613818565b82525050565b6000819050919050565b61385c61385782612548565b613841565b82525050565b600061386e828761382a565b60148201915061387f828587612f51565b915061388b828461384b565b60208201915081905095945050505050565b6138a682612916565b810181811067ffffffffffffffff821117156138c5576138c4613312565b5b80604052505050565b60006138d861257c565b90506138e4828261389d565b919050565b600067ffffffffffffffff82111561390457613903613312565b5b602082029050602081019050919050565b600080fd5b600067ffffffffffffffff82111561393557613934613312565b5b61393e82612916565b9050602081019050919050565b600061395e6139598461391a565b6138ce565b90508281526020810184848401111561397a57613979613915565b5b613985848285612f42565b509392505050565b600082601f8301126139a2576139a1612590565b5b81356139b284826020860161394b565b91505092915050565b60006139ce6139c9846138e9565b6138ce565b905080838252602082019050602084028301858111156139f1576139f061259a565b5b835b81811015613a3857803567ffffffffffffffff811115613a1657613a15612590565b5b808601613a23898261398d565b855260208501945050506020810190506139f3565b5050509392505050565b6000613a4f3684846139bb565b905092915050565b6000602082019050613a6c6000830184612b36565b92915050565b6000604082019050613a876000830185612552565b613a946020830184612552565b9392505050565b7f416c726561647920726567697374657265640000000000000000000000000000600082015250565b6000613ad1601283612aec565b9150613adc82613a9b565b602082019050919050565b60006020820190508181036000830152613b0081613ac4565b9050919050565b7f4e616d6520726571756972656400000000000000000000000000000000000000600082015250565b6000613b3d600d83612aec565b9150613b4882613b07565b602082019050919050565b60006020820190508181036000830152613b6c81613b30565b9050919050565b60006040820190508181036000830152613b8e81858761324a565b9050613b9d6020830184612552565b949350505050565b6000819050919050565b6000613bba82613ba5565b91507f80000000000000000000000000000000000000000000000000000000000000008203613bec57613beb6130d3565b5b816000039050919050565b6000613c0282612548565b9150613c0d83612548565b9250828203905081811115613c2557613c246130d3565b5b9291505056fea2646970667358221220ebce81b2a5affc24bc1d36f54cfe3fe4e55ff93a4a8f653aad4e6928f27a57da64736f6c63430008140033",
  "linkReferences": {},
  "deployedLinkReferences": {}
}